{
	"data": {
		"bytecode": {
			"linkReferences": {},
			"object": "60a060405260018055348015610013575f5ffd5b5060405161404e38038061404e8339818101604052810190610035919061034d565b5f73ffffffffffffffffffffffffffffffffffffffff168273ffffffffffffffffffffffffffffffffffffffff16036100a3576040517f08c379a000000000000000000000000000000000000000000000000000000000815260040161009a906103e5565b60405180910390fd5b5f73ffffffffffffffffffffffffffffffffffffffff168173ffffffffffffffffffffffffffffffffffffffff1603610111576040517f08c379a00000000000000000000000000000000000000000000000000000000081526004016101089061044d565b60405180910390fd5b8073ffffffffffffffffffffffffffffffffffffffff1660808173ffffffffffffffffffffffffffffffffffffffff16815250506101575f5f1b8361019060201b60201c565b506101887f241ecf16d79d0f8dbfb92cbc07fe17840425976cf0667f022fe9877caa831b088361019060201b60201c565b50505061046b565b5f6101a1838361028560201b60201c565b61027b5760015f5f8581526020019081526020015f205f015f8473ffffffffffffffffffffffffffffffffffffffff1673ffffffffffffffffffffffffffffffffffffffff1681526020019081526020015f205f6101000a81548160ff0219169083151502179055506102186102e860201b60201c565b73ffffffffffffffffffffffffffffffffffffffff168273ffffffffffffffffffffffffffffffffffffffff16847f2f8788117e7eff1d82e926ec794901d17c78024a50270940304540a733656f0d60405160405180910390a46001905061027f565b5f90505b92915050565b5f5f5f8481526020019081526020015f205f015f8373ffffffffffffffffffffffffffffffffffffffff1673ffffffffffffffffffffffffffffffffffffffff1681526020019081526020015f205f9054906101000a900460ff16905092915050565b5f33905090565b5f5ffd5b5f73ffffffffffffffffffffffffffffffffffffffff82169050919050565b5f61031c826102f3565b9050919050565b61032c81610312565b8114610336575f5ffd5b50565b5f8151905061034781610323565b92915050565b5f5f60408385031215610363576103626102ef565b5b5f61037085828601610339565b925050602061038185828601610339565b9150509250929050565b5f82825260208201905092915050565b7f41444d494e5f52455155495245440000000000000000000000000000000000005f82015250565b5f6103cf600e8361038b565b91506103da8261039b565b602082019050919050565b5f6020820190508181035f8301526103fc816103c3565b9050919050565b7f4e46545f524551554952454400000000000000000000000000000000000000005f82015250565b5f610437600c8361038b565b915061044282610403565b602082019050919050565b5f6020820190508181035f8301526104648161042b565b9050919050565b608051613bbd6104915f395f8181610b0901528181611a1a015261232b0152613bbd5ff3fe608060405234801561000f575f5ffd5b50600436106101d7575f3560e01c8063771be71911610102578063b7a2c221116100a0578063ec87621c1161006f578063ec87621c146105d4578063f13e16d0146105f2578063f1d456231461060e578063f85ad0d61461062a576101d7565b8063b7a2c2211461053b578063c6a839d21461056c578063d547741f14610588578063e34fc531146105a4576101d7565b80639bc621dc116100dc5780639bc621dc146104b5578063a217fddf146104d1578063ac28838b146104ef578063b088f4541461051f576101d7565b8063771be7191461042557806391d14854146104555780639855fd7014610485576101d7565b80632f2ff15d1161017a57806339500f341161014957806339500f341461038957806340068302146103a757806361bf4b3a146103d75780636ce76f3014610407576101d7565b80632f2ff15d1461030357806331c2273b1461031f57806332665ffb1461033d57806336568abe1461036d576101d7565b806314330660116101b65780631433066014610257578063154bb89114610273578063216361a1146102a3578063248a9ca3146102d3576101d7565b8062d913e0146101db57806301ffc9a7146101f757806309cc449d14610227575b5f5ffd5b6101f560048036038101906101f091906127e2565b610646565b005b610211600480360381019061020c9190612875565b610748565b60405161021e91906128af565b60405180910390f35b610241600480360381019061023c9190612922565b6107c1565b60405161024e91906128af565b60405180910390f35b610271600480360381019061026c9190612993565b6108a1565b005b61028d600480360381019061028891906129d1565b6109d5565b60405161029a91906128af565b60405180910390f35b6102bd60048036038101906102b891906129d1565b610a55565b6040516102ca9190612a0b565b60405180910390f35b6102ed60048036038101906102e89190612a24565b610ac9565b6040516102fa9190612a5e565b60405180910390f35b61031d60048036038101906103189190612a77565b610ae5565b005b610327610b07565b6040516103349190612b10565b60405180910390f35b610357600480360381019061035291906129d1565b610b2b565b6040516103649190612cdd565b60405180910390f35b61038760048036038101906103829190612a77565b610dd7565b005b610391610e52565b60405161039e9190612a0b565b60405180910390f35b6103c160048036038101906103bc9190612a24565b610e58565b6040516103ce9190612a0b565b60405180910390f35b6103f160048036038101906103ec9190612cfd565b610e6d565b6040516103fe91906128af565b60405180910390f35b61040f610ee7565b60405161041c9190612a5e565b60405180910390f35b61043f600480360381019061043a9190612cfd565b610f0b565b60405161044c9190612a5e565b60405180910390f35b61046f600480360381019061046a9190612a77565b610f20565b60405161047c91906128af565b60405180910390f35b61049f600480360381019061049a9190612cfd565b610f83565b6040516104ac9190612da1565b60405180910390f35b6104cf60048036038101906104ca9190612a77565b6110cb565b005b6104d96113a7565b6040516104e69190612a5e565b60405180910390f35b61050960048036038101906105049190612a24565b6113ad565b6040516105169190612da1565b60405180910390f35b61053960048036038101906105349190612e1b565b6114c8565b005b61055560048036038101906105509190612e9f565b611618565b604051610563929190612f69565b60405180910390f35b61058660048036038101906105819190612922565b611aee565b005b6105a2600480360381019061059d9190612a77565b611cef565b005b6105be60048036038101906105b991906129d1565b611d11565b6040516105cb9190612f9f565b60405180910390f35b6105dc611da4565b6040516105e99190612a5e565b60405180910390f35b61060c60048036038101906106079190612fb8565b611dc8565b005b61062860048036038101906106239190612ff6565b611eaf565b005b610644600480360381019061063f919061305a565b612233565b005b7f241ecf16d79d0f8dbfb92cbc07fe17840425976cf0667f022fe9877caa831b08610670816123fe565b825f60045f8381526020019081526020015f205f0154036106c6576040517f08c379a00000000000000000000000000000000000000000000000000000000081526004016106bd90613111565b60405180910390fd5b8260045f8681526020019081526020015f206009015f6101000a81548160ff0219169083151502179055504260045f8681526020019081526020015f20600b0181905550837fc71412f97d91674644a2c076e0dbf0dd8ac6db116d7dbce0dd12cfe8e3ae42598460405161073a91906128af565b60405180910390a250505050565b5f7f7965db0b000000000000000000000000000000000000000000000000000000007bffffffffffffffffffffffffffffffffffffffffffffffffffffffff1916827bffffffffffffffffffffffffffffffffffffffffffffffffffffffff191614806107ba57506107b982612412565b5b9050919050565b5f825f60045f8381526020019081526020015f205f015403610818576040517f08c379a000000000000000000000000000000000000000000000000000000000815260040161080f90613111565b60405180910390fd5b5f60045f8681526020019081526020015f209050806009015f9054906101000a900460ff16801561089757508373ffffffffffffffffffffffffffffffffffffffff16816005015f9054906101000a900473ffffffffffffffffffffffffffffffffffffffff1673ffffffffffffffffffffffffffffffffffffffff16145b9250505092915050565b7f241ecf16d79d0f8dbfb92cbc07fe17840425976cf0667f022fe9877caa831b086108cb816123fe565b825f5f1b60025f8381526020019081526020015f205f015403610923576040517f08c379a000000000000000000000000000000000000000000000000000000000815260040161091a90613179565b60405180910390fd5b5f60025f8681526020019081526020015f209050838160020160146101000a81548160ff021916908315150217905550428160040181905550806002015f9054906101000a900473ffffffffffffffffffffffffffffffffffffffff1673ffffffffffffffffffffffffffffffffffffffff16857f854c29e7d0b157e411e89b9dbb7c9ac925dbb496b0d4a9de90ab7a0f5c4f6cc9866040516109c691906128af565b60405180910390a35050505050565b5f815f60045f8381526020019081526020015f205f015403610a2c576040517f08c379a0000000000000000000000000000000000000000000000000000000008152600401610a2390613111565b60405180910390fd5b60045f8481526020019081526020015f206009015f9054906101000a900460ff16915050919050565b5f815f60045f8381526020019081526020015f205f015403610aac576040517f08c379a0000000000000000000000000000000000000000000000000000000008152600401610aa390613111565b60405180910390fd5b60045f8481526020019081526020015f2060040154915050919050565b5f5f5f8381526020019081526020015f20600101549050919050565b610aee82610ac9565b610af7816123fe565b610b01838361247b565b50505050565b7f000000000000000000000000000000000000000000000000000000000000000081565b610b336126a5565b815f60045f8381526020019081526020015f205f015403610b89576040517f08c379a0000000000000000000000000000000000000000000000000000000008152600401610b8090613111565b60405180910390fd5b60045f8481526020019081526020015f20604051806101800160405290815f820154815260200160018201548152602001600282015481526020016003820154815260200160048201548152602001600582015f9054906101000a900473ffffffffffffffffffffffffffffffffffffffff1673ffffffffffffffffffffffffffffffffffffffff1673ffffffffffffffffffffffffffffffffffffffff168152602001600682015f9054906101000a900473ffffffffffffffffffffffffffffffffffffffff1673ffffffffffffffffffffffffffffffffffffffff1673ffffffffffffffffffffffffffffffffffffffff168152602001600782018054610c91906131c4565b80601f0160208091040260200160405190810160405280929190818152602001828054610cbd906131c4565b8015610d085780601f10610cdf57610100808354040283529160200191610d08565b820191905f5260205f20905b815481529060010190602001808311610ceb57829003601f168201915b50505050508152602001600882018054610d21906131c4565b80601f0160208091040260200160405190810160405280929190818152602001828054610d4d906131c4565b8015610d985780601f10610d6f57610100808354040283529160200191610d98565b820191905f5260205f20905b815481529060010190602001808311610d7b57829003601f168201915b50505050508152602001600982015f9054906101000a900460ff16151515158152602001600a8201548152602001600b82015481525050915050919050565b610ddf612564565b73ffffffffffffffffffffffffffffffffffffffff168173ffffffffffffffffffffffffffffffffffffffff1614610e43576040517f6697b23200000000000000000000000000000000000000000000000000000000815260040160405180910390fd5b610e4d828261256b565b505050565b60015481565b6005602052805f5260405f205f915090505481565b5f5f60035f8473ffffffffffffffffffffffffffffffffffffffff1673ffffffffffffffffffffffffffffffffffffffff1681526020019081526020015f205490505f5f1b8114158015610edf575060025f8281526020019081526020015f2060020160149054906101000a900460ff165b915050919050565b7f2fdac322ee704ce09f0773f7f3f92eb98d5e7c836ee9c056cccd5f61041e5e3f81565b6003602052805f5260405f205f915090505481565b5f5f5f8481526020019081526020015f205f015f8373ffffffffffffffffffffffffffffffffffffffff1673ffffffffffffffffffffffffffffffffffffffff1681526020019081526020015f205f9054906101000a900460ff16905092915050565b610f8b61272a565b5f60035f8473ffffffffffffffffffffffffffffffffffffffff1673ffffffffffffffffffffffffffffffffffffffff1681526020019081526020015f205490505f5f1b8103611010576040517f08c379a000000000000000000000000000000000000000000000000000000000815260040161100790613179565b60405180910390fd5b60025f8281526020019081526020015f206040518060c00160405290815f820154815260200160018201548152602001600282015f9054906101000a900473ffffffffffffffffffffffffffffffffffffffff1673ffffffffffffffffffffffffffffffffffffffff1673ffffffffffffffffffffffffffffffffffffffff1681526020016002820160149054906101000a900460ff1615151515815260200160038201548152602001600482015481525050915050919050565b7f241ecf16d79d0f8dbfb92cbc07fe17840425976cf0667f022fe9877caa831b086110f5816123fe565b825f5f1b60025f8381526020019081526020015f205f01540361114d576040517f08c379a000000000000000000000000000000000000000000000000000000000815260040161114490613179565b60405180910390fd5b5f73ffffffffffffffffffffffffffffffffffffffff168373ffffffffffffffffffffffffffffffffffffffff16036111bb576040517f08c379a00000000000000000000000000000000000000000000000000000000081526004016111b29061323e565b60405180910390fd5b5f5f1b60035f8573ffffffffffffffffffffffffffffffffffffffff1673ffffffffffffffffffffffffffffffffffffffff1681526020019081526020015f20541461123c576040517f08c379a0000000000000000000000000000000000000000000000000000000008152600401611233906132a6565b60405180910390fd5b5f60025f8681526020019081526020015f2090505f816002015f9054906101000a900473ffffffffffffffffffffffffffffffffffffffff16905060035f8273ffffffffffffffffffffffffffffffffffffffff1673ffffffffffffffffffffffffffffffffffffffff1681526020019081526020015f205f905584826002015f6101000a81548173ffffffffffffffffffffffffffffffffffffffff021916908373ffffffffffffffffffffffffffffffffffffffff1602179055504282600401819055508560035f8773ffffffffffffffffffffffffffffffffffffffff1673ffffffffffffffffffffffffffffffffffffffff1681526020019081526020015f20819055508473ffffffffffffffffffffffffffffffffffffffff168173ffffffffffffffffffffffffffffffffffffffff16877f22ba3b21fa244e7e28c236715ea866f69b6d5276964f9066c1a23acf0018f25a60405160405180910390a4505050505050565b5f5f1b81565b6113b561272a565b815f5f1b60025f8381526020019081526020015f205f01540361140d576040517f08c379a000000000000000000000000000000000000000000000000000000000815260040161140490613179565b60405180910390fd5b60025f8481526020019081526020015f206040518060c00160405290815f820154815260200160018201548152602001600282015f9054906101000a900473ffffffffffffffffffffffffffffffffffffffff1673ffffffffffffffffffffffffffffffffffffffff1673ffffffffffffffffffffffffffffffffffffffff1681526020016002820160149054906101000a900460ff1615151515815260200160038201548152602001600482015481525050915050919050565b7f241ecf16d79d0f8dbfb92cbc07fe17840425976cf0667f022fe9877caa831b086114f2816123fe565b855f60045f8381526020019081526020015f205f015403611548576040517f08c379a000000000000000000000000000000000000000000000000000000000815260040161153f90613111565b60405180910390fd5b5f848490501161158d576040517f08c379a00000000000000000000000000000000000000000000000000000000081526004016115849061330e565b60405180910390fd5b5f60045f8981526020019081526020015f20905086816002018190555085816003018190555084848260070191826115c69291906134fa565b504281600b0181905550877fed0ccca39e9cda607881b908489dc622e92cc62b4557758f4c28f63b24c1bafb888888886040516116069493929190613601565b60405180910390a25050505050505050565b5f5f7f241ecf16d79d0f8dbfb92cbc07fe17840425976cf0667f022fe9877caa831b08611644816123fe565b5f5f1b8b03611688576040517f08c379a000000000000000000000000000000000000000000000000000000000815260040161167f90613689565b60405180910390fd5b5f60055f8d81526020019081526020015f2054146116db576040517f08c379a00000000000000000000000000000000000000000000000000000000081526004016116d2906136f1565b60405180910390fd5b6116e48a610e6d565b611723576040517f08c379a000000000000000000000000000000000000000000000000000000000815260040161171a90613759565b60405180910390fd5b5f8787905011611768576040517f08c379a000000000000000000000000000000000000000000000000000000000815260040161175f9061330e565b60405180910390fd5b5f85859050116117ad576040517f08c379a00000000000000000000000000000000000000000000000000000000081526004016117a4906137c1565b60405180910390fd5b60015f8154809291906117bf9061380c565b9190505592508291506040518061018001604052808481526020018c81526020018a81526020018981526020018381526020018b73ffffffffffffffffffffffffffffffffffffffff1681526020013373ffffffffffffffffffffffffffffffffffffffff16815260200188888080601f0160208091040260200160405190810160405280939291908181526020018383808284375f81840152601f19601f82011690508083019250505050505050815260200186868080601f0160208091040260200160405190810160405280939291908181526020018383808284375f81840152601f19601f8201169050808301925050505050505081526020016001151581526020014281526020014281525060045f8581526020019081526020015f205f820151815f01556020820151816001015560408201518160020155606082015181600301556080820151816004015560a0820151816005015f6101000a81548173ffffffffffffffffffffffffffffffffffffffff021916908373ffffffffffffffffffffffffffffffffffffffff16021790555060c0820151816006015f6101000a81548173ffffffffffffffffffffffffffffffffffffffff021916908373ffffffffffffffffffffffffffffffffffffffff16021790555060e08201518160070190816119b19190613853565b506101008201518160080190816119c89190613853565b50610120820151816009015f6101000a81548160ff02191690831515021790555061014082015181600a015561016082015181600b01559050508260055f8d81526020019081526020015f20819055507f000000000000000000000000000000000000000000000000000000000000000073ffffffffffffffffffffffffffffffffffffffff1663c2b4c97e8b848689896040518663ffffffff1660e01b8152600401611a79959493929190613922565b5f604051808303815f87803b158015611a90575f5ffd5b505af1158015611aa2573d5f5f3e3d5ffd5b50505050818b847fc27c158803f11e3d0fc754646ecdac61e597233fbb63e12fdb10659817861b368d604051611ad89190612f9f565b60405180910390a4509850989650505050505050565b7f2fdac322ee704ce09f0773f7f3f92eb98d5e7c836ee9c056cccd5f61041e5e3f611b18816123fe565b825f60045f8381526020019081526020015f205f015403611b6e576040517f08c379a0000000000000000000000000000000000000000000000000000000008152600401611b6590613111565b60405180910390fd5b611b7783610e6d565b611bb6576040517f08c379a0000000000000000000000000000000000000000000000000000000008152600401611bad906139b8565b60405180910390fd5b5f60045f8681526020019081526020015f209050806009015f9054906101000a900460ff16611c1a576040517f08c379a0000000000000000000000000000000000000000000000000000000008152600401611c1190613a20565b60405180910390fd5b5f816005015f9054906101000a900473ffffffffffffffffffffffffffffffffffffffff16905084826005015f6101000a81548173ffffffffffffffffffffffffffffffffffffffff021916908373ffffffffffffffffffffffffffffffffffffffff1602179055504282600b01819055508473ffffffffffffffffffffffffffffffffffffffff168173ffffffffffffffffffffffffffffffffffffffff16877f56629e12f35b876d2f2b24f4c1fc29a748e496cd12950a7e20f1257181cf019c60405160405180910390a4505050505050565b611cf882610ac9565b611d01816123fe565b611d0b838361256b565b50505050565b5f815f60045f8381526020019081526020015f205f015403611d68576040517f08c379a0000000000000000000000000000000000000000000000000000000008152600401611d5f90613111565b60405180910390fd5b60045f8481526020019081526020015f206005015f9054906101000a900473ffffffffffffffffffffffffffffffffffffffff16915050919050565b7f241ecf16d79d0f8dbfb92cbc07fe17840425976cf0667f022fe9877caa831b0881565b7f241ecf16d79d0f8dbfb92cbc07fe17840425976cf0667f022fe9877caa831b08611df2816123fe565b825f5f1b60025f8381526020019081526020015f205f015403611e4a576040517f08c379a0000000000000000000000000000000000000000000000000000000008152600401611e4190613179565b60405180910390fd5b5f60025f8681526020019081526020015f209050838160010181905550428160040181905550847fb3e4473ac21b2977c92cd4aba536743b375b1b274fb979a9080118b304bef44885604051611ea09190612a5e565b60405180910390a25050505050565b7f241ecf16d79d0f8dbfb92cbc07fe17840425976cf0667f022fe9877caa831b08611ed9816123fe565b5f5f1b8503611f1d576040517f08c379a0000000000000000000000000000000000000000000000000000000008152600401611f1490613a88565b60405180910390fd5b5f73ffffffffffffffffffffffffffffffffffffffff168473ffffffffffffffffffffffffffffffffffffffff1603611f8b576040517f08c379a0000000000000000000000000000000000000000000000000000000008152600401611f829061323e565b60405180910390fd5b5f5f1b60025f8781526020019081526020015f205f015414611fe2576040517f08c379a0000000000000000000000000000000000000000000000000000000008152600401611fd990613af0565b60405180910390fd5b5f5f1b60035f8673ffffffffffffffffffffffffffffffffffffffff1673ffffffffffffffffffffffffffffffffffffffff1681526020019081526020015f205414612063576040517f08c379a000000000000000000000000000000000000000000000000000000000815260040161205a906132a6565b60405180910390fd5b6040518060c00160405280868152602001845f1b81526020018573ffffffffffffffffffffffffffffffffffffffff16815260200183151581526020014281526020014281525060025f8781526020019081526020015f205f820151815f0155602082015181600101556040820151816002015f6101000a81548173ffffffffffffffffffffffffffffffffffffffff021916908373ffffffffffffffffffffffffffffffffffffffff16021790555060608201518160020160146101000a81548160ff0219169083151502179055506080820151816003015560a082015181600401559050508460035f8673ffffffffffffffffffffffffffffffffffffffff1673ffffffffffffffffffffffffffffffffffffffff1681526020019081526020015f20819055508373ffffffffffffffffffffffffffffffffffffffff16857f7800cdefbc99f5a07792faac95583aeb6d58eddbfb16b4bd372295f06bc2510e855f1b6040516121d59190612a5e565b60405180910390a38373ffffffffffffffffffffffffffffffffffffffff16857f854c29e7d0b157e411e89b9dbb7c9ac925dbb496b0d4a9de90ab7a0f5c4f6cc98460405161222491906128af565b60405180910390a35050505050565b7f241ecf16d79d0f8dbfb92cbc07fe17840425976cf0667f022fe9877caa831b0861225d816123fe565b835f60045f8381526020019081526020015f205f0154036122b3576040517f08c379a00000000000000000000000000000000000000000000000000000000081526004016122aa90613111565b60405180910390fd5b5f84849050116122f8576040517f08c379a00000000000000000000000000000000000000000000000000000000081526004016122ef906137c1565b60405180910390fd5b5f60045f8781526020019081526020015f209050848482600801918261231f9291906134fa565b504281600b01819055507f000000000000000000000000000000000000000000000000000000000000000073ffffffffffffffffffffffffffffffffffffffff16633fcce2e1826004015487876040518463ffffffff1660e01b815260040161238a93929190613b0e565b5f604051808303815f87803b1580156123a1575f5ffd5b505af11580156123b3573d5f5f3e3d5ffd5b505050508060040154867ffdd6111de6e38d245546952d3a75022dea997fff1ddc8245d729278399e46a7087876040516123ee929190613b3e565b60405180910390a3505050505050565b61240f8161240a612564565b612654565b50565b5f7f01ffc9a7000000000000000000000000000000000000000000000000000000007bffffffffffffffffffffffffffffffffffffffffffffffffffffffff1916827bffffffffffffffffffffffffffffffffffffffffffffffffffffffff1916149050919050565b5f6124868383610f20565b61255a5760015f5f8581526020019081526020015f205f015f8473ffffffffffffffffffffffffffffffffffffffff1673ffffffffffffffffffffffffffffffffffffffff1681526020019081526020015f205f6101000a81548160ff0219169083151502179055506124f7612564565b73ffffffffffffffffffffffffffffffffffffffff168273ffffffffffffffffffffffffffffffffffffffff16847f2f8788117e7eff1d82e926ec794901d17c78024a50270940304540a733656f0d60405160405180910390a46001905061255e565b5f90505b92915050565b5f33905090565b5f6125768383610f20565b1561264a575f5f5f8581526020019081526020015f205f015f8473ffffffffffffffffffffffffffffffffffffffff1673ffffffffffffffffffffffffffffffffffffffff1681526020019081526020015f205f6101000a81548160ff0219169083151502179055506125e7612564565b73ffffffffffffffffffffffffffffffffffffffff168273ffffffffffffffffffffffffffffffffffffffff16847ff6391f5c32d9c69d2a47ea670b442974b53935d1edc7fd64eb21e047a839171b60405160405180910390a46001905061264e565b5f90505b92915050565b61265e8282610f20565b6126a15780826040517fe2517d3f000000000000000000000000000000000000000000000000000000008152600401612698929190613b60565b60405180910390fd5b5050565b6040518061018001604052805f81526020015f81526020015f81526020015f81526020015f81526020015f73ffffffffffffffffffffffffffffffffffffffff1681526020015f73ffffffffffffffffffffffffffffffffffffffff16815260200160608152602001606081526020015f151581526020015f81526020015f81525090565b6040518060c001604052805f81526020015f81526020015f73ffffffffffffffffffffffffffffffffffffffff1681526020015f151581526020015f81526020015f81525090565b5f5ffd5b5f5ffd5b5f819050919050565b61278c8161277a565b8114612796575f5ffd5b50565b5f813590506127a781612783565b92915050565b5f8115159050919050565b6127c1816127ad565b81146127cb575f5ffd5b50565b5f813590506127dc816127b8565b92915050565b5f5f604083850312156127f8576127f7612772565b5b5f61280585828601612799565b9250506020612816858286016127ce565b9150509250929050565b5f7fffffffff0000000000000000000000000000000000000000000000000000000082169050919050565b61285481612820565b811461285e575f5ffd5b50565b5f8135905061286f8161284b565b92915050565b5f6020828403121561288a57612889612772565b5b5f61289784828501612861565b91505092915050565b6128a9816127ad565b82525050565b5f6020820190506128c25f8301846128a0565b92915050565b5f73ffffffffffffffffffffffffffffffffffffffff82169050919050565b5f6128f1826128c8565b9050919050565b612901816128e7565b811461290b575f5ffd5b50565b5f8135905061291c816128f8565b92915050565b5f5f6040838503121561293857612937612772565b5b5f61294585828601612799565b92505060206129568582860161290e565b9150509250929050565b5f819050919050565b61297281612960565b811461297c575f5ffd5b50565b5f8135905061298d81612969565b92915050565b5f5f604083850312156129a9576129a8612772565b5b5f6129b68582860161297f565b92505060206129c7858286016127ce565b9150509250929050565b5f602082840312156129e6576129e5612772565b5b5f6129f384828501612799565b91505092915050565b612a058161277a565b82525050565b5f602082019050612a1e5f8301846129fc565b92915050565b5f60208284031215612a3957612a38612772565b5b5f612a468482850161297f565b91505092915050565b612a5881612960565b82525050565b5f602082019050612a715f830184612a4f565b92915050565b5f5f60408385031215612a8d57612a8c612772565b5b5f612a9a8582860161297f565b9250506020612aab8582860161290e565b9150509250929050565b5f819050919050565b5f612ad8612ad3612ace846128c8565b612ab5565b6128c8565b9050919050565b5f612ae982612abe565b9050919050565b5f612afa82612adf565b9050919050565b612b0a81612af0565b82525050565b5f602082019050612b235f830184612b01565b92915050565b612b328161277a565b82525050565b612b4181612960565b82525050565b612b50816128e7565b82525050565b5f81519050919050565b5f82825260208201905092915050565b8281835e5f83830152505050565b5f601f19601f8301169050919050565b5f612b9882612b56565b612ba28185612b60565b9350612bb2818560208601612b70565b612bbb81612b7e565b840191505092915050565b612bcf816127ad565b82525050565b5f61018083015f830151612beb5f860182612b29565b506020830151612bfe6020860182612b38565b506040830151612c116040860182612b38565b506060830151612c246060860182612b38565b506080830151612c376080860182612b29565b5060a0830151612c4a60a0860182612b47565b5060c0830151612c5d60c0860182612b47565b5060e083015184820360e0860152612c758282612b8e565b915050610100830151848203610100860152612c918282612b8e565b915050610120830151612ca8610120860182612bc6565b50610140830151612cbd610140860182612b29565b50610160830151612cd2610160860182612b29565b508091505092915050565b5f6020820190508181035f830152612cf58184612bd5565b905092915050565b5f60208284031215612d1257612d11612772565b5b5f612d1f8482850161290e565b91505092915050565b60c082015f820151612d3c5f850182612b38565b506020820151612d4f6020850182612b38565b506040820151612d626040850182612b47565b506060820151612d756060850182612bc6565b506080820151612d886080850182612b29565b5060a0820151612d9b60a0850182612b29565b50505050565b5f60c082019050612db45f830184612d28565b92915050565b5f5ffd5b5f5ffd5b5f5ffd5b5f5f83601f840112612ddb57612dda612dba565b5b8235905067ffffffffffffffff811115612df857612df7612dbe565b5b602083019150836001820283011115612e1457612e13612dc2565b5b9250929050565b5f5f5f5f5f60808688031215612e3457612e33612772565b5b5f612e4188828901612799565b9550506020612e528882890161297f565b9450506040612e638882890161297f565b935050606086013567ffffffffffffffff811115612e8457612e83612776565b5b612e9088828901612dc6565b92509250509295509295909350565b5f5f5f5f5f5f5f5f60c0898b031215612ebb57612eba612772565b5b5f612ec88b828c0161297f565b9850506020612ed98b828c0161290e565b9750506040612eea8b828c0161297f565b9650506060612efb8b828c0161297f565b955050608089013567ffffffffffffffff811115612f1c57612f1b612776565b5b612f288b828c01612dc6565b945094505060a089013567ffffffffffffffff811115612f4b57612f4a612776565b5b612f578b828c01612dc6565b92509250509295985092959890939650565b5f604082019050612f7c5f8301856129fc565b612f8960208301846129fc565b9392505050565b612f99816128e7565b82525050565b5f602082019050612fb25f830184612f90565b92915050565b5f5f60408385031215612fce57612fcd612772565b5b5f612fdb8582860161297f565b9250506020612fec8582860161297f565b9150509250929050565b5f5f5f5f6080858703121561300e5761300d612772565b5b5f61301b8782880161297f565b945050602061302c8782880161290e565b935050604061303d87828801612799565b925050606061304e878288016127ce565b91505092959194509250565b5f5f5f6040848603121561307157613070612772565b5b5f61307e86828701612799565b935050602084013567ffffffffffffffff81111561309f5761309e612776565b5b6130ab86828701612dc6565b92509250509250925092565b5f82825260208201905092915050565b7f50524f50455254595f4e4f545f464f554e4400000000000000000000000000005f82015250565b5f6130fb6012836130b7565b9150613106826130c7565b602082019050919050565b5f6020820190508181035f830152613128816130ef565b9050919050565b7f504552534f4e5f4e4f545f464f554e44000000000000000000000000000000005f82015250565b5f6131636010836130b7565b915061316e8261312f565b602082019050919050565b5f6020820190508181035f83015261319081613157565b9050919050565b7f4e487b71000000000000000000000000000000000000000000000000000000005f52602260045260245ffd5b5f60028204905060018216806131db57607f821691505b6020821081036131ee576131ed613197565b5b50919050565b7f57414c4c45545f524551554952454400000000000000000000000000000000005f82015250565b5f613228600f836130b7565b9150613233826131f4565b602082019050919050565b5f6020820190508181035f8301526132558161321c565b9050919050565b7f57414c4c45545f555345440000000000000000000000000000000000000000005f82015250565b5f613290600b836130b7565b915061329b8261325c565b602082019050919050565b5f6020820190508181035f8301526132bd81613284565b9050919050565b7f4c4f434154494f4e5f52455155495245440000000000000000000000000000005f82015250565b5f6132f86011836130b7565b9150613303826132c4565b602082019050919050565b5f6020820190508181035f830152613325816132ec565b9050919050565b5f82905092915050565b7f4e487b71000000000000000000000000000000000000000000000000000000005f52604160045260245ffd5b5f819050815f5260205f209050919050565b5f6020601f8301049050919050565b5f82821b905092915050565b5f600883026133bf7fffffffffffffffffffffffffffffffffffffffffffffffffffffffffffffffff82613384565b6133c98683613384565b95508019841693508086168417925050509392505050565b5f6133fb6133f66133f18461277a565b612ab5565b61277a565b9050919050565b5f819050919050565b613414836133e1565b61342861342082613402565b848454613390565b825550505050565b5f5f905090565b61343f613430565b61344a81848461340b565b505050565b5b8181101561346d576134625f82613437565b600181019050613450565b5050565b601f8211156134b25761348381613363565b61348c84613375565b8101602085101561349b578190505b6134af6134a785613375565b83018261344f565b50505b505050565b5f82821c905092915050565b5f6134d25f19846008026134b7565b1980831691505092915050565b5f6134ea83836134c3565b9150826002028217905092915050565b613504838361332c565b67ffffffffffffffff81111561351d5761351c613336565b5b61352782546131c4565b613532828285613471565b5f601f83116001811461355f575f841561354d578287013590505b61355785826134df565b8655506135be565b601f19841661356d86613363565b5f5b828110156135945784890135825560018201915060208501945060208101905061356f565b868310156135b157848901356135ad601f8916826134c3565b8355505b6001600288020188555050505b50505050505050565b828183375f83830152505050565b5f6135e083856130b7565b93506135ed8385846135c7565b6135f683612b7e565b840190509392505050565b5f6060820190506136145f830187612a4f565b6136216020830186612a4f565b81810360408301526136348184866135d5565b905095945050505050565b7f50524f50455254595f49445f52455155495245440000000000000000000000005f82015250565b5f6136736014836130b7565b915061367e8261363f565b602082019050919050565b5f6020820190508181035f8301526136a081613667565b9050919050565b7f50524f50455254595f45584953545300000000000000000000000000000000005f82015250565b5f6136db600f836130b7565b91506136e6826136a7565b602082019050919050565b5f6020820190508181035f830152613708816136cf565b9050919050565b7f4f574e45525f4e4f545f564552494649454400000000000000000000000000005f82015250565b5f6137436012836130b7565b915061374e8261370f565b602082019050919050565b5f6020820190508181035f83015261377081613737565b9050919050565b7f43455254494649434154455f5552495f524551554952454400000000000000005f82015250565b5f6137ab6018836130b7565b91506137b682613777565b602082019050919050565b5f6020820190508181035f8301526137d88161379f565b9050919050565b7f4e487b71000000000000000000000000000000000000000000000000000000005f52601160045260245ffd5b5f6138168261277a565b91507fffffffffffffffffffffffffffffffffffffffffffffffffffffffffffffffff8203613848576138476137df565b5b600182019050919050565b61385c82612b56565b67ffffffffffffffff81111561387557613874613336565b5b61387f82546131c4565b61388a828285613471565b5f60209050601f8311600181146138bb575f84156138a9578287015190505b6138b385826134df565b86555061391a565b601f1984166138c986613363565b5f5b828110156138f0578489015182556001820191506020850194506020810190506138cb565b8683101561390d5784890151613909601f8916826134c3565b8355505b6001600288020188555050505b505050505050565b5f6080820190506139355f830188612f90565b61394260208301876129fc565b61394f60408301866129fc565b81810360608301526139628184866135d5565b90509695505050505050565b7f4e45575f4f574e45525f4e4f545f5645524946494544000000000000000000005f82015250565b5f6139a26016836130b7565b91506139ad8261396e565b602082019050919050565b5f6020820190508181035f8301526139cf81613996565b9050919050565b7f50524f50455254595f494e4143544956450000000000000000000000000000005f82015250565b5f613a0a6011836130b7565b9150613a15826139d6565b602082019050919050565b5f6020820190508181035f830152613a37816139fe565b9050919050565b7f504552534f4e5f49445f524551554952454400000000000000000000000000005f82015250565b5f613a726012836130b7565b9150613a7d82613a3e565b602082019050919050565b5f6020820190508181035f830152613a9f81613a66565b9050919050565b7f504552534f4e5f455849535453000000000000000000000000000000000000005f82015250565b5f613ada600d836130b7565b9150613ae582613aa6565b602082019050919050565b5f6020820190508181035f830152613b0781613ace565b9050919050565b5f604082019050613b215f8301866129fc565b8181036020830152613b348184866135d5565b9050949350505050565b5f6020820190508181035f830152613b578184866135d5565b90509392505050565b5f604082019050613b735f830185612f90565b613b806020830184612a4f565b939250505056fea2646970667358221220ff65aa0f77e993e697df18aad199a7e591fb2dde54ad2c227443d678f61c5b5e64736f6c634300081e0033",
			"opcodes": "PUSH1 0xA0 PUSH1 0x40 MSTORE PUSH1 0x1 DUP1 SSTORE CALLVALUE DUP1 ISZERO PUSH2 0x13 JUMPI PUSH0 PUSH0 REVERT JUMPDEST POP PUSH1 0x40 MLOAD PUSH2 0x404E CODESIZE SUB DUP1 PUSH2 0x404E DUP4 CODECOPY DUP2 DUP2 ADD PUSH1 0x40 MSTORE DUP2 ADD SWAP1 PUSH2 0x35 SWAP2 SWAP1 PUSH2 0x34D JUMP JUMPDEST PUSH0 PUSH20 0xFFFFFFFFFFFFFFFFFFFFFFFFFFFFFFFFFFFFFFFF AND DUP3 PUSH20 0xFFFFFFFFFFFFFFFFFFFFFFFFFFFFFFFFFFFFFFFF AND SUB PUSH2 0xA3 JUMPI PUSH1 0x40 MLOAD PUSH32 0x8C379A000000000000000000000000000000000000000000000000000000000 DUP2 MSTORE PUSH1 0x4 ADD PUSH2 0x9A SWAP1 PUSH2 0x3E5 JUMP JUMPDEST PUSH1 0x40 MLOAD DUP1 SWAP2 SUB SWAP1 REVERT JUMPDEST PUSH0 PUSH20 0xFFFFFFFFFFFFFFFFFFFFFFFFFFFFFFFFFFFFFFFF AND DUP2 PUSH20 0xFFFFFFFFFFFFFFFFFFFFFFFFFFFFFFFFFFFFFFFF AND SUB PUSH2 0x111 JUMPI PUSH1 0x40 MLOAD PUSH32 0x8C379A000000000000000000000000000000000000000000000000000000000 DUP2 MSTORE PUSH1 0x4 ADD PUSH2 0x108 SWAP1 PUSH2 0x44D JUMP JUMPDEST PUSH1 0x40 MLOAD DUP1 SWAP2 SUB SWAP1 REVERT JUMPDEST DUP1 PUSH20 0xFFFFFFFFFFFFFFFFFFFFFFFFFFFFFFFFFFFFFFFF AND PUSH1 0x80 DUP2 PUSH20 0xFFFFFFFFFFFFFFFFFFFFFFFFFFFFFFFFFFFFFFFF AND DUP2 MSTORE POP POP PUSH2 0x157 PUSH0 PUSH0 SHL DUP4 PUSH2 0x190 PUSH1 0x20 SHL PUSH1 0x20 SHR JUMP JUMPDEST POP PUSH2 0x188 PUSH32 0x241ECF16D79D0F8DBFB92CBC07FE17840425976CF0667F022FE9877CAA831B08 DUP4 PUSH2 0x190 PUSH1 0x20 SHL PUSH1 0x20 SHR JUMP JUMPDEST POP POP POP PUSH2 0x46B JUMP JUMPDEST PUSH0 PUSH2 0x1A1 DUP4 DUP4 PUSH2 0x285 PUSH1 0x20 SHL PUSH1 0x20 SHR JUMP JUMPDEST PUSH2 0x27B JUMPI PUSH1 0x1 PUSH0 PUSH0 DUP6 DUP2 MSTORE PUSH1 0x20 ADD SWAP1 DUP2 MSTORE PUSH1 0x20 ADD PUSH0 KECCAK256 PUSH0 ADD PUSH0 DUP5 PUSH20 0xFFFFFFFFFFFFFFFFFFFFFFFFFFFFFFFFFFFFFFFF AND PUSH20 0xFFFFFFFFFFFFFFFFFFFFFFFFFFFFFFFFFFFFFFFF AND DUP2 MSTORE PUSH1 0x20 ADD SWAP1 DUP2 MSTORE PUSH1 0x20 ADD PUSH0 KECCAK256 PUSH0 PUSH2 0x100 EXP DUP2 SLOAD DUP2 PUSH1 0xFF MUL NOT AND SWAP1 DUP4 ISZERO ISZERO MUL OR SWAP1 SSTORE POP PUSH2 0x218 PUSH2 0x2E8 PUSH1 0x20 SHL PUSH1 0x20 SHR JUMP JUMPDEST PUSH20 0xFFFFFFFFFFFFFFFFFFFFFFFFFFFFFFFFFFFFFFFF AND DUP3 PUSH20 0xFFFFFFFFFFFFFFFFFFFFFFFFFFFFFFFFFFFFFFFF AND DUP5 PUSH32 0x2F8788117E7EFF1D82E926EC794901D17C78024A50270940304540A733656F0D PUSH1 0x40 MLOAD PUSH1 0x40 MLOAD DUP1 SWAP2 SUB SWAP1 LOG4 PUSH1 0x1 SWAP1 POP PUSH2 0x27F JUMP JUMPDEST PUSH0 SWAP1 POP JUMPDEST SWAP3 SWAP2 POP POP JUMP JUMPDEST PUSH0 PUSH0 PUSH0 DUP5 DUP2 MSTORE PUSH1 0x20 ADD SWAP1 DUP2 MSTORE PUSH1 0x20 ADD PUSH0 KECCAK256 PUSH0 ADD PUSH0 DUP4 PUSH20 0xFFFFFFFFFFFFFFFFFFFFFFFFFFFFFFFFFFFFFFFF AND PUSH20 0xFFFFFFFFFFFFFFFFFFFFFFFFFFFFFFFFFFFFFFFF AND DUP2 MSTORE PUSH1 0x20 ADD SWAP1 DUP2 MSTORE PUSH1 0x20 ADD PUSH0 KECCAK256 PUSH0 SWAP1 SLOAD SWAP1 PUSH2 0x100 EXP SWAP1 DIV PUSH1 0xFF AND SWAP1 POP SWAP3 SWAP2 POP POP JUMP JUMPDEST PUSH0 CALLER SWAP1 POP SWAP1 JUMP JUMPDEST PUSH0 PUSH0 REVERT JUMPDEST PUSH0 PUSH20 0xFFFFFFFFFFFFFFFFFFFFFFFFFFFFFFFFFFFFFFFF DUP3 AND SWAP1 POP SWAP2 SWAP1 POP JUMP JUMPDEST PUSH0 PUSH2 0x31C DUP3 PUSH2 0x2F3 JUMP JUMPDEST SWAP1 POP SWAP2 SWAP1 POP JUMP JUMPDEST PUSH2 0x32C DUP2 PUSH2 0x312 JUMP JUMPDEST DUP2 EQ PUSH2 0x336 JUMPI PUSH0 PUSH0 REVERT JUMPDEST POP JUMP JUMPDEST PUSH0 DUP2 MLOAD SWAP1 POP PUSH2 0x347 DUP2 PUSH2 0x323 JUMP JUMPDEST SWAP3 SWAP2 POP POP JUMP JUMPDEST PUSH0 PUSH0 PUSH1 0x40 DUP4 DUP6 SUB SLT ISZERO PUSH2 0x363 JUMPI PUSH2 0x362 PUSH2 0x2EF JUMP JUMPDEST JUMPDEST PUSH0 PUSH2 0x370 DUP6 DUP3 DUP7 ADD PUSH2 0x339 JUMP JUMPDEST SWAP3 POP POP PUSH1 0x20 PUSH2 0x381 DUP6 DUP3 DUP7 ADD PUSH2 0x339 JUMP JUMPDEST SWAP2 POP POP SWAP3 POP SWAP3 SWAP1 POP JUMP JUMPDEST PUSH0 DUP3 DUP3 MSTORE PUSH1 0x20 DUP3 ADD SWAP1 POP SWAP3 SWAP2 POP POP JUMP JUMPDEST PUSH32 0x41444D494E5F5245515549524544000000000000000000000000000000000000 PUSH0 DUP3 ADD MSTORE POP JUMP JUMPDEST PUSH0 PUSH2 0x3CF PUSH1 0xE DUP4 PUSH2 0x38B JUMP JUMPDEST SWAP2 POP PUSH2 0x3DA DUP3 PUSH2 0x39B JUMP JUMPDEST PUSH1 0x20 DUP3 ADD SWAP1 POP SWAP2 SWAP1 POP JUMP JUMPDEST PUSH0 PUSH1 0x20 DUP3 ADD SWAP1 POP DUP2 DUP2 SUB PUSH0 DUP4 ADD MSTORE PUSH2 0x3FC DUP2 PUSH2 0x3C3 JUMP JUMPDEST SWAP1 POP SWAP2 SWAP1 POP JUMP JUMPDEST PUSH32 0x4E46545F52455155495245440000000000000000000000000000000000000000 PUSH0 DUP3 ADD MSTORE POP JUMP JUMPDEST PUSH0 PUSH2 0x437 PUSH1 0xC DUP4 PUSH2 0x38B JUMP JUMPDEST SWAP2 POP PUSH2 0x442 DUP3 PUSH2 0x403 JUMP JUMPDEST PUSH1 0x20 DUP3 ADD SWAP1 POP SWAP2 SWAP1 POP JUMP JUMPDEST PUSH0 PUSH1 0x20 DUP3 ADD SWAP1 POP DUP2 DUP2 SUB PUSH0 DUP4 ADD MSTORE PUSH2 0x464 DUP2 PUSH2 0x42B JUMP JUMPDEST SWAP1 POP SWAP2 SWAP1 POP JUMP JUMPDEST PUSH1 0x80 MLOAD PUSH2 0x3BBD PUSH2 0x491 PUSH0 CODECOPY PUSH0 DUP2 DUP2 PUSH2 0xB09 ADD MSTORE DUP2 DUP2 PUSH2 0x1A1A ADD MSTORE PUSH2 0x232B ADD MSTORE PUSH2 0x3BBD PUSH0 RETURN INVALID PUSH1 0x80 PUSH1 0x40 MSTORE CALLVALUE DUP1 ISZERO PUSH2 0xF JUMPI PUSH0 PUSH0 REVERT JUMPDEST POP PUSH1 0x4 CALLDATASIZE LT PUSH2 0x1D7 JUMPI PUSH0 CALLDATALOAD PUSH1 0xE0 SHR DUP1 PUSH4 0x771BE719 GT PUSH2 0x102 JUMPI DUP1 PUSH4 0xB7A2C221 GT PUSH2 0xA0 JUMPI DUP1 PUSH4 0xEC87621C GT PUSH2 0x6F JUMPI DUP1 PUSH4 0xEC87621C EQ PUSH2 0x5D4 JUMPI DUP1 PUSH4 0xF13E16D0 EQ PUSH2 0x5F2 JUMPI DUP1 PUSH4 0xF1D45623 EQ PUSH2 0x60E JUMPI DUP1 PUSH4 0xF85AD0D6 EQ PUSH2 0x62A JUMPI PUSH2 0x1D7 JUMP JUMPDEST DUP1 PUSH4 0xB7A2C221 EQ PUSH2 0x53B JUMPI DUP1 PUSH4 0xC6A839D2 EQ PUSH2 0x56C JUMPI DUP1 PUSH4 0xD547741F EQ PUSH2 0x588 JUMPI DUP1 PUSH4 0xE34FC531 EQ PUSH2 0x5A4 JUMPI PUSH2 0x1D7 JUMP JUMPDEST DUP1 PUSH4 0x9BC621DC GT PUSH2 0xDC JUMPI DUP1 PUSH4 0x9BC621DC EQ PUSH2 0x4B5 JUMPI DUP1 PUSH4 0xA217FDDF EQ PUSH2 0x4D1 JUMPI DUP1 PUSH4 0xAC28838B EQ PUSH2 0x4EF JUMPI DUP1 PUSH4 0xB088F454 EQ PUSH2 0x51F JUMPI PUSH2 0x1D7 JUMP JUMPDEST DUP1 PUSH4 0x771BE719 EQ PUSH2 0x425 JUMPI DUP1 PUSH4 0x91D14854 EQ PUSH2 0x455 JUMPI DUP1 PUSH4 0x9855FD70 EQ PUSH2 0x485 JUMPI PUSH2 0x1D7 JUMP JUMPDEST DUP1 PUSH4 0x2F2FF15D GT PUSH2 0x17A JUMPI DUP1 PUSH4 0x39500F34 GT PUSH2 0x149 JUMPI DUP1 PUSH4 0x39500F34 EQ PUSH2 0x389 JUMPI DUP1 PUSH4 0x40068302 EQ PUSH2 0x3A7 JUMPI DUP1 PUSH4 0x61BF4B3A EQ PUSH2 0x3D7 JUMPI DUP1 PUSH4 0x6CE76F30 EQ PUSH2 0x407 JUMPI PUSH2 0x1D7 JUMP JUMPDEST DUP1 PUSH4 0x2F2FF15D EQ PUSH2 0x303 JUMPI DUP1 PUSH4 0x31C2273B EQ PUSH2 0x31F JUMPI DUP1 PUSH4 0x32665FFB EQ PUSH2 0x33D JUMPI DUP1 PUSH4 0x36568ABE EQ PUSH2 0x36D JUMPI PUSH2 0x1D7 JUMP JUMPDEST DUP1 PUSH4 0x14330660 GT PUSH2 0x1B6 JUMPI DUP1 PUSH4 0x14330660 EQ PUSH2 0x257 JUMPI DUP1 PUSH4 0x154BB891 EQ PUSH2 0x273 JUMPI DUP1 PUSH4 0x216361A1 EQ PUSH2 0x2A3 JUMPI DUP1 PUSH4 0x248A9CA3 EQ PUSH2 0x2D3 JUMPI PUSH2 0x1D7 JUMP JUMPDEST DUP1 PUSH3 0xD913E0 EQ PUSH2 0x1DB JUMPI DUP1 PUSH4 0x1FFC9A7 EQ PUSH2 0x1F7 JUMPI DUP1 PUSH4 0x9CC449D EQ PUSH2 0x227 JUMPI JUMPDEST PUSH0 PUSH0 REVERT JUMPDEST PUSH2 0x1F5 PUSH1 0x4 DUP1 CALLDATASIZE SUB DUP2 ADD SWAP1 PUSH2 0x1F0 SWAP2 SWAP1 PUSH2 0x27E2 JUMP JUMPDEST PUSH2 0x646 JUMP JUMPDEST STOP JUMPDEST PUSH2 0x211 PUSH1 0x4 DUP1 CALLDATASIZE SUB DUP2 ADD SWAP1 PUSH2 0x20C SWAP2 SWAP1 PUSH2 0x2875 JUMP JUMPDEST PUSH2 0x748 JUMP JUMPDEST PUSH1 0x40 MLOAD PUSH2 0x21E SWAP2 SWAP1 PUSH2 0x28AF JUMP JUMPDEST PUSH1 0x40 MLOAD DUP1 SWAP2 SUB SWAP1 RETURN JUMPDEST PUSH2 0x241 PUSH1 0x4 DUP1 CALLDATASIZE SUB DUP2 ADD SWAP1 PUSH2 0x23C SWAP2 SWAP1 PUSH2 0x2922 JUMP JUMPDEST PUSH2 0x7C1 JUMP JUMPDEST PUSH1 0x40 MLOAD PUSH2 0x24E SWAP2 SWAP1 PUSH2 0x28AF JUMP JUMPDEST PUSH1 0x40 MLOAD DUP1 SWAP2 SUB SWAP1 RETURN JUMPDEST PUSH2 0x271 PUSH1 0x4 DUP1 CALLDATASIZE SUB DUP2 ADD SWAP1 PUSH2 0x26C SWAP2 SWAP1 PUSH2 0x2993 JUMP JUMPDEST PUSH2 0x8A1 JUMP JUMPDEST STOP JUMPDEST PUSH2 0x28D PUSH1 0x4 DUP1 CALLDATASIZE SUB DUP2 ADD SWAP1 PUSH2 0x288 SWAP2 SWAP1 PUSH2 0x29D1 JUMP JUMPDEST PUSH2 0x9D5 JUMP JUMPDEST PUSH1 0x40 MLOAD PUSH2 0x29A SWAP2 SWAP1 PUSH2 0x28AF JUMP JUMPDEST PUSH1 0x40 MLOAD DUP1 SWAP2 SUB SWAP1 RETURN JUMPDEST PUSH2 0x2BD PUSH1 0x4 DUP1 CALLDATASIZE SUB DUP2 ADD SWAP1 PUSH2 0x2B8 SWAP2 SWAP1 PUSH2 0x29D1 JUMP JUMPDEST PUSH2 0xA55 JUMP JUMPDEST PUSH1 0x40 MLOAD PUSH2 0x2CA SWAP2 SWAP1 PUSH2 0x2A0B JUMP JUMPDEST PUSH1 0x40 MLOAD DUP1 SWAP2 SUB SWAP1 RETURN JUMPDEST PUSH2 0x2ED PUSH1 0x4 DUP1 CALLDATASIZE SUB DUP2 ADD SWAP1 PUSH2 0x2E8 SWAP2 SWAP1 PUSH2 0x2A24 JUMP JUMPDEST PUSH2 0xAC9 JUMP JUMPDEST PUSH1 0x40 MLOAD PUSH2 0x2FA SWAP2 SWAP1 PUSH2 0x2A5E JUMP JUMPDEST PUSH1 0x40 MLOAD DUP1 SWAP2 SUB SWAP1 RETURN JUMPDEST PUSH2 0x31D PUSH1 0x4 DUP1 CALLDATASIZE SUB DUP2 ADD SWAP1 PUSH2 0x318 SWAP2 SWAP1 PUSH2 0x2A77 JUMP JUMPDEST PUSH2 0xAE5 JUMP JUMPDEST STOP JUMPDEST PUSH2 0x327 PUSH2 0xB07 JUMP JUMPDEST PUSH1 0x40 MLOAD PUSH2 0x334 SWAP2 SWAP1 PUSH2 0x2B10 JUMP JUMPDEST PUSH1 0x40 MLOAD DUP1 SWAP2 SUB SWAP1 RETURN JUMPDEST PUSH2 0x357 PUSH1 0x4 DUP1 CALLDATASIZE SUB DUP2 ADD SWAP1 PUSH2 0x352 SWAP2 SWAP1 PUSH2 0x29D1 JUMP JUMPDEST PUSH2 0xB2B JUMP JUMPDEST PUSH1 0x40 MLOAD PUSH2 0x364 SWAP2 SWAP1 PUSH2 0x2CDD JUMP JUMPDEST PUSH1 0x40 MLOAD DUP1 SWAP2 SUB SWAP1 RETURN JUMPDEST PUSH2 0x387 PUSH1 0x4 DUP1 CALLDATASIZE SUB DUP2 ADD SWAP1 PUSH2 0x382 SWAP2 SWAP1 PUSH2 0x2A77 JUMP JUMPDEST PUSH2 0xDD7 JUMP JUMPDEST STOP JUMPDEST PUSH2 0x391 PUSH2 0xE52 JUMP JUMPDEST PUSH1 0x40 MLOAD PUSH2 0x39E SWAP2 SWAP1 PUSH2 0x2A0B JUMP JUMPDEST PUSH1 0x40 MLOAD DUP1 SWAP2 SUB SWAP1 RETURN JUMPDEST PUSH2 0x3C1 PUSH1 0x4 DUP1 CALLDATASIZE SUB DUP2 ADD SWAP1 PUSH2 0x3BC SWAP2 SWAP1 PUSH2 0x2A24 JUMP JUMPDEST PUSH2 0xE58 JUMP JUMPDEST PUSH1 0x40 MLOAD PUSH2 0x3CE SWAP2 SWAP1 PUSH2 0x2A0B JUMP JUMPDEST PUSH1 0x40 MLOAD DUP1 SWAP2 SUB SWAP1 RETURN JUMPDEST PUSH2 0x3F1 PUSH1 0x4 DUP1 CALLDATASIZE SUB DUP2 ADD SWAP1 PUSH2 0x3EC SWAP2 SWAP1 PUSH2 0x2CFD JUMP JUMPDEST PUSH2 0xE6D JUMP JUMPDEST PUSH1 0x40 MLOAD PUSH2 0x3FE SWAP2 SWAP1 PUSH2 0x28AF JUMP JUMPDEST PUSH1 0x40 MLOAD DUP1 SWAP2 SUB SWAP1 RETURN JUMPDEST PUSH2 0x40F PUSH2 0xEE7 JUMP JUMPDEST PUSH1 0x40 MLOAD PUSH2 0x41C SWAP2 SWAP1 PUSH2 0x2A5E JUMP JUMPDEST PUSH1 0x40 MLOAD DUP1 SWAP2 SUB SWAP1 RETURN JUMPDEST PUSH2 0x43F PUSH1 0x4 DUP1 CALLDATASIZE SUB DUP2 ADD SWAP1 PUSH2 0x43A SWAP2 SWAP1 PUSH2 0x2CFD JUMP JUMPDEST PUSH2 0xF0B JUMP JUMPDEST PUSH1 0x40 MLOAD PUSH2 0x44C SWAP2 SWAP1 PUSH2 0x2A5E JUMP JUMPDEST PUSH1 0x40 MLOAD DUP1 SWAP2 SUB SWAP1 RETURN JUMPDEST PUSH2 0x46F PUSH1 0x4 DUP1 CALLDATASIZE SUB DUP2 ADD SWAP1 PUSH2 0x46A SWAP2 SWAP1 PUSH2 0x2A77 JUMP JUMPDEST PUSH2 0xF20 JUMP JUMPDEST PUSH1 0x40 MLOAD PUSH2 0x47C SWAP2 SWAP1 PUSH2 0x28AF JUMP JUMPDEST PUSH1 0x40 MLOAD DUP1 SWAP2 SUB SWAP1 RETURN JUMPDEST PUSH2 0x49F PUSH1 0x4 DUP1 CALLDATASIZE SUB DUP2 ADD SWAP1 PUSH2 0x49A SWAP2 SWAP1 PUSH2 0x2CFD JUMP JUMPDEST PUSH2 0xF83 JUMP JUMPDEST PUSH1 0x40 MLOAD PUSH2 0x4AC SWAP2 SWAP1 PUSH2 0x2DA1 JUMP JUMPDEST PUSH1 0x40 MLOAD DUP1 SWAP2 SUB SWAP1 RETURN JUMPDEST PUSH2 0x4CF PUSH1 0x4 DUP1 CALLDATASIZE SUB DUP2 ADD SWAP1 PUSH2 0x4CA SWAP2 SWAP1 PUSH2 0x2A77 JUMP JUMPDEST PUSH2 0x10CB JUMP JUMPDEST STOP JUMPDEST PUSH2 0x4D9 PUSH2 0x13A7 JUMP JUMPDEST PUSH1 0x40 MLOAD PUSH2 0x4E6 SWAP2 SWAP1 PUSH2 0x2A5E JUMP JUMPDEST PUSH1 0x40 MLOAD DUP1 SWAP2 SUB SWAP1 RETURN JUMPDEST PUSH2 0x509 PUSH1 0x4 DUP1 CALLDATASIZE SUB DUP2 ADD SWAP1 PUSH2 0x504 SWAP2 SWAP1 PUSH2 0x2A24 JUMP JUMPDEST PUSH2 0x13AD JUMP JUMPDEST PUSH1 0x40 MLOAD PUSH2 0x516 SWAP2 SWAP1 PUSH2 0x2DA1 JUMP JUMPDEST PUSH1 0x40 MLOAD DUP1 SWAP2 SUB SWAP1 RETURN JUMPDEST PUSH2 0x539 PUSH1 0x4 DUP1 CALLDATASIZE SUB DUP2 ADD SWAP1 PUSH2 0x534 SWAP2 SWAP1 PUSH2 0x2E1B JUMP JUMPDEST PUSH2 0x14C8 JUMP JUMPDEST STOP JUMPDEST PUSH2 0x555 PUSH1 0x4 DUP1 CALLDATASIZE SUB DUP2 ADD SWAP1 PUSH2 0x550 SWAP2 SWAP1 PUSH2 0x2E9F JUMP JUMPDEST PUSH2 0x1618 JUMP JUMPDEST PUSH1 0x40 MLOAD PUSH2 0x563 SWAP3 SWAP2 SWAP1 PUSH2 0x2F69 JUMP JUMPDEST PUSH1 0x40 MLOAD DUP1 SWAP2 SUB SWAP1 RETURN JUMPDEST PUSH2 0x586 PUSH1 0x4 DUP1 CALLDATASIZE SUB DUP2 ADD SWAP1 PUSH2 0x581 SWAP2 SWAP1 PUSH2 0x2922 JUMP JUMPDEST PUSH2 0x1AEE JUMP JUMPDEST STOP JUMPDEST PUSH2 0x5A2 PUSH1 0x4 DUP1 CALLDATASIZE SUB DUP2 ADD SWAP1 PUSH2 0x59D SWAP2 SWAP1 PUSH2 0x2A77 JUMP JUMPDEST PUSH2 0x1CEF JUMP JUMPDEST STOP JUMPDEST PUSH2 0x5BE PUSH1 0x4 DUP1 CALLDATASIZE SUB DUP2 ADD SWAP1 PUSH2 0x5B9 SWAP2 SWAP1 PUSH2 0x29D1 JUMP JUMPDEST PUSH2 0x1D11 JUMP JUMPDEST PUSH1 0x40 MLOAD PUSH2 0x5CB SWAP2 SWAP1 PUSH2 0x2F9F JUMP JUMPDEST PUSH1 0x40 MLOAD DUP1 SWAP2 SUB SWAP1 RETURN JUMPDEST PUSH2 0x5DC PUSH2 0x1DA4 JUMP JUMPDEST PUSH1 0x40 MLOAD PUSH2 0x5E9 SWAP2 SWAP1 PUSH2 0x2A5E JUMP JUMPDEST PUSH1 0x40 MLOAD DUP1 SWAP2 SUB SWAP1 RETURN JUMPDEST PUSH2 0x60C PUSH1 0x4 DUP1 CALLDATASIZE SUB DUP2 ADD SWAP1 PUSH2 0x607 SWAP2 SWAP1 PUSH2 0x2FB8 JUMP JUMPDEST PUSH2 0x1DC8 JUMP JUMPDEST STOP JUMPDEST PUSH2 0x628 PUSH1 0x4 DUP1 CALLDATASIZE SUB DUP2 ADD SWAP1 PUSH2 0x623 SWAP2 SWAP1 PUSH2 0x2FF6 JUMP JUMPDEST PUSH2 0x1EAF JUMP JUMPDEST STOP JUMPDEST PUSH2 0x644 PUSH1 0x4 DUP1 CALLDATASIZE SUB DUP2 ADD SWAP1 PUSH2 0x63F SWAP2 SWAP1 PUSH2 0x305A JUMP JUMPDEST PUSH2 0x2233 JUMP JUMPDEST STOP JUMPDEST PUSH32 0x241ECF16D79D0F8DBFB92CBC07FE17840425976CF0667F022FE9877CAA831B08 PUSH2 0x670 DUP2 PUSH2 0x23FE JUMP JUMPDEST DUP3 PUSH0 PUSH1 0x4 PUSH0 DUP4 DUP2 MSTORE PUSH1 0x20 ADD SWAP1 DUP2 MSTORE PUSH1 0x20 ADD PUSH0 KECCAK256 PUSH0 ADD SLOAD SUB PUSH2 0x6C6 JUMPI PUSH1 0x40 MLOAD PUSH32 0x8C379A000000000000000000000000000000000000000000000000000000000 DUP2 MSTORE PUSH1 0x4 ADD PUSH2 0x6BD SWAP1 PUSH2 0x3111 JUMP JUMPDEST PUSH1 0x40 MLOAD DUP1 SWAP2 SUB SWAP1 REVERT JUMPDEST DUP3 PUSH1 0x4 PUSH0 DUP7 DUP2 MSTORE PUSH1 0x20 ADD SWAP1 DUP2 MSTORE PUSH1 0x20 ADD PUSH0 KECCAK256 PUSH1 0x9 ADD PUSH0 PUSH2 0x100 EXP DUP2 SLOAD DUP2 PUSH1 0xFF MUL NOT AND SWAP1 DUP4 ISZERO ISZERO MUL OR SWAP1 SSTORE POP TIMESTAMP PUSH1 0x4 PUSH0 DUP7 DUP2 MSTORE PUSH1 0x20 ADD SWAP1 DUP2 MSTORE PUSH1 0x20 ADD PUSH0 KECCAK256 PUSH1 0xB ADD DUP2 SWAP1 SSTORE POP DUP4 PUSH32 0xC71412F97D91674644A2C076E0DBF0DD8AC6DB116D7DBCE0DD12CFE8E3AE4259 DUP5 PUSH1 0x40 MLOAD PUSH2 0x73A SWAP2 SWAP1 PUSH2 0x28AF JUMP JUMPDEST PUSH1 0x40 MLOAD DUP1 SWAP2 SUB SWAP1 LOG2 POP POP POP POP JUMP JUMPDEST PUSH0 PUSH32 0x7965DB0B00000000000000000000000000000000000000000000000000000000 PUSH28 0xFFFFFFFFFFFFFFFFFFFFFFFFFFFFFFFFFFFFFFFFFFFFFFFFFFFFFFFF NOT AND DUP3 PUSH28 0xFFFFFFFFFFFFFFFFFFFFFFFFFFFFFFFFFFFFFFFFFFFFFFFFFFFFFFFF NOT AND EQ DUP1 PUSH2 0x7BA JUMPI POP PUSH2 0x7B9 DUP3 PUSH2 0x2412 JUMP JUMPDEST JUMPDEST SWAP1 POP SWAP2 SWAP1 POP JUMP JUMPDEST PUSH0 DUP3 PUSH0 PUSH1 0x4 PUSH0 DUP4 DUP2 MSTORE PUSH1 0x20 ADD SWAP1 DUP2 MSTORE PUSH1 0x20 ADD PUSH0 KECCAK256 PUSH0 ADD SLOAD SUB PUSH2 0x818 JUMPI PUSH1 0x40 MLOAD PUSH32 0x8C379A000000000000000000000000000000000000000000000000000000000 DUP2 MSTORE PUSH1 0x4 ADD PUSH2 0x80F SWAP1 PUSH2 0x3111 JUMP JUMPDEST PUSH1 0x40 MLOAD DUP1 SWAP2 SUB SWAP1 REVERT JUMPDEST PUSH0 PUSH1 0x4 PUSH0 DUP7 DUP2 MSTORE PUSH1 0x20 ADD SWAP1 DUP2 MSTORE PUSH1 0x20 ADD PUSH0 KECCAK256 SWAP1 POP DUP1 PUSH1 0x9 ADD PUSH0 SWAP1 SLOAD SWAP1 PUSH2 0x100 EXP SWAP1 DIV PUSH1 0xFF AND DUP1 ISZERO PUSH2 0x897 JUMPI POP DUP4 PUSH20 0xFFFFFFFFFFFFFFFFFFFFFFFFFFFFFFFFFFFFFFFF AND DUP2 PUSH1 0x5 ADD PUSH0 SWAP1 SLOAD SWAP1 PUSH2 0x100 EXP SWAP1 DIV PUSH20 0xFFFFFFFFFFFFFFFFFFFFFFFFFFFFFFFFFFFFFFFF AND PUSH20 0xFFFFFFFFFFFFFFFFFFFFFFFFFFFFFFFFFFFFFFFF AND EQ JUMPDEST SWAP3 POP POP POP SWAP3 SWAP2 POP POP JUMP JUMPDEST PUSH32 0x241ECF16D79D0F8DBFB92CBC07FE17840425976CF0667F022FE9877CAA831B08 PUSH2 0x8CB DUP2 PUSH2 0x23FE JUMP JUMPDEST DUP3 PUSH0 PUSH0 SHL PUSH1 0x2 PUSH0 DUP4 DUP2 MSTORE PUSH1 0x20 ADD SWAP1 DUP2 MSTORE PUSH1 0x20 ADD PUSH0 KECCAK256 PUSH0 ADD SLOAD SUB PUSH2 0x923 JUMPI PUSH1 0x40 MLOAD PUSH32 0x8C379A000000000000000000000000000000000000000000000000000000000 DUP2 MSTORE PUSH1 0x4 ADD PUSH2 0x91A SWAP1 PUSH2 0x3179 JUMP JUMPDEST PUSH1 0x40 MLOAD DUP1 SWAP2 SUB SWAP1 REVERT JUMPDEST PUSH0 PUSH1 0x2 PUSH0 DUP7 DUP2 MSTORE PUSH1 0x20 ADD SWAP1 DUP2 MSTORE PUSH1 0x20 ADD PUSH0 KECCAK256 SWAP1 POP DUP4 DUP2 PUSH1 0x2 ADD PUSH1 0x14 PUSH2 0x100 EXP DUP2 SLOAD DUP2 PUSH1 0xFF MUL NOT AND SWAP1 DUP4 ISZERO ISZERO MUL OR SWAP1 SSTORE POP TIMESTAMP DUP2 PUSH1 0x4 ADD DUP2 SWAP1 SSTORE POP DUP1 PUSH1 0x2 ADD PUSH0 SWAP1 SLOAD SWAP1 PUSH2 0x100 EXP SWAP1 DIV PUSH20 0xFFFFFFFFFFFFFFFFFFFFFFFFFFFFFFFFFFFFFFFF AND PUSH20 0xFFFFFFFFFFFFFFFFFFFFFFFFFFFFFFFFFFFFFFFF AND DUP6 PUSH32 0x854C29E7D0B157E411E89B9DBB7C9AC925DBB496B0D4A9DE90AB7A0F5C4F6CC9 DUP7 PUSH1 0x40 MLOAD PUSH2 0x9C6 SWAP2 SWAP1 PUSH2 0x28AF JUMP JUMPDEST PUSH1 0x40 MLOAD DUP1 SWAP2 SUB SWAP1 LOG3 POP POP POP POP POP JUMP JUMPDEST PUSH0 DUP2 PUSH0 PUSH1 0x4 PUSH0 DUP4 DUP2 MSTORE PUSH1 0x20 ADD SWAP1 DUP2 MSTORE PUSH1 0x20 ADD PUSH0 KECCAK256 PUSH0 ADD SLOAD SUB PUSH2 0xA2C JUMPI PUSH1 0x40 MLOAD PUSH32 0x8C379A000000000000000000000000000000000000000000000000000000000 DUP2 MSTORE PUSH1 0x4 ADD PUSH2 0xA23 SWAP1 PUSH2 0x3111 JUMP JUMPDEST PUSH1 0x40 MLOAD DUP1 SWAP2 SUB SWAP1 REVERT JUMPDEST PUSH1 0x4 PUSH0 DUP5 DUP2 MSTORE PUSH1 0x20 ADD SWAP1 DUP2 MSTORE PUSH1 0x20 ADD PUSH0 KECCAK256 PUSH1 0x9 ADD PUSH0 SWAP1 SLOAD SWAP1 PUSH2 0x100 EXP SWAP1 DIV PUSH1 0xFF AND SWAP2 POP POP SWAP2 SWAP1 POP JUMP JUMPDEST PUSH0 DUP2 PUSH0 PUSH1 0x4 PUSH0 DUP4 DUP2 MSTORE PUSH1 0x20 ADD SWAP1 DUP2 MSTORE PUSH1 0x20 ADD PUSH0 KECCAK256 PUSH0 ADD SLOAD SUB PUSH2 0xAAC JUMPI PUSH1 0x40 MLOAD PUSH32 0x8C379A000000000000000000000000000000000000000000000000000000000 DUP2 MSTORE PUSH1 0x4 ADD PUSH2 0xAA3 SWAP1 PUSH2 0x3111 JUMP JUMPDEST PUSH1 0x40 MLOAD DUP1 SWAP2 SUB SWAP1 REVERT JUMPDEST PUSH1 0x4 PUSH0 DUP5 DUP2 MSTORE PUSH1 0x20 ADD SWAP1 DUP2 MSTORE PUSH1 0x20 ADD PUSH0 KECCAK256 PUSH1 0x4 ADD SLOAD SWAP2 POP POP SWAP2 SWAP1 POP JUMP JUMPDEST PUSH0 PUSH0 PUSH0 DUP4 DUP2 MSTORE PUSH1 0x20 ADD SWAP1 DUP2 MSTORE PUSH1 0x20 ADD PUSH0 KECCAK256 PUSH1 0x1 ADD SLOAD SWAP1 POP SWAP2 SWAP1 POP JUMP JUMPDEST PUSH2 0xAEE DUP3 PUSH2 0xAC9 JUMP JUMPDEST PUSH2 0xAF7 DUP2 PUSH2 0x23FE JUMP JUMPDEST PUSH2 0xB01 DUP4 DUP4 PUSH2 0x247B JUMP JUMPDEST POP POP POP POP JUMP JUMPDEST PUSH32 0x0 DUP2 JUMP JUMPDEST PUSH2 0xB33 PUSH2 0x26A5 JUMP JUMPDEST DUP2 PUSH0 PUSH1 0x4 PUSH0 DUP4 DUP2 MSTORE PUSH1 0x20 ADD SWAP1 DUP2 MSTORE PUSH1 0x20 ADD PUSH0 KECCAK256 PUSH0 ADD SLOAD SUB PUSH2 0xB89 JUMPI PUSH1 0x40 MLOAD PUSH32 0x8C379A000000000000000000000000000000000000000000000000000000000 DUP2 MSTORE PUSH1 0x4 ADD PUSH2 0xB80 SWAP1 PUSH2 0x3111 JUMP JUMPDEST PUSH1 0x40 MLOAD DUP1 SWAP2 SUB SWAP1 REVERT JUMPDEST PUSH1 0x4 PUSH0 DUP5 DUP2 MSTORE PUSH1 0x20 ADD SWAP1 DUP2 MSTORE PUSH1 0x20 ADD PUSH0 KECCAK256 PUSH1 0x40 MLOAD DUP1 PUSH2 0x180 ADD PUSH1 0x40 MSTORE SWAP1 DUP2 PUSH0 DUP3 ADD SLOAD DUP2 MSTORE PUSH1 0x20 ADD PUSH1 0x1 DUP3 ADD SLOAD DUP2 MSTORE PUSH1 0x20 ADD PUSH1 0x2 DUP3 ADD SLOAD DUP2 MSTORE PUSH1 0x20 ADD PUSH1 0x3 DUP3 ADD SLOAD DUP2 MSTORE PUSH1 0x20 ADD PUSH1 0x4 DUP3 ADD SLOAD DUP2 MSTORE PUSH1 0x20 ADD PUSH1 0x5 DUP3 ADD PUSH0 SWAP1 SLOAD SWAP1 PUSH2 0x100 EXP SWAP1 DIV PUSH20 0xFFFFFFFFFFFFFFFFFFFFFFFFFFFFFFFFFFFFFFFF AND PUSH20 0xFFFFFFFFFFFFFFFFFFFFFFFFFFFFFFFFFFFFFFFF AND PUSH20 0xFFFFFFFFFFFFFFFFFFFFFFFFFFFFFFFFFFFFFFFF AND DUP2 MSTORE PUSH1 0x20 ADD PUSH1 0x6 DUP3 ADD PUSH0 SWAP1 SLOAD SWAP1 PUSH2 0x100 EXP SWAP1 DIV PUSH20 0xFFFFFFFFFFFFFFFFFFFFFFFFFFFFFFFFFFFFFFFF AND PUSH20 0xFFFFFFFFFFFFFFFFFFFFFFFFFFFFFFFFFFFFFFFF AND PUSH20 0xFFFFFFFFFFFFFFFFFFFFFFFFFFFFFFFFFFFFFFFF AND DUP2 MSTORE PUSH1 0x20 ADD PUSH1 0x7 DUP3 ADD DUP1 SLOAD PUSH2 0xC91 SWAP1 PUSH2 0x31C4 JUMP JUMPDEST DUP1 PUSH1 0x1F ADD PUSH1 0x20 DUP1 SWAP2 DIV MUL PUSH1 0x20 ADD PUSH1 0x40 MLOAD SWAP1 DUP2 ADD PUSH1 0x40 MSTORE DUP1 SWAP3 SWAP2 SWAP1 DUP2 DUP2 MSTORE PUSH1 0x20 ADD DUP3 DUP1 SLOAD PUSH2 0xCBD SWAP1 PUSH2 0x31C4 JUMP JUMPDEST DUP1 ISZERO PUSH2 0xD08 JUMPI DUP1 PUSH1 0x1F LT PUSH2 0xCDF JUMPI PUSH2 0x100 DUP1 DUP4 SLOAD DIV MUL DUP4 MSTORE SWAP2 PUSH1 0x20 ADD SWAP2 PUSH2 0xD08 JUMP JUMPDEST DUP3 ADD SWAP2 SWAP1 PUSH0 MSTORE PUSH1 0x20 PUSH0 KECCAK256 SWAP1 JUMPDEST DUP2 SLOAD DUP2 MSTORE SWAP1 PUSH1 0x1 ADD SWAP1 PUSH1 0x20 ADD DUP1 DUP4 GT PUSH2 0xCEB JUMPI DUP3 SWAP1 SUB PUSH1 0x1F AND DUP3 ADD SWAP2 JUMPDEST POP POP POP POP POP DUP2 MSTORE PUSH1 0x20 ADD PUSH1 0x8 DUP3 ADD DUP1 SLOAD PUSH2 0xD21 SWAP1 PUSH2 0x31C4 JUMP JUMPDEST DUP1 PUSH1 0x1F ADD PUSH1 0x20 DUP1 SWAP2 DIV MUL PUSH1 0x20 ADD PUSH1 0x40 MLOAD SWAP1 DUP2 ADD PUSH1 0x40 MSTORE DUP1 SWAP3 SWAP2 SWAP1 DUP2 DUP2 MSTORE PUSH1 0x20 ADD DUP3 DUP1 SLOAD PUSH2 0xD4D SWAP1 PUSH2 0x31C4 JUMP JUMPDEST DUP1 ISZERO PUSH2 0xD98 JUMPI DUP1 PUSH1 0x1F LT PUSH2 0xD6F JUMPI PUSH2 0x100 DUP1 DUP4 SLOAD DIV MUL DUP4 MSTORE SWAP2 PUSH1 0x20 ADD SWAP2 PUSH2 0xD98 JUMP JUMPDEST DUP3 ADD SWAP2 SWAP1 PUSH0 MSTORE PUSH1 0x20 PUSH0 KECCAK256 SWAP1 JUMPDEST DUP2 SLOAD DUP2 MSTORE SWAP1 PUSH1 0x1 ADD SWAP1 PUSH1 0x20 ADD DUP1 DUP4 GT PUSH2 0xD7B JUMPI DUP3 SWAP1 SUB PUSH1 0x1F AND DUP3 ADD SWAP2 JUMPDEST POP POP POP POP POP DUP2 MSTORE PUSH1 0x20 ADD PUSH1 0x9 DUP3 ADD PUSH0 SWAP1 SLOAD SWAP1 PUSH2 0x100 EXP SWAP1 DIV PUSH1 0xFF AND ISZERO ISZERO ISZERO ISZERO DUP2 MSTORE PUSH1 0x20 ADD PUSH1 0xA DUP3 ADD SLOAD DUP2 MSTORE PUSH1 0x20 ADD PUSH1 0xB DUP3 ADD SLOAD DUP2 MSTORE POP POP SWAP2 POP POP SWAP2 SWAP1 POP JUMP JUMPDEST PUSH2 0xDDF PUSH2 0x2564 JUMP JUMPDEST PUSH20 0xFFFFFFFFFFFFFFFFFFFFFFFFFFFFFFFFFFFFFFFF AND DUP2 PUSH20 0xFFFFFFFFFFFFFFFFFFFFFFFFFFFFFFFFFFFFFFFF AND EQ PUSH2 0xE43 JUMPI PUSH1 0x40 MLOAD PUSH32 0x6697B23200000000000000000000000000000000000000000000000000000000 DUP2 MSTORE PUSH1 0x4 ADD PUSH1 0x40 MLOAD DUP1 SWAP2 SUB SWAP1 REVERT JUMPDEST PUSH2 0xE4D DUP3 DUP3 PUSH2 0x256B JUMP JUMPDEST POP POP POP JUMP JUMPDEST PUSH1 0x1 SLOAD DUP2 JUMP JUMPDEST PUSH1 0x5 PUSH1 0x20 MSTORE DUP1 PUSH0 MSTORE PUSH1 0x40 PUSH0 KECCAK256 PUSH0 SWAP2 POP SWAP1 POP SLOAD DUP2 JUMP JUMPDEST PUSH0 PUSH0 PUSH1 0x3 PUSH0 DUP5 PUSH20 0xFFFFFFFFFFFFFFFFFFFFFFFFFFFFFFFFFFFFFFFF AND PUSH20 0xFFFFFFFFFFFFFFFFFFFFFFFFFFFFFFFFFFFFFFFF AND DUP2 MSTORE PUSH1 0x20 ADD SWAP1 DUP2 MSTORE PUSH1 0x20 ADD PUSH0 KECCAK256 SLOAD SWAP1 POP PUSH0 PUSH0 SHL DUP2 EQ ISZERO DUP1 ISZERO PUSH2 0xEDF JUMPI POP PUSH1 0x2 PUSH0 DUP3 DUP2 MSTORE PUSH1 0x20 ADD SWAP1 DUP2 MSTORE PUSH1 0x20 ADD PUSH0 KECCAK256 PUSH1 0x2 ADD PUSH1 0x14 SWAP1 SLOAD SWAP1 PUSH2 0x100 EXP SWAP1 DIV PUSH1 0xFF AND JUMPDEST SWAP2 POP POP SWAP2 SWAP1 POP JUMP JUMPDEST PUSH32 0x2FDAC322EE704CE09F0773F7F3F92EB98D5E7C836EE9C056CCCD5F61041E5E3F DUP2 JUMP JUMPDEST PUSH1 0x3 PUSH1 0x20 MSTORE DUP1 PUSH0 MSTORE PUSH1 0x40 PUSH0 KECCAK256 PUSH0 SWAP2 POP SWAP1 POP SLOAD DUP2 JUMP JUMPDEST PUSH0 PUSH0 PUSH0 DUP5 DUP2 MSTORE PUSH1 0x20 ADD SWAP1 DUP2 MSTORE PUSH1 0x20 ADD PUSH0 KECCAK256 PUSH0 ADD PUSH0 DUP4 PUSH20 0xFFFFFFFFFFFFFFFFFFFFFFFFFFFFFFFFFFFFFFFF AND PUSH20 0xFFFFFFFFFFFFFFFFFFFFFFFFFFFFFFFFFFFFFFFF AND DUP2 MSTORE PUSH1 0x20 ADD SWAP1 DUP2 MSTORE PUSH1 0x20 ADD PUSH0 KECCAK256 PUSH0 SWAP1 SLOAD SWAP1 PUSH2 0x100 EXP SWAP1 DIV PUSH1 0xFF AND SWAP1 POP SWAP3 SWAP2 POP POP JUMP JUMPDEST PUSH2 0xF8B PUSH2 0x272A JUMP JUMPDEST PUSH0 PUSH1 0x3 PUSH0 DUP5 PUSH20 0xFFFFFFFFFFFFFFFFFFFFFFFFFFFFFFFFFFFFFFFF AND PUSH20 0xFFFFFFFFFFFFFFFFFFFFFFFFFFFFFFFFFFFFFFFF AND DUP2 MSTORE PUSH1 0x20 ADD SWAP1 DUP2 MSTORE PUSH1 0x20 ADD PUSH0 KECCAK256 SLOAD SWAP1 POP PUSH0 PUSH0 SHL DUP2 SUB PUSH2 0x1010 JUMPI PUSH1 0x40 MLOAD PUSH32 0x8C379A000000000000000000000000000000000000000000000000000000000 DUP2 MSTORE PUSH1 0x4 ADD PUSH2 0x1007 SWAP1 PUSH2 0x3179 JUMP JUMPDEST PUSH1 0x40 MLOAD DUP1 SWAP2 SUB SWAP1 REVERT JUMPDEST PUSH1 0x2 PUSH0 DUP3 DUP2 MSTORE PUSH1 0x20 ADD SWAP1 DUP2 MSTORE PUSH1 0x20 ADD PUSH0 KECCAK256 PUSH1 0x40 MLOAD DUP1 PUSH1 0xC0 ADD PUSH1 0x40 MSTORE SWAP1 DUP2 PUSH0 DUP3 ADD SLOAD DUP2 MSTORE PUSH1 0x20 ADD PUSH1 0x1 DUP3 ADD SLOAD DUP2 MSTORE PUSH1 0x20 ADD PUSH1 0x2 DUP3 ADD PUSH0 SWAP1 SLOAD SWAP1 PUSH2 0x100 EXP SWAP1 DIV PUSH20 0xFFFFFFFFFFFFFFFFFFFFFFFFFFFFFFFFFFFFFFFF AND PUSH20 0xFFFFFFFFFFFFFFFFFFFFFFFFFFFFFFFFFFFFFFFF AND PUSH20 0xFFFFFFFFFFFFFFFFFFFFFFFFFFFFFFFFFFFFFFFF AND DUP2 MSTORE PUSH1 0x20 ADD PUSH1 0x2 DUP3 ADD PUSH1 0x14 SWAP1 SLOAD SWAP1 PUSH2 0x100 EXP SWAP1 DIV PUSH1 0xFF AND ISZERO ISZERO ISZERO ISZERO DUP2 MSTORE PUSH1 0x20 ADD PUSH1 0x3 DUP3 ADD SLOAD DUP2 MSTORE PUSH1 0x20 ADD PUSH1 0x4 DUP3 ADD SLOAD DUP2 MSTORE POP POP SWAP2 POP POP SWAP2 SWAP1 POP JUMP JUMPDEST PUSH32 0x241ECF16D79D0F8DBFB92CBC07FE17840425976CF0667F022FE9877CAA831B08 PUSH2 0x10F5 DUP2 PUSH2 0x23FE JUMP JUMPDEST DUP3 PUSH0 PUSH0 SHL PUSH1 0x2 PUSH0 DUP4 DUP2 MSTORE PUSH1 0x20 ADD SWAP1 DUP2 MSTORE PUSH1 0x20 ADD PUSH0 KECCAK256 PUSH0 ADD SLOAD SUB PUSH2 0x114D JUMPI PUSH1 0x40 MLOAD PUSH32 0x8C379A000000000000000000000000000000000000000000000000000000000 DUP2 MSTORE PUSH1 0x4 ADD PUSH2 0x1144 SWAP1 PUSH2 0x3179 JUMP JUMPDEST PUSH1 0x40 MLOAD DUP1 SWAP2 SUB SWAP1 REVERT JUMPDEST PUSH0 PUSH20 0xFFFFFFFFFFFFFFFFFFFFFFFFFFFFFFFFFFFFFFFF AND DUP4 PUSH20 0xFFFFFFFFFFFFFFFFFFFFFFFFFFFFFFFFFFFFFFFF AND SUB PUSH2 0x11BB JUMPI PUSH1 0x40 MLOAD PUSH32 0x8C379A000000000000000000000000000000000000000000000000000000000 DUP2 MSTORE PUSH1 0x4 ADD PUSH2 0x11B2 SWAP1 PUSH2 0x323E JUMP JUMPDEST PUSH1 0x40 MLOAD DUP1 SWAP2 SUB SWAP1 REVERT JUMPDEST PUSH0 PUSH0 SHL PUSH1 0x3 PUSH0 DUP6 PUSH20 0xFFFFFFFFFFFFFFFFFFFFFFFFFFFFFFFFFFFFFFFF AND PUSH20 0xFFFFFFFFFFFFFFFFFFFFFFFFFFFFFFFFFFFFFFFF AND DUP2 MSTORE PUSH1 0x20 ADD SWAP1 DUP2 MSTORE PUSH1 0x20 ADD PUSH0 KECCAK256 SLOAD EQ PUSH2 0x123C JUMPI PUSH1 0x40 MLOAD PUSH32 0x8C379A000000000000000000000000000000000000000000000000000000000 DUP2 MSTORE PUSH1 0x4 ADD PUSH2 0x1233 SWAP1 PUSH2 0x32A6 JUMP JUMPDEST PUSH1 0x40 MLOAD DUP1 SWAP2 SUB SWAP1 REVERT JUMPDEST PUSH0 PUSH1 0x2 PUSH0 DUP7 DUP2 MSTORE PUSH1 0x20 ADD SWAP1 DUP2 MSTORE PUSH1 0x20 ADD PUSH0 KECCAK256 SWAP1 POP PUSH0 DUP2 PUSH1 0x2 ADD PUSH0 SWAP1 SLOAD SWAP1 PUSH2 0x100 EXP SWAP1 DIV PUSH20 0xFFFFFFFFFFFFFFFFFFFFFFFFFFFFFFFFFFFFFFFF AND SWAP1 POP PUSH1 0x3 PUSH0 DUP3 PUSH20 0xFFFFFFFFFFFFFFFFFFFFFFFFFFFFFFFFFFFFFFFF AND PUSH20 0xFFFFFFFFFFFFFFFFFFFFFFFFFFFFFFFFFFFFFFFF AND DUP2 MSTORE PUSH1 0x20 ADD SWAP1 DUP2 MSTORE PUSH1 0x20 ADD PUSH0 KECCAK256 PUSH0 SWAP1 SSTORE DUP5 DUP3 PUSH1 0x2 ADD PUSH0 PUSH2 0x100 EXP DUP2 SLOAD DUP2 PUSH20 0xFFFFFFFFFFFFFFFFFFFFFFFFFFFFFFFFFFFFFFFF MUL NOT AND SWAP1 DUP4 PUSH20 0xFFFFFFFFFFFFFFFFFFFFFFFFFFFFFFFFFFFFFFFF AND MUL OR SWAP1 SSTORE POP TIMESTAMP DUP3 PUSH1 0x4 ADD DUP2 SWAP1 SSTORE POP DUP6 PUSH1 0x3 PUSH0 DUP8 PUSH20 0xFFFFFFFFFFFFFFFFFFFFFFFFFFFFFFFFFFFFFFFF AND PUSH20 0xFFFFFFFFFFFFFFFFFFFFFFFFFFFFFFFFFFFFFFFF AND DUP2 MSTORE PUSH1 0x20 ADD SWAP1 DUP2 MSTORE PUSH1 0x20 ADD PUSH0 KECCAK256 DUP2 SWAP1 SSTORE POP DUP5 PUSH20 0xFFFFFFFFFFFFFFFFFFFFFFFFFFFFFFFFFFFFFFFF AND DUP2 PUSH20 0xFFFFFFFFFFFFFFFFFFFFFFFFFFFFFFFFFFFFFFFF AND DUP8 PUSH32 0x22BA3B21FA244E7E28C236715EA866F69B6D5276964F9066C1A23ACF0018F25A PUSH1 0x40 MLOAD PUSH1 0x40 MLOAD DUP1 SWAP2 SUB SWAP1 LOG4 POP POP POP POP POP POP JUMP JUMPDEST PUSH0 PUSH0 SHL DUP2 JUMP JUMPDEST PUSH2 0x13B5 PUSH2 0x272A JUMP JUMPDEST DUP2 PUSH0 PUSH0 SHL PUSH1 0x2 PUSH0 DUP4 DUP2 MSTORE PUSH1 0x20 ADD SWAP1 DUP2 MSTORE PUSH1 0x20 ADD PUSH0 KECCAK256 PUSH0 ADD SLOAD SUB PUSH2 0x140D JUMPI PUSH1 0x40 MLOAD PUSH32 0x8C379A000000000000000000000000000000000000000000000000000000000 DUP2 MSTORE PUSH1 0x4 ADD PUSH2 0x1404 SWAP1 PUSH2 0x3179 JUMP JUMPDEST PUSH1 0x40 MLOAD DUP1 SWAP2 SUB SWAP1 REVERT JUMPDEST PUSH1 0x2 PUSH0 DUP5 DUP2 MSTORE PUSH1 0x20 ADD SWAP1 DUP2 MSTORE PUSH1 0x20 ADD PUSH0 KECCAK256 PUSH1 0x40 MLOAD DUP1 PUSH1 0xC0 ADD PUSH1 0x40 MSTORE SWAP1 DUP2 PUSH0 DUP3 ADD SLOAD DUP2 MSTORE PUSH1 0x20 ADD PUSH1 0x1 DUP3 ADD SLOAD DUP2 MSTORE PUSH1 0x20 ADD PUSH1 0x2 DUP3 ADD PUSH0 SWAP1 SLOAD SWAP1 PUSH2 0x100 EXP SWAP1 DIV PUSH20 0xFFFFFFFFFFFFFFFFFFFFFFFFFFFFFFFFFFFFFFFF AND PUSH20 0xFFFFFFFFFFFFFFFFFFFFFFFFFFFFFFFFFFFFFFFF AND PUSH20 0xFFFFFFFFFFFFFFFFFFFFFFFFFFFFFFFFFFFFFFFF AND DUP2 MSTORE PUSH1 0x20 ADD PUSH1 0x2 DUP3 ADD PUSH1 0x14 SWAP1 SLOAD SWAP1 PUSH2 0x100 EXP SWAP1 DIV PUSH1 0xFF AND ISZERO ISZERO ISZERO ISZERO DUP2 MSTORE PUSH1 0x20 ADD PUSH1 0x3 DUP3 ADD SLOAD DUP2 MSTORE PUSH1 0x20 ADD PUSH1 0x4 DUP3 ADD SLOAD DUP2 MSTORE POP POP SWAP2 POP POP SWAP2 SWAP1 POP JUMP JUMPDEST PUSH32 0x241ECF16D79D0F8DBFB92CBC07FE17840425976CF0667F022FE9877CAA831B08 PUSH2 0x14F2 DUP2 PUSH2 0x23FE JUMP JUMPDEST DUP6 PUSH0 PUSH1 0x4 PUSH0 DUP4 DUP2 MSTORE PUSH1 0x20 ADD SWAP1 DUP2 MSTORE PUSH1 0x20 ADD PUSH0 KECCAK256 PUSH0 ADD SLOAD SUB PUSH2 0x1548 JUMPI PUSH1 0x40 MLOAD PUSH32 0x8C379A000000000000000000000000000000000000000000000000000000000 DUP2 MSTORE PUSH1 0x4 ADD PUSH2 0x153F SWAP1 PUSH2 0x3111 JUMP JUMPDEST PUSH1 0x40 MLOAD DUP1 SWAP2 SUB SWAP1 REVERT JUMPDEST PUSH0 DUP5 DUP5 SWAP1 POP GT PUSH2 0x158D JUMPI PUSH1 0x40 MLOAD PUSH32 0x8C379A000000000000000000000000000000000000000000000000000000000 DUP2 MSTORE PUSH1 0x4 ADD PUSH2 0x1584 SWAP1 PUSH2 0x330E JUMP JUMPDEST PUSH1 0x40 MLOAD DUP1 SWAP2 SUB SWAP1 REVERT JUMPDEST PUSH0 PUSH1 0x4 PUSH0 DUP10 DUP2 MSTORE PUSH1 0x20 ADD SWAP1 DUP2 MSTORE PUSH1 0x20 ADD PUSH0 KECCAK256 SWAP1 POP DUP7 DUP2 PUSH1 0x2 ADD DUP2 SWAP1 SSTORE POP DUP6 DUP2 PUSH1 0x3 ADD DUP2 SWAP1 SSTORE POP DUP5 DUP5 DUP3 PUSH1 0x7 ADD SWAP2 DUP3 PUSH2 0x15C6 SWAP3 SWAP2 SWAP1 PUSH2 0x34FA JUMP JUMPDEST POP TIMESTAMP DUP2 PUSH1 0xB ADD DUP2 SWAP1 SSTORE POP DUP8 PUSH32 0xED0CCCA39E9CDA607881B908489DC622E92CC62B4557758F4C28F63B24C1BAFB DUP9 DUP9 DUP9 DUP9 PUSH1 0x40 MLOAD PUSH2 0x1606 SWAP5 SWAP4 SWAP3 SWAP2 SWAP1 PUSH2 0x3601 JUMP JUMPDEST PUSH1 0x40 MLOAD DUP1 SWAP2 SUB SWAP1 LOG2 POP POP POP POP POP POP POP POP JUMP JUMPDEST PUSH0 PUSH0 PUSH32 0x241ECF16D79D0F8DBFB92CBC07FE17840425976CF0667F022FE9877CAA831B08 PUSH2 0x1644 DUP2 PUSH2 0x23FE JUMP JUMPDEST PUSH0 PUSH0 SHL DUP12 SUB PUSH2 0x1688 JUMPI PUSH1 0x40 MLOAD PUSH32 0x8C379A000000000000000000000000000000000000000000000000000000000 DUP2 MSTORE PUSH1 0x4 ADD PUSH2 0x167F SWAP1 PUSH2 0x3689 JUMP JUMPDEST PUSH1 0x40 MLOAD DUP1 SWAP2 SUB SWAP1 REVERT JUMPDEST PUSH0 PUSH1 0x5 PUSH0 DUP14 DUP2 MSTORE PUSH1 0x20 ADD SWAP1 DUP2 MSTORE PUSH1 0x20 ADD PUSH0 KECCAK256 SLOAD EQ PUSH2 0x16DB JUMPI PUSH1 0x40 MLOAD PUSH32 0x8C379A000000000000000000000000000000000000000000000000000000000 DUP2 MSTORE PUSH1 0x4 ADD PUSH2 0x16D2 SWAP1 PUSH2 0x36F1 JUMP JUMPDEST PUSH1 0x40 MLOAD DUP1 SWAP2 SUB SWAP1 REVERT JUMPDEST PUSH2 0x16E4 DUP11 PUSH2 0xE6D JUMP JUMPDEST PUSH2 0x1723 JUMPI PUSH1 0x40 MLOAD PUSH32 0x8C379A000000000000000000000000000000000000000000000000000000000 DUP2 MSTORE PUSH1 0x4 ADD PUSH2 0x171A SWAP1 PUSH2 0x3759 JUMP JUMPDEST PUSH1 0x40 MLOAD DUP1 SWAP2 SUB SWAP1 REVERT JUMPDEST PUSH0 DUP8 DUP8 SWAP1 POP GT PUSH2 0x1768 JUMPI PUSH1 0x40 MLOAD PUSH32 0x8C379A000000000000000000000000000000000000000000000000000000000 DUP2 MSTORE PUSH1 0x4 ADD PUSH2 0x175F SWAP1 PUSH2 0x330E JUMP JUMPDEST PUSH1 0x40 MLOAD DUP1 SWAP2 SUB SWAP1 REVERT JUMPDEST PUSH0 DUP6 DUP6 SWAP1 POP GT PUSH2 0x17AD JUMPI PUSH1 0x40 MLOAD PUSH32 0x8C379A000000000000000000000000000000000000000000000000000000000 DUP2 MSTORE PUSH1 0x4 ADD PUSH2 0x17A4 SWAP1 PUSH2 0x37C1 JUMP JUMPDEST PUSH1 0x40 MLOAD DUP1 SWAP2 SUB SWAP1 REVERT JUMPDEST PUSH1 0x1 PUSH0 DUP2 SLOAD DUP1 SWAP3 SWAP2 SWAP1 PUSH2 0x17BF SWAP1 PUSH2 0x380C JUMP JUMPDEST SWAP2 SWAP1 POP SSTORE SWAP3 POP DUP3 SWAP2 POP PUSH1 0x40 MLOAD DUP1 PUSH2 0x180 ADD PUSH1 0x40 MSTORE DUP1 DUP5 DUP2 MSTORE PUSH1 0x20 ADD DUP13 DUP2 MSTORE PUSH1 0x20 ADD DUP11 DUP2 MSTORE PUSH1 0x20 ADD DUP10 DUP2 MSTORE PUSH1 0x20 ADD DUP4 DUP2 MSTORE PUSH1 0x20 ADD DUP12 PUSH20 0xFFFFFFFFFFFFFFFFFFFFFFFFFFFFFFFFFFFFFFFF AND DUP2 MSTORE PUSH1 0x20 ADD CALLER PUSH20 0xFFFFFFFFFFFFFFFFFFFFFFFFFFFFFFFFFFFFFFFF AND DUP2 MSTORE PUSH1 0x20 ADD DUP9 DUP9 DUP1 DUP1 PUSH1 0x1F ADD PUSH1 0x20 DUP1 SWAP2 DIV MUL PUSH1 0x20 ADD PUSH1 0x40 MLOAD SWAP1 DUP2 ADD PUSH1 0x40 MSTORE DUP1 SWAP4 SWAP3 SWAP2 SWAP1 DUP2 DUP2 MSTORE PUSH1 0x20 ADD DUP4 DUP4 DUP1 DUP3 DUP5 CALLDATACOPY PUSH0 DUP2 DUP5 ADD MSTORE PUSH1 0x1F NOT PUSH1 0x1F DUP3 ADD AND SWAP1 POP DUP1 DUP4 ADD SWAP3 POP POP POP POP POP POP POP DUP2 MSTORE PUSH1 0x20 ADD DUP7 DUP7 DUP1 DUP1 PUSH1 0x1F ADD PUSH1 0x20 DUP1 SWAP2 DIV MUL PUSH1 0x20 ADD PUSH1 0x40 MLOAD SWAP1 DUP2 ADD PUSH1 0x40 MSTORE DUP1 SWAP4 SWAP3 SWAP2 SWAP1 DUP2 DUP2 MSTORE PUSH1 0x20 ADD DUP4 DUP4 DUP1 DUP3 DUP5 CALLDATACOPY PUSH0 DUP2 DUP5 ADD MSTORE PUSH1 0x1F NOT PUSH1 0x1F DUP3 ADD AND SWAP1 POP DUP1 DUP4 ADD SWAP3 POP POP POP POP POP POP POP DUP2 MSTORE PUSH1 0x20 ADD PUSH1 0x1 ISZERO ISZERO DUP2 MSTORE PUSH1 0x20 ADD TIMESTAMP DUP2 MSTORE PUSH1 0x20 ADD TIMESTAMP DUP2 MSTORE POP PUSH1 0x4 PUSH0 DUP6 DUP2 MSTORE PUSH1 0x20 ADD SWAP1 DUP2 MSTORE PUSH1 0x20 ADD PUSH0 KECCAK256 PUSH0 DUP3 ADD MLOAD DUP2 PUSH0 ADD SSTORE PUSH1 0x20 DUP3 ADD MLOAD DUP2 PUSH1 0x1 ADD SSTORE PUSH1 0x40 DUP3 ADD MLOAD DUP2 PUSH1 0x2 ADD SSTORE PUSH1 0x60 DUP3 ADD MLOAD DUP2 PUSH1 0x3 ADD SSTORE PUSH1 0x80 DUP3 ADD MLOAD DUP2 PUSH1 0x4 ADD SSTORE PUSH1 0xA0 DUP3 ADD MLOAD DUP2 PUSH1 0x5 ADD PUSH0 PUSH2 0x100 EXP DUP2 SLOAD DUP2 PUSH20 0xFFFFFFFFFFFFFFFFFFFFFFFFFFFFFFFFFFFFFFFF MUL NOT AND SWAP1 DUP4 PUSH20 0xFFFFFFFFFFFFFFFFFFFFFFFFFFFFFFFFFFFFFFFF AND MUL OR SWAP1 SSTORE POP PUSH1 0xC0 DUP3 ADD MLOAD DUP2 PUSH1 0x6 ADD PUSH0 PUSH2 0x100 EXP DUP2 SLOAD DUP2 PUSH20 0xFFFFFFFFFFFFFFFFFFFFFFFFFFFFFFFFFFFFFFFF MUL NOT AND SWAP1 DUP4 PUSH20 0xFFFFFFFFFFFFFFFFFFFFFFFFFFFFFFFFFFFFFFFF AND MUL OR SWAP1 SSTORE POP PUSH1 0xE0 DUP3 ADD MLOAD DUP2 PUSH1 0x7 ADD SWAP1 DUP2 PUSH2 0x19B1 SWAP2 SWAP1 PUSH2 0x3853 JUMP JUMPDEST POP PUSH2 0x100 DUP3 ADD MLOAD DUP2 PUSH1 0x8 ADD SWAP1 DUP2 PUSH2 0x19C8 SWAP2 SWAP1 PUSH2 0x3853 JUMP JUMPDEST POP PUSH2 0x120 DUP3 ADD MLOAD DUP2 PUSH1 0x9 ADD PUSH0 PUSH2 0x100 EXP DUP2 SLOAD DUP2 PUSH1 0xFF MUL NOT AND SWAP1 DUP4 ISZERO ISZERO MUL OR SWAP1 SSTORE POP PUSH2 0x140 DUP3 ADD MLOAD DUP2 PUSH1 0xA ADD SSTORE PUSH2 0x160 DUP3 ADD MLOAD DUP2 PUSH1 0xB ADD SSTORE SWAP1 POP POP DUP3 PUSH1 0x5 PUSH0 DUP14 DUP2 MSTORE PUSH1 0x20 ADD SWAP1 DUP2 MSTORE PUSH1 0x20 ADD PUSH0 KECCAK256 DUP2 SWAP1 SSTORE POP PUSH32 0x0 PUSH20 0xFFFFFFFFFFFFFFFFFFFFFFFFFFFFFFFFFFFFFFFF AND PUSH4 0xC2B4C97E DUP12 DUP5 DUP7 DUP10 DUP10 PUSH1 0x40 MLOAD DUP7 PUSH4 0xFFFFFFFF AND PUSH1 0xE0 SHL DUP2 MSTORE PUSH1 0x4 ADD PUSH2 0x1A79 SWAP6 SWAP5 SWAP4 SWAP3 SWAP2 SWAP1 PUSH2 0x3922 JUMP JUMPDEST PUSH0 PUSH1 0x40 MLOAD DUP1 DUP4 SUB DUP2 PUSH0 DUP8 DUP1 EXTCODESIZE ISZERO DUP1 ISZERO PUSH2 0x1A90 JUMPI PUSH0 PUSH0 REVERT JUMPDEST POP GAS CALL ISZERO DUP1 ISZERO PUSH2 0x1AA2 JUMPI RETURNDATASIZE PUSH0 PUSH0 RETURNDATACOPY RETURNDATASIZE PUSH0 REVERT JUMPDEST POP POP POP POP DUP2 DUP12 DUP5 PUSH32 0xC27C158803F11E3D0FC754646ECDAC61E597233FBB63E12FDB10659817861B36 DUP14 PUSH1 0x40 MLOAD PUSH2 0x1AD8 SWAP2 SWAP1 PUSH2 0x2F9F JUMP JUMPDEST PUSH1 0x40 MLOAD DUP1 SWAP2 SUB SWAP1 LOG4 POP SWAP9 POP SWAP9 SWAP7 POP POP POP POP POP POP POP JUMP JUMPDEST PUSH32 0x2FDAC322EE704CE09F0773F7F3F92EB98D5E7C836EE9C056CCCD5F61041E5E3F PUSH2 0x1B18 DUP2 PUSH2 0x23FE JUMP JUMPDEST DUP3 PUSH0 PUSH1 0x4 PUSH0 DUP4 DUP2 MSTORE PUSH1 0x20 ADD SWAP1 DUP2 MSTORE PUSH1 0x20 ADD PUSH0 KECCAK256 PUSH0 ADD SLOAD SUB PUSH2 0x1B6E JUMPI PUSH1 0x40 MLOAD PUSH32 0x8C379A000000000000000000000000000000000000000000000000000000000 DUP2 MSTORE PUSH1 0x4 ADD PUSH2 0x1B65 SWAP1 PUSH2 0x3111 JUMP JUMPDEST PUSH1 0x40 MLOAD DUP1 SWAP2 SUB SWAP1 REVERT JUMPDEST PUSH2 0x1B77 DUP4 PUSH2 0xE6D JUMP JUMPDEST PUSH2 0x1BB6 JUMPI PUSH1 0x40 MLOAD PUSH32 0x8C379A000000000000000000000000000000000000000000000000000000000 DUP2 MSTORE PUSH1 0x4 ADD PUSH2 0x1BAD SWAP1 PUSH2 0x39B8 JUMP JUMPDEST PUSH1 0x40 MLOAD DUP1 SWAP2 SUB SWAP1 REVERT JUMPDEST PUSH0 PUSH1 0x4 PUSH0 DUP7 DUP2 MSTORE PUSH1 0x20 ADD SWAP1 DUP2 MSTORE PUSH1 0x20 ADD PUSH0 KECCAK256 SWAP1 POP DUP1 PUSH1 0x9 ADD PUSH0 SWAP1 SLOAD SWAP1 PUSH2 0x100 EXP SWAP1 DIV PUSH1 0xFF AND PUSH2 0x1C1A JUMPI PUSH1 0x40 MLOAD PUSH32 0x8C379A000000000000000000000000000000000000000000000000000000000 DUP2 MSTORE PUSH1 0x4 ADD PUSH2 0x1C11 SWAP1 PUSH2 0x3A20 JUMP JUMPDEST PUSH1 0x40 MLOAD DUP1 SWAP2 SUB SWAP1 REVERT JUMPDEST PUSH0 DUP2 PUSH1 0x5 ADD PUSH0 SWAP1 SLOAD SWAP1 PUSH2 0x100 EXP SWAP1 DIV PUSH20 0xFFFFFFFFFFFFFFFFFFFFFFFFFFFFFFFFFFFFFFFF AND SWAP1 POP DUP5 DUP3 PUSH1 0x5 ADD PUSH0 PUSH2 0x100 EXP DUP2 SLOAD DUP2 PUSH20 0xFFFFFFFFFFFFFFFFFFFFFFFFFFFFFFFFFFFFFFFF MUL NOT AND SWAP1 DUP4 PUSH20 0xFFFFFFFFFFFFFFFFFFFFFFFFFFFFFFFFFFFFFFFF AND MUL OR SWAP1 SSTORE POP TIMESTAMP DUP3 PUSH1 0xB ADD DUP2 SWAP1 SSTORE POP DUP5 PUSH20 0xFFFFFFFFFFFFFFFFFFFFFFFFFFFFFFFFFFFFFFFF AND DUP2 PUSH20 0xFFFFFFFFFFFFFFFFFFFFFFFFFFFFFFFFFFFFFFFF AND DUP8 PUSH32 0x56629E12F35B876D2F2B24F4C1FC29A748E496CD12950A7E20F1257181CF019C PUSH1 0x40 MLOAD PUSH1 0x40 MLOAD DUP1 SWAP2 SUB SWAP1 LOG4 POP POP POP POP POP POP JUMP JUMPDEST PUSH2 0x1CF8 DUP3 PUSH2 0xAC9 JUMP JUMPDEST PUSH2 0x1D01 DUP2 PUSH2 0x23FE JUMP JUMPDEST PUSH2 0x1D0B DUP4 DUP4 PUSH2 0x256B JUMP JUMPDEST POP POP POP POP JUMP JUMPDEST PUSH0 DUP2 PUSH0 PUSH1 0x4 PUSH0 DUP4 DUP2 MSTORE PUSH1 0x20 ADD SWAP1 DUP2 MSTORE PUSH1 0x20 ADD PUSH0 KECCAK256 PUSH0 ADD SLOAD SUB PUSH2 0x1D68 JUMPI PUSH1 0x40 MLOAD PUSH32 0x8C379A000000000000000000000000000000000000000000000000000000000 DUP2 MSTORE PUSH1 0x4 ADD PUSH2 0x1D5F SWAP1 PUSH2 0x3111 JUMP JUMPDEST PUSH1 0x40 MLOAD DUP1 SWAP2 SUB SWAP1 REVERT JUMPDEST PUSH1 0x4 PUSH0 DUP5 DUP2 MSTORE PUSH1 0x20 ADD SWAP1 DUP2 MSTORE PUSH1 0x20 ADD PUSH0 KECCAK256 PUSH1 0x5 ADD PUSH0 SWAP1 SLOAD SWAP1 PUSH2 0x100 EXP SWAP1 DIV PUSH20 0xFFFFFFFFFFFFFFFFFFFFFFFFFFFFFFFFFFFFFFFF AND SWAP2 POP POP SWAP2 SWAP1 POP JUMP JUMPDEST PUSH32 0x241ECF16D79D0F8DBFB92CBC07FE17840425976CF0667F022FE9877CAA831B08 DUP2 JUMP JUMPDEST PUSH32 0x241ECF16D79D0F8DBFB92CBC07FE17840425976CF0667F022FE9877CAA831B08 PUSH2 0x1DF2 DUP2 PUSH2 0x23FE JUMP JUMPDEST DUP3 PUSH0 PUSH0 SHL PUSH1 0x2 PUSH0 DUP4 DUP2 MSTORE PUSH1 0x20 ADD SWAP1 DUP2 MSTORE PUSH1 0x20 ADD PUSH0 KECCAK256 PUSH0 ADD SLOAD SUB PUSH2 0x1E4A JUMPI PUSH1 0x40 MLOAD PUSH32 0x8C379A000000000000000000000000000000000000000000000000000000000 DUP2 MSTORE PUSH1 0x4 ADD PUSH2 0x1E41 SWAP1 PUSH2 0x3179 JUMP JUMPDEST PUSH1 0x40 MLOAD DUP1 SWAP2 SUB SWAP1 REVERT JUMPDEST PUSH0 PUSH1 0x2 PUSH0 DUP7 DUP2 MSTORE PUSH1 0x20 ADD SWAP1 DUP2 MSTORE PUSH1 0x20 ADD PUSH0 KECCAK256 SWAP1 POP DUP4 DUP2 PUSH1 0x1 ADD DUP2 SWAP1 SSTORE POP TIMESTAMP DUP2 PUSH1 0x4 ADD DUP2 SWAP1 SSTORE POP DUP5 PUSH32 0xB3E4473AC21B2977C92CD4ABA536743B375B1B274FB979A9080118B304BEF448 DUP6 PUSH1 0x40 MLOAD PUSH2 0x1EA0 SWAP2 SWAP1 PUSH2 0x2A5E JUMP JUMPDEST PUSH1 0x40 MLOAD DUP1 SWAP2 SUB SWAP1 LOG2 POP POP POP POP POP JUMP JUMPDEST PUSH32 0x241ECF16D79D0F8DBFB92CBC07FE17840425976CF0667F022FE9877CAA831B08 PUSH2 0x1ED9 DUP2 PUSH2 0x23FE JUMP JUMPDEST PUSH0 PUSH0 SHL DUP6 SUB PUSH2 0x1F1D JUMPI PUSH1 0x40 MLOAD PUSH32 0x8C379A000000000000000000000000000000000000000000000000000000000 DUP2 MSTORE PUSH1 0x4 ADD PUSH2 0x1F14 SWAP1 PUSH2 0x3A88 JUMP JUMPDEST PUSH1 0x40 MLOAD DUP1 SWAP2 SUB SWAP1 REVERT JUMPDEST PUSH0 PUSH20 0xFFFFFFFFFFFFFFFFFFFFFFFFFFFFFFFFFFFFFFFF AND DUP5 PUSH20 0xFFFFFFFFFFFFFFFFFFFFFFFFFFFFFFFFFFFFFFFF AND SUB PUSH2 0x1F8B JUMPI PUSH1 0x40 MLOAD PUSH32 0x8C379A000000000000000000000000000000000000000000000000000000000 DUP2 MSTORE PUSH1 0x4 ADD PUSH2 0x1F82 SWAP1 PUSH2 0x323E JUMP JUMPDEST PUSH1 0x40 MLOAD DUP1 SWAP2 SUB SWAP1 REVERT JUMPDEST PUSH0 PUSH0 SHL PUSH1 0x2 PUSH0 DUP8 DUP2 MSTORE PUSH1 0x20 ADD SWAP1 DUP2 MSTORE PUSH1 0x20 ADD PUSH0 KECCAK256 PUSH0 ADD SLOAD EQ PUSH2 0x1FE2 JUMPI PUSH1 0x40 MLOAD PUSH32 0x8C379A000000000000000000000000000000000000000000000000000000000 DUP2 MSTORE PUSH1 0x4 ADD PUSH2 0x1FD9 SWAP1 PUSH2 0x3AF0 JUMP JUMPDEST PUSH1 0x40 MLOAD DUP1 SWAP2 SUB SWAP1 REVERT JUMPDEST PUSH0 PUSH0 SHL PUSH1 0x3 PUSH0 DUP7 PUSH20 0xFFFFFFFFFFFFFFFFFFFFFFFFFFFFFFFFFFFFFFFF AND PUSH20 0xFFFFFFFFFFFFFFFFFFFFFFFFFFFFFFFFFFFFFFFF AND DUP2 MSTORE PUSH1 0x20 ADD SWAP1 DUP2 MSTORE PUSH1 0x20 ADD PUSH0 KECCAK256 SLOAD EQ PUSH2 0x2063 JUMPI PUSH1 0x40 MLOAD PUSH32 0x8C379A000000000000000000000000000000000000000000000000000000000 DUP2 MSTORE PUSH1 0x4 ADD PUSH2 0x205A SWAP1 PUSH2 0x32A6 JUMP JUMPDEST PUSH1 0x40 MLOAD DUP1 SWAP2 SUB SWAP1 REVERT JUMPDEST PUSH1 0x40 MLOAD DUP1 PUSH1 0xC0 ADD PUSH1 0x40 MSTORE DUP1 DUP7 DUP2 MSTORE PUSH1 0x20 ADD DUP5 PUSH0 SHL DUP2 MSTORE PUSH1 0x20 ADD DUP6 PUSH20 0xFFFFFFFFFFFFFFFFFFFFFFFFFFFFFFFFFFFFFFFF AND DUP2 MSTORE PUSH1 0x20 ADD DUP4 ISZERO ISZERO DUP2 MSTORE PUSH1 0x20 ADD TIMESTAMP DUP2 MSTORE PUSH1 0x20 ADD TIMESTAMP DUP2 MSTORE POP PUSH1 0x2 PUSH0 DUP8 DUP2 MSTORE PUSH1 0x20 ADD SWAP1 DUP2 MSTORE PUSH1 0x20 ADD PUSH0 KECCAK256 PUSH0 DUP3 ADD MLOAD DUP2 PUSH0 ADD SSTORE PUSH1 0x20 DUP3 ADD MLOAD DUP2 PUSH1 0x1 ADD SSTORE PUSH1 0x40 DUP3 ADD MLOAD DUP2 PUSH1 0x2 ADD PUSH0 PUSH2 0x100 EXP DUP2 SLOAD DUP2 PUSH20 0xFFFFFFFFFFFFFFFFFFFFFFFFFFFFFFFFFFFFFFFF MUL NOT AND SWAP1 DUP4 PUSH20 0xFFFFFFFFFFFFFFFFFFFFFFFFFFFFFFFFFFFFFFFF AND MUL OR SWAP1 SSTORE POP PUSH1 0x60 DUP3 ADD MLOAD DUP2 PUSH1 0x2 ADD PUSH1 0x14 PUSH2 0x100 EXP DUP2 SLOAD DUP2 PUSH1 0xFF MUL NOT AND SWAP1 DUP4 ISZERO ISZERO MUL OR SWAP1 SSTORE POP PUSH1 0x80 DUP3 ADD MLOAD DUP2 PUSH1 0x3 ADD SSTORE PUSH1 0xA0 DUP3 ADD MLOAD DUP2 PUSH1 0x4 ADD SSTORE SWAP1 POP POP DUP5 PUSH1 0x3 PUSH0 DUP7 PUSH20 0xFFFFFFFFFFFFFFFFFFFFFFFFFFFFFFFFFFFFFFFF AND PUSH20 0xFFFFFFFFFFFFFFFFFFFFFFFFFFFFFFFFFFFFFFFF AND DUP2 MSTORE PUSH1 0x20 ADD SWAP1 DUP2 MSTORE PUSH1 0x20 ADD PUSH0 KECCAK256 DUP2 SWAP1 SSTORE POP DUP4 PUSH20 0xFFFFFFFFFFFFFFFFFFFFFFFFFFFFFFFFFFFFFFFF AND DUP6 PUSH32 0x7800CDEFBC99F5A07792FAAC95583AEB6D58EDDBFB16B4BD372295F06BC2510E DUP6 PUSH0 SHL PUSH1 0x40 MLOAD PUSH2 0x21D5 SWAP2 SWAP1 PUSH2 0x2A5E JUMP JUMPDEST PUSH1 0x40 MLOAD DUP1 SWAP2 SUB SWAP1 LOG3 DUP4 PUSH20 0xFFFFFFFFFFFFFFFFFFFFFFFFFFFFFFFFFFFFFFFF AND DUP6 PUSH32 0x854C29E7D0B157E411E89B9DBB7C9AC925DBB496B0D4A9DE90AB7A0F5C4F6CC9 DUP5 PUSH1 0x40 MLOAD PUSH2 0x2224 SWAP2 SWAP1 PUSH2 0x28AF JUMP JUMPDEST PUSH1 0x40 MLOAD DUP1 SWAP2 SUB SWAP1 LOG3 POP POP POP POP POP JUMP JUMPDEST PUSH32 0x241ECF16D79D0F8DBFB92CBC07FE17840425976CF0667F022FE9877CAA831B08 PUSH2 0x225D DUP2 PUSH2 0x23FE JUMP JUMPDEST DUP4 PUSH0 PUSH1 0x4 PUSH0 DUP4 DUP2 MSTORE PUSH1 0x20 ADD SWAP1 DUP2 MSTORE PUSH1 0x20 ADD PUSH0 KECCAK256 PUSH0 ADD SLOAD SUB PUSH2 0x22B3 JUMPI PUSH1 0x40 MLOAD PUSH32 0x8C379A000000000000000000000000000000000000000000000000000000000 DUP2 MSTORE PUSH1 0x4 ADD PUSH2 0x22AA SWAP1 PUSH2 0x3111 JUMP JUMPDEST PUSH1 0x40 MLOAD DUP1 SWAP2 SUB SWAP1 REVERT JUMPDEST PUSH0 DUP5 DUP5 SWAP1 POP GT PUSH2 0x22F8 JUMPI PUSH1 0x40 MLOAD PUSH32 0x8C379A000000000000000000000000000000000000000000000000000000000 DUP2 MSTORE PUSH1 0x4 ADD PUSH2 0x22EF SWAP1 PUSH2 0x37C1 JUMP JUMPDEST PUSH1 0x40 MLOAD DUP1 SWAP2 SUB SWAP1 REVERT JUMPDEST PUSH0 PUSH1 0x4 PUSH0 DUP8 DUP2 MSTORE PUSH1 0x20 ADD SWAP1 DUP2 MSTORE PUSH1 0x20 ADD PUSH0 KECCAK256 SWAP1 POP DUP5 DUP5 DUP3 PUSH1 0x8 ADD SWAP2 DUP3 PUSH2 0x231F SWAP3 SWAP2 SWAP1 PUSH2 0x34FA JUMP JUMPDEST POP TIMESTAMP DUP2 PUSH1 0xB ADD DUP2 SWAP1 SSTORE POP PUSH32 0x0 PUSH20 0xFFFFFFFFFFFFFFFFFFFFFFFFFFFFFFFFFFFFFFFF AND PUSH4 0x3FCCE2E1 DUP3 PUSH1 0x4 ADD SLOAD DUP8 DUP8 PUSH1 0x40 MLOAD DUP5 PUSH4 0xFFFFFFFF AND PUSH1 0xE0 SHL DUP2 MSTORE PUSH1 0x4 ADD PUSH2 0x238A SWAP4 SWAP3 SWAP2 SWAP1 PUSH2 0x3B0E JUMP JUMPDEST PUSH0 PUSH1 0x40 MLOAD DUP1 DUP4 SUB DUP2 PUSH0 DUP8 DUP1 EXTCODESIZE ISZERO DUP1 ISZERO PUSH2 0x23A1 JUMPI PUSH0 PUSH0 REVERT JUMPDEST POP GAS CALL ISZERO DUP1 ISZERO PUSH2 0x23B3 JUMPI RETURNDATASIZE PUSH0 PUSH0 RETURNDATACOPY RETURNDATASIZE PUSH0 REVERT JUMPDEST POP POP POP POP DUP1 PUSH1 0x4 ADD SLOAD DUP7 PUSH32 0xFDD6111DE6E38D245546952D3A75022DEA997FFF1DDC8245D729278399E46A70 DUP8 DUP8 PUSH1 0x40 MLOAD PUSH2 0x23EE SWAP3 SWAP2 SWAP1 PUSH2 0x3B3E JUMP JUMPDEST PUSH1 0x40 MLOAD DUP1 SWAP2 SUB SWAP1 LOG3 POP POP POP POP POP POP JUMP JUMPDEST PUSH2 0x240F DUP2 PUSH2 0x240A PUSH2 0x2564 JUMP JUMPDEST PUSH2 0x2654 JUMP JUMPDEST POP JUMP JUMPDEST PUSH0 PUSH32 0x1FFC9A700000000000000000000000000000000000000000000000000000000 PUSH28 0xFFFFFFFFFFFFFFFFFFFFFFFFFFFFFFFFFFFFFFFFFFFFFFFFFFFFFFFF NOT AND DUP3 PUSH28 0xFFFFFFFFFFFFFFFFFFFFFFFFFFFFFFFFFFFFFFFFFFFFFFFFFFFFFFFF NOT AND EQ SWAP1 POP SWAP2 SWAP1 POP JUMP JUMPDEST PUSH0 PUSH2 0x2486 DUP4 DUP4 PUSH2 0xF20 JUMP JUMPDEST PUSH2 0x255A JUMPI PUSH1 0x1 PUSH0 PUSH0 DUP6 DUP2 MSTORE PUSH1 0x20 ADD SWAP1 DUP2 MSTORE PUSH1 0x20 ADD PUSH0 KECCAK256 PUSH0 ADD PUSH0 DUP5 PUSH20 0xFFFFFFFFFFFFFFFFFFFFFFFFFFFFFFFFFFFFFFFF AND PUSH20 0xFFFFFFFFFFFFFFFFFFFFFFFFFFFFFFFFFFFFFFFF AND DUP2 MSTORE PUSH1 0x20 ADD SWAP1 DUP2 MSTORE PUSH1 0x20 ADD PUSH0 KECCAK256 PUSH0 PUSH2 0x100 EXP DUP2 SLOAD DUP2 PUSH1 0xFF MUL NOT AND SWAP1 DUP4 ISZERO ISZERO MUL OR SWAP1 SSTORE POP PUSH2 0x24F7 PUSH2 0x2564 JUMP JUMPDEST PUSH20 0xFFFFFFFFFFFFFFFFFFFFFFFFFFFFFFFFFFFFFFFF AND DUP3 PUSH20 0xFFFFFFFFFFFFFFFFFFFFFFFFFFFFFFFFFFFFFFFF AND DUP5 PUSH32 0x2F8788117E7EFF1D82E926EC794901D17C78024A50270940304540A733656F0D PUSH1 0x40 MLOAD PUSH1 0x40 MLOAD DUP1 SWAP2 SUB SWAP1 LOG4 PUSH1 0x1 SWAP1 POP PUSH2 0x255E JUMP JUMPDEST PUSH0 SWAP1 POP JUMPDEST SWAP3 SWAP2 POP POP JUMP JUMPDEST PUSH0 CALLER SWAP1 POP SWAP1 JUMP JUMPDEST PUSH0 PUSH2 0x2576 DUP4 DUP4 PUSH2 0xF20 JUMP JUMPDEST ISZERO PUSH2 0x264A JUMPI PUSH0 PUSH0 PUSH0 DUP6 DUP2 MSTORE PUSH1 0x20 ADD SWAP1 DUP2 MSTORE PUSH1 0x20 ADD PUSH0 KECCAK256 PUSH0 ADD PUSH0 DUP5 PUSH20 0xFFFFFFFFFFFFFFFFFFFFFFFFFFFFFFFFFFFFFFFF AND PUSH20 0xFFFFFFFFFFFFFFFFFFFFFFFFFFFFFFFFFFFFFFFF AND DUP2 MSTORE PUSH1 0x20 ADD SWAP1 DUP2 MSTORE PUSH1 0x20 ADD PUSH0 KECCAK256 PUSH0 PUSH2 0x100 EXP DUP2 SLOAD DUP2 PUSH1 0xFF MUL NOT AND SWAP1 DUP4 ISZERO ISZERO MUL OR SWAP1 SSTORE POP PUSH2 0x25E7 PUSH2 0x2564 JUMP JUMPDEST PUSH20 0xFFFFFFFFFFFFFFFFFFFFFFFFFFFFFFFFFFFFFFFF AND DUP3 PUSH20 0xFFFFFFFFFFFFFFFFFFFFFFFFFFFFFFFFFFFFFFFF AND DUP5 PUSH32 0xF6391F5C32D9C69D2A47EA670B442974B53935D1EDC7FD64EB21E047A839171B PUSH1 0x40 MLOAD PUSH1 0x40 MLOAD DUP1 SWAP2 SUB SWAP1 LOG4 PUSH1 0x1 SWAP1 POP PUSH2 0x264E JUMP JUMPDEST PUSH0 SWAP1 POP JUMPDEST SWAP3 SWAP2 POP POP JUMP JUMPDEST PUSH2 0x265E DUP3 DUP3 PUSH2 0xF20 JUMP JUMPDEST PUSH2 0x26A1 JUMPI DUP1 DUP3 PUSH1 0x40 MLOAD PUSH32 0xE2517D3F00000000000000000000000000000000000000000000000000000000 DUP2 MSTORE PUSH1 0x4 ADD PUSH2 0x2698 SWAP3 SWAP2 SWAP1 PUSH2 0x3B60 JUMP JUMPDEST PUSH1 0x40 MLOAD DUP1 SWAP2 SUB SWAP1 REVERT JUMPDEST POP POP JUMP JUMPDEST PUSH1 0x40 MLOAD DUP1 PUSH2 0x180 ADD PUSH1 0x40 MSTORE DUP1 PUSH0 DUP2 MSTORE PUSH1 0x20 ADD PUSH0 DUP2 MSTORE PUSH1 0x20 ADD PUSH0 DUP2 MSTORE PUSH1 0x20 ADD PUSH0 DUP2 MSTORE PUSH1 0x20 ADD PUSH0 DUP2 MSTORE PUSH1 0x20 ADD PUSH0 PUSH20 0xFFFFFFFFFFFFFFFFFFFFFFFFFFFFFFFFFFFFFFFF AND DUP2 MSTORE PUSH1 0x20 ADD PUSH0 PUSH20 0xFFFFFFFFFFFFFFFFFFFFFFFFFFFFFFFFFFFFFFFF AND DUP2 MSTORE PUSH1 0x20 ADD PUSH1 0x60 DUP2 MSTORE PUSH1 0x20 ADD PUSH1 0x60 DUP2 MSTORE PUSH1 0x20 ADD PUSH0 ISZERO ISZERO DUP2 MSTORE PUSH1 0x20 ADD PUSH0 DUP2 MSTORE PUSH1 0x20 ADD PUSH0 DUP2 MSTORE POP SWAP1 JUMP JUMPDEST PUSH1 0x40 MLOAD DUP1 PUSH1 0xC0 ADD PUSH1 0x40 MSTORE DUP1 PUSH0 DUP2 MSTORE PUSH1 0x20 ADD PUSH0 DUP2 MSTORE PUSH1 0x20 ADD PUSH0 PUSH20 0xFFFFFFFFFFFFFFFFFFFFFFFFFFFFFFFFFFFFFFFF AND DUP2 MSTORE PUSH1 0x20 ADD PUSH0 ISZERO ISZERO DUP2 MSTORE PUSH1 0x20 ADD PUSH0 DUP2 MSTORE PUSH1 0x20 ADD PUSH0 DUP2 MSTORE POP SWAP1 JUMP JUMPDEST PUSH0 PUSH0 REVERT JUMPDEST PUSH0 PUSH0 REVERT JUMPDEST PUSH0 DUP2 SWAP1 POP SWAP2 SWAP1 POP JUMP JUMPDEST PUSH2 0x278C DUP2 PUSH2 0x277A JUMP JUMPDEST DUP2 EQ PUSH2 0x2796 JUMPI PUSH0 PUSH0 REVERT JUMPDEST POP JUMP JUMPDEST PUSH0 DUP2 CALLDATALOAD SWAP1 POP PUSH2 0x27A7 DUP2 PUSH2 0x2783 JUMP JUMPDEST SWAP3 SWAP2 POP POP JUMP JUMPDEST PUSH0 DUP2 ISZERO ISZERO SWAP1 POP SWAP2 SWAP1 POP JUMP JUMPDEST PUSH2 0x27C1 DUP2 PUSH2 0x27AD JUMP JUMPDEST DUP2 EQ PUSH2 0x27CB JUMPI PUSH0 PUSH0 REVERT JUMPDEST POP JUMP JUMPDEST PUSH0 DUP2 CALLDATALOAD SWAP1 POP PUSH2 0x27DC DUP2 PUSH2 0x27B8 JUMP JUMPDEST SWAP3 SWAP2 POP POP JUMP JUMPDEST PUSH0 PUSH0 PUSH1 0x40 DUP4 DUP6 SUB SLT ISZERO PUSH2 0x27F8 JUMPI PUSH2 0x27F7 PUSH2 0x2772 JUMP JUMPDEST JUMPDEST PUSH0 PUSH2 0x2805 DUP6 DUP3 DUP7 ADD PUSH2 0x2799 JUMP JUMPDEST SWAP3 POP POP PUSH1 0x20 PUSH2 0x2816 DUP6 DUP3 DUP7 ADD PUSH2 0x27CE JUMP JUMPDEST SWAP2 POP POP SWAP3 POP SWAP3 SWAP1 POP JUMP JUMPDEST PUSH0 PUSH32 0xFFFFFFFF00000000000000000000000000000000000000000000000000000000 DUP3 AND SWAP1 POP SWAP2 SWAP1 POP JUMP JUMPDEST PUSH2 0x2854 DUP2 PUSH2 0x2820 JUMP JUMPDEST DUP2 EQ PUSH2 0x285E JUMPI PUSH0 PUSH0 REVERT JUMPDEST POP JUMP JUMPDEST PUSH0 DUP2 CALLDATALOAD SWAP1 POP PUSH2 0x286F DUP2 PUSH2 0x284B JUMP JUMPDEST SWAP3 SWAP2 POP POP JUMP JUMPDEST PUSH0 PUSH1 0x20 DUP3 DUP5 SUB SLT ISZERO PUSH2 0x288A JUMPI PUSH2 0x2889 PUSH2 0x2772 JUMP JUMPDEST JUMPDEST PUSH0 PUSH2 0x2897 DUP5 DUP3 DUP6 ADD PUSH2 0x2861 JUMP JUMPDEST SWAP2 POP POP SWAP3 SWAP2 POP POP JUMP JUMPDEST PUSH2 0x28A9 DUP2 PUSH2 0x27AD JUMP JUMPDEST DUP3 MSTORE POP POP JUMP JUMPDEST PUSH0 PUSH1 0x20 DUP3 ADD SWAP1 POP PUSH2 0x28C2 PUSH0 DUP4 ADD DUP5 PUSH2 0x28A0 JUMP JUMPDEST SWAP3 SWAP2 POP POP JUMP JUMPDEST PUSH0 PUSH20 0xFFFFFFFFFFFFFFFFFFFFFFFFFFFFFFFFFFFFFFFF DUP3 AND SWAP1 POP SWAP2 SWAP1 POP JUMP JUMPDEST PUSH0 PUSH2 0x28F1 DUP3 PUSH2 0x28C8 JUMP JUMPDEST SWAP1 POP SWAP2 SWAP1 POP JUMP JUMPDEST PUSH2 0x2901 DUP2 PUSH2 0x28E7 JUMP JUMPDEST DUP2 EQ PUSH2 0x290B JUMPI PUSH0 PUSH0 REVERT JUMPDEST POP JUMP JUMPDEST PUSH0 DUP2 CALLDATALOAD SWAP1 POP PUSH2 0x291C DUP2 PUSH2 0x28F8 JUMP JUMPDEST SWAP3 SWAP2 POP POP JUMP JUMPDEST PUSH0 PUSH0 PUSH1 0x40 DUP4 DUP6 SUB SLT ISZERO PUSH2 0x2938 JUMPI PUSH2 0x2937 PUSH2 0x2772 JUMP JUMPDEST JUMPDEST PUSH0 PUSH2 0x2945 DUP6 DUP3 DUP7 ADD PUSH2 0x2799 JUMP JUMPDEST SWAP3 POP POP PUSH1 0x20 PUSH2 0x2956 DUP6 DUP3 DUP7 ADD PUSH2 0x290E JUMP JUMPDEST SWAP2 POP POP SWAP3 POP SWAP3 SWAP1 POP JUMP JUMPDEST PUSH0 DUP2 SWAP1 POP SWAP2 SWAP1 POP JUMP JUMPDEST PUSH2 0x2972 DUP2 PUSH2 0x2960 JUMP JUMPDEST DUP2 EQ PUSH2 0x297C JUMPI PUSH0 PUSH0 REVERT JUMPDEST POP JUMP JUMPDEST PUSH0 DUP2 CALLDATALOAD SWAP1 POP PUSH2 0x298D DUP2 PUSH2 0x2969 JUMP JUMPDEST SWAP3 SWAP2 POP POP JUMP JUMPDEST PUSH0 PUSH0 PUSH1 0x40 DUP4 DUP6 SUB SLT ISZERO PUSH2 0x29A9 JUMPI PUSH2 0x29A8 PUSH2 0x2772 JUMP JUMPDEST JUMPDEST PUSH0 PUSH2 0x29B6 DUP6 DUP3 DUP7 ADD PUSH2 0x297F JUMP JUMPDEST SWAP3 POP POP PUSH1 0x20 PUSH2 0x29C7 DUP6 DUP3 DUP7 ADD PUSH2 0x27CE JUMP JUMPDEST SWAP2 POP POP SWAP3 POP SWAP3 SWAP1 POP JUMP JUMPDEST PUSH0 PUSH1 0x20 DUP3 DUP5 SUB SLT ISZERO PUSH2 0x29E6 JUMPI PUSH2 0x29E5 PUSH2 0x2772 JUMP JUMPDEST JUMPDEST PUSH0 PUSH2 0x29F3 DUP5 DUP3 DUP6 ADD PUSH2 0x2799 JUMP JUMPDEST SWAP2 POP POP SWAP3 SWAP2 POP POP JUMP JUMPDEST PUSH2 0x2A05 DUP2 PUSH2 0x277A JUMP JUMPDEST DUP3 MSTORE POP POP JUMP JUMPDEST PUSH0 PUSH1 0x20 DUP3 ADD SWAP1 POP PUSH2 0x2A1E PUSH0 DUP4 ADD DUP5 PUSH2 0x29FC JUMP JUMPDEST SWAP3 SWAP2 POP POP JUMP JUMPDEST PUSH0 PUSH1 0x20 DUP3 DUP5 SUB SLT ISZERO PUSH2 0x2A39 JUMPI PUSH2 0x2A38 PUSH2 0x2772 JUMP JUMPDEST JUMPDEST PUSH0 PUSH2 0x2A46 DUP5 DUP3 DUP6 ADD PUSH2 0x297F JUMP JUMPDEST SWAP2 POP POP SWAP3 SWAP2 POP POP JUMP JUMPDEST PUSH2 0x2A58 DUP2 PUSH2 0x2960 JUMP JUMPDEST DUP3 MSTORE POP POP JUMP JUMPDEST PUSH0 PUSH1 0x20 DUP3 ADD SWAP1 POP PUSH2 0x2A71 PUSH0 DUP4 ADD DUP5 PUSH2 0x2A4F JUMP JUMPDEST SWAP3 SWAP2 POP POP JUMP JUMPDEST PUSH0 PUSH0 PUSH1 0x40 DUP4 DUP6 SUB SLT ISZERO PUSH2 0x2A8D JUMPI PUSH2 0x2A8C PUSH2 0x2772 JUMP JUMPDEST JUMPDEST PUSH0 PUSH2 0x2A9A DUP6 DUP3 DUP7 ADD PUSH2 0x297F JUMP JUMPDEST SWAP3 POP POP PUSH1 0x20 PUSH2 0x2AAB DUP6 DUP3 DUP7 ADD PUSH2 0x290E JUMP JUMPDEST SWAP2 POP POP SWAP3 POP SWAP3 SWAP1 POP JUMP JUMPDEST PUSH0 DUP2 SWAP1 POP SWAP2 SWAP1 POP JUMP JUMPDEST PUSH0 PUSH2 0x2AD8 PUSH2 0x2AD3 PUSH2 0x2ACE DUP5 PUSH2 0x28C8 JUMP JUMPDEST PUSH2 0x2AB5 JUMP JUMPDEST PUSH2 0x28C8 JUMP JUMPDEST SWAP1 POP SWAP2 SWAP1 POP JUMP JUMPDEST PUSH0 PUSH2 0x2AE9 DUP3 PUSH2 0x2ABE JUMP JUMPDEST SWAP1 POP SWAP2 SWAP1 POP JUMP JUMPDEST PUSH0 PUSH2 0x2AFA DUP3 PUSH2 0x2ADF JUMP JUMPDEST SWAP1 POP SWAP2 SWAP1 POP JUMP JUMPDEST PUSH2 0x2B0A DUP2 PUSH2 0x2AF0 JUMP JUMPDEST DUP3 MSTORE POP POP JUMP JUMPDEST PUSH0 PUSH1 0x20 DUP3 ADD SWAP1 POP PUSH2 0x2B23 PUSH0 DUP4 ADD DUP5 PUSH2 0x2B01 JUMP JUMPDEST SWAP3 SWAP2 POP POP JUMP JUMPDEST PUSH2 0x2B32 DUP2 PUSH2 0x277A JUMP JUMPDEST DUP3 MSTORE POP POP JUMP JUMPDEST PUSH2 0x2B41 DUP2 PUSH2 0x2960 JUMP JUMPDEST DUP3 MSTORE POP POP JUMP JUMPDEST PUSH2 0x2B50 DUP2 PUSH2 0x28E7 JUMP JUMPDEST DUP3 MSTORE POP POP JUMP JUMPDEST PUSH0 DUP2 MLOAD SWAP1 POP SWAP2 SWAP1 POP JUMP JUMPDEST PUSH0 DUP3 DUP3 MSTORE PUSH1 0x20 DUP3 ADD SWAP1 POP SWAP3 SWAP2 POP POP JUMP JUMPDEST DUP3 DUP2 DUP4 MCOPY PUSH0 DUP4 DUP4 ADD MSTORE POP POP POP JUMP JUMPDEST PUSH0 PUSH1 0x1F NOT PUSH1 0x1F DUP4 ADD AND SWAP1 POP SWAP2 SWAP1 POP JUMP JUMPDEST PUSH0 PUSH2 0x2B98 DUP3 PUSH2 0x2B56 JUMP JUMPDEST PUSH2 0x2BA2 DUP2 DUP6 PUSH2 0x2B60 JUMP JUMPDEST SWAP4 POP PUSH2 0x2BB2 DUP2 DUP6 PUSH1 0x20 DUP7 ADD PUSH2 0x2B70 JUMP JUMPDEST PUSH2 0x2BBB DUP2 PUSH2 0x2B7E JUMP JUMPDEST DUP5 ADD SWAP2 POP POP SWAP3 SWAP2 POP POP JUMP JUMPDEST PUSH2 0x2BCF DUP2 PUSH2 0x27AD JUMP JUMPDEST DUP3 MSTORE POP POP JUMP JUMPDEST PUSH0 PUSH2 0x180 DUP4 ADD PUSH0 DUP4 ADD MLOAD PUSH2 0x2BEB PUSH0 DUP7 ADD DUP3 PUSH2 0x2B29 JUMP JUMPDEST POP PUSH1 0x20 DUP4 ADD MLOAD PUSH2 0x2BFE PUSH1 0x20 DUP7 ADD DUP3 PUSH2 0x2B38 JUMP JUMPDEST POP PUSH1 0x40 DUP4 ADD MLOAD PUSH2 0x2C11 PUSH1 0x40 DUP7 ADD DUP3 PUSH2 0x2B38 JUMP JUMPDEST POP PUSH1 0x60 DUP4 ADD MLOAD PUSH2 0x2C24 PUSH1 0x60 DUP7 ADD DUP3 PUSH2 0x2B38 JUMP JUMPDEST POP PUSH1 0x80 DUP4 ADD MLOAD PUSH2 0x2C37 PUSH1 0x80 DUP7 ADD DUP3 PUSH2 0x2B29 JUMP JUMPDEST POP PUSH1 0xA0 DUP4 ADD MLOAD PUSH2 0x2C4A PUSH1 0xA0 DUP7 ADD DUP3 PUSH2 0x2B47 JUMP JUMPDEST POP PUSH1 0xC0 DUP4 ADD MLOAD PUSH2 0x2C5D PUSH1 0xC0 DUP7 ADD DUP3 PUSH2 0x2B47 JUMP JUMPDEST POP PUSH1 0xE0 DUP4 ADD MLOAD DUP5 DUP3 SUB PUSH1 0xE0 DUP7 ADD MSTORE PUSH2 0x2C75 DUP3 DUP3 PUSH2 0x2B8E JUMP JUMPDEST SWAP2 POP POP PUSH2 0x100 DUP4 ADD MLOAD DUP5 DUP3 SUB PUSH2 0x100 DUP7 ADD MSTORE PUSH2 0x2C91 DUP3 DUP3 PUSH2 0x2B8E JUMP JUMPDEST SWAP2 POP POP PUSH2 0x120 DUP4 ADD MLOAD PUSH2 0x2CA8 PUSH2 0x120 DUP7 ADD DUP3 PUSH2 0x2BC6 JUMP JUMPDEST POP PUSH2 0x140 DUP4 ADD MLOAD PUSH2 0x2CBD PUSH2 0x140 DUP7 ADD DUP3 PUSH2 0x2B29 JUMP JUMPDEST POP PUSH2 0x160 DUP4 ADD MLOAD PUSH2 0x2CD2 PUSH2 0x160 DUP7 ADD DUP3 PUSH2 0x2B29 JUMP JUMPDEST POP DUP1 SWAP2 POP POP SWAP3 SWAP2 POP POP JUMP JUMPDEST PUSH0 PUSH1 0x20 DUP3 ADD SWAP1 POP DUP2 DUP2 SUB PUSH0 DUP4 ADD MSTORE PUSH2 0x2CF5 DUP2 DUP5 PUSH2 0x2BD5 JUMP JUMPDEST SWAP1 POP SWAP3 SWAP2 POP POP JUMP JUMPDEST PUSH0 PUSH1 0x20 DUP3 DUP5 SUB SLT ISZERO PUSH2 0x2D12 JUMPI PUSH2 0x2D11 PUSH2 0x2772 JUMP JUMPDEST JUMPDEST PUSH0 PUSH2 0x2D1F DUP5 DUP3 DUP6 ADD PUSH2 0x290E JUMP JUMPDEST SWAP2 POP POP SWAP3 SWAP2 POP POP JUMP JUMPDEST PUSH1 0xC0 DUP3 ADD PUSH0 DUP3 ADD MLOAD PUSH2 0x2D3C PUSH0 DUP6 ADD DUP3 PUSH2 0x2B38 JUMP JUMPDEST POP PUSH1 0x20 DUP3 ADD MLOAD PUSH2 0x2D4F PUSH1 0x20 DUP6 ADD DUP3 PUSH2 0x2B38 JUMP JUMPDEST POP PUSH1 0x40 DUP3 ADD MLOAD PUSH2 0x2D62 PUSH1 0x40 DUP6 ADD DUP3 PUSH2 0x2B47 JUMP JUMPDEST POP PUSH1 0x60 DUP3 ADD MLOAD PUSH2 0x2D75 PUSH1 0x60 DUP6 ADD DUP3 PUSH2 0x2BC6 JUMP JUMPDEST POP PUSH1 0x80 DUP3 ADD MLOAD PUSH2 0x2D88 PUSH1 0x80 DUP6 ADD DUP3 PUSH2 0x2B29 JUMP JUMPDEST POP PUSH1 0xA0 DUP3 ADD MLOAD PUSH2 0x2D9B PUSH1 0xA0 DUP6 ADD DUP3 PUSH2 0x2B29 JUMP JUMPDEST POP POP POP POP JUMP JUMPDEST PUSH0 PUSH1 0xC0 DUP3 ADD SWAP1 POP PUSH2 0x2DB4 PUSH0 DUP4 ADD DUP5 PUSH2 0x2D28 JUMP JUMPDEST SWAP3 SWAP2 POP POP JUMP JUMPDEST PUSH0 PUSH0 REVERT JUMPDEST PUSH0 PUSH0 REVERT JUMPDEST PUSH0 PUSH0 REVERT JUMPDEST PUSH0 PUSH0 DUP4 PUSH1 0x1F DUP5 ADD SLT PUSH2 0x2DDB JUMPI PUSH2 0x2DDA PUSH2 0x2DBA JUMP JUMPDEST JUMPDEST DUP3 CALLDATALOAD SWAP1 POP PUSH8 0xFFFFFFFFFFFFFFFF DUP2 GT ISZERO PUSH2 0x2DF8 JUMPI PUSH2 0x2DF7 PUSH2 0x2DBE JUMP JUMPDEST JUMPDEST PUSH1 0x20 DUP4 ADD SWAP2 POP DUP4 PUSH1 0x1 DUP3 MUL DUP4 ADD GT ISZERO PUSH2 0x2E14 JUMPI PUSH2 0x2E13 PUSH2 0x2DC2 JUMP JUMPDEST JUMPDEST SWAP3 POP SWAP3 SWAP1 POP JUMP JUMPDEST PUSH0 PUSH0 PUSH0 PUSH0 PUSH0 PUSH1 0x80 DUP7 DUP9 SUB SLT ISZERO PUSH2 0x2E34 JUMPI PUSH2 0x2E33 PUSH2 0x2772 JUMP JUMPDEST JUMPDEST PUSH0 PUSH2 0x2E41 DUP9 DUP3 DUP10 ADD PUSH2 0x2799 JUMP JUMPDEST SWAP6 POP POP PUSH1 0x20 PUSH2 0x2E52 DUP9 DUP3 DUP10 ADD PUSH2 0x297F JUMP JUMPDEST SWAP5 POP POP PUSH1 0x40 PUSH2 0x2E63 DUP9 DUP3 DUP10 ADD PUSH2 0x297F JUMP JUMPDEST SWAP4 POP POP PUSH1 0x60 DUP7 ADD CALLDATALOAD PUSH8 0xFFFFFFFFFFFFFFFF DUP2 GT ISZERO PUSH2 0x2E84 JUMPI PUSH2 0x2E83 PUSH2 0x2776 JUMP JUMPDEST JUMPDEST PUSH2 0x2E90 DUP9 DUP3 DUP10 ADD PUSH2 0x2DC6 JUMP JUMPDEST SWAP3 POP SWAP3 POP POP SWAP3 SWAP6 POP SWAP3 SWAP6 SWAP1 SWAP4 POP JUMP JUMPDEST PUSH0 PUSH0 PUSH0 PUSH0 PUSH0 PUSH0 PUSH0 PUSH0 PUSH1 0xC0 DUP10 DUP12 SUB SLT ISZERO PUSH2 0x2EBB JUMPI PUSH2 0x2EBA PUSH2 0x2772 JUMP JUMPDEST JUMPDEST PUSH0 PUSH2 0x2EC8 DUP12 DUP3 DUP13 ADD PUSH2 0x297F JUMP JUMPDEST SWAP9 POP POP PUSH1 0x20 PUSH2 0x2ED9 DUP12 DUP3 DUP13 ADD PUSH2 0x290E JUMP JUMPDEST SWAP8 POP POP PUSH1 0x40 PUSH2 0x2EEA DUP12 DUP3 DUP13 ADD PUSH2 0x297F JUMP JUMPDEST SWAP7 POP POP PUSH1 0x60 PUSH2 0x2EFB DUP12 DUP3 DUP13 ADD PUSH2 0x297F JUMP JUMPDEST SWAP6 POP POP PUSH1 0x80 DUP10 ADD CALLDATALOAD PUSH8 0xFFFFFFFFFFFFFFFF DUP2 GT ISZERO PUSH2 0x2F1C JUMPI PUSH2 0x2F1B PUSH2 0x2776 JUMP JUMPDEST JUMPDEST PUSH2 0x2F28 DUP12 DUP3 DUP13 ADD PUSH2 0x2DC6 JUMP JUMPDEST SWAP5 POP SWAP5 POP POP PUSH1 0xA0 DUP10 ADD CALLDATALOAD PUSH8 0xFFFFFFFFFFFFFFFF DUP2 GT ISZERO PUSH2 0x2F4B JUMPI PUSH2 0x2F4A PUSH2 0x2776 JUMP JUMPDEST JUMPDEST PUSH2 0x2F57 DUP12 DUP3 DUP13 ADD PUSH2 0x2DC6 JUMP JUMPDEST SWAP3 POP SWAP3 POP POP SWAP3 SWAP6 SWAP9 POP SWAP3 SWAP6 SWAP9 SWAP1 SWAP4 SWAP7 POP JUMP JUMPDEST PUSH0 PUSH1 0x40 DUP3 ADD SWAP1 POP PUSH2 0x2F7C PUSH0 DUP4 ADD DUP6 PUSH2 0x29FC JUMP JUMPDEST PUSH2 0x2F89 PUSH1 0x20 DUP4 ADD DUP5 PUSH2 0x29FC JUMP JUMPDEST SWAP4 SWAP3 POP POP POP JUMP JUMPDEST PUSH2 0x2F99 DUP2 PUSH2 0x28E7 JUMP JUMPDEST DUP3 MSTORE POP POP JUMP JUMPDEST PUSH0 PUSH1 0x20 DUP3 ADD SWAP1 POP PUSH2 0x2FB2 PUSH0 DUP4 ADD DUP5 PUSH2 0x2F90 JUMP JUMPDEST SWAP3 SWAP2 POP POP JUMP JUMPDEST PUSH0 PUSH0 PUSH1 0x40 DUP4 DUP6 SUB SLT ISZERO PUSH2 0x2FCE JUMPI PUSH2 0x2FCD PUSH2 0x2772 JUMP JUMPDEST JUMPDEST PUSH0 PUSH2 0x2FDB DUP6 DUP3 DUP7 ADD PUSH2 0x297F JUMP JUMPDEST SWAP3 POP POP PUSH1 0x20 PUSH2 0x2FEC DUP6 DUP3 DUP7 ADD PUSH2 0x297F JUMP JUMPDEST SWAP2 POP POP SWAP3 POP SWAP3 SWAP1 POP JUMP JUMPDEST PUSH0 PUSH0 PUSH0 PUSH0 PUSH1 0x80 DUP6 DUP8 SUB SLT ISZERO PUSH2 0x300E JUMPI PUSH2 0x300D PUSH2 0x2772 JUMP JUMPDEST JUMPDEST PUSH0 PUSH2 0x301B DUP8 DUP3 DUP9 ADD PUSH2 0x297F JUMP JUMPDEST SWAP5 POP POP PUSH1 0x20 PUSH2 0x302C DUP8 DUP3 DUP9 ADD PUSH2 0x290E JUMP JUMPDEST SWAP4 POP POP PUSH1 0x40 PUSH2 0x303D DUP8 DUP3 DUP9 ADD PUSH2 0x2799 JUMP JUMPDEST SWAP3 POP POP PUSH1 0x60 PUSH2 0x304E DUP8 DUP3 DUP9 ADD PUSH2 0x27CE JUMP JUMPDEST SWAP2 POP POP SWAP3 SWAP6 SWAP2 SWAP5 POP SWAP3 POP JUMP JUMPDEST PUSH0 PUSH0 PUSH0 PUSH1 0x40 DUP5 DUP7 SUB SLT ISZERO PUSH2 0x3071 JUMPI PUSH2 0x3070 PUSH2 0x2772 JUMP JUMPDEST JUMPDEST PUSH0 PUSH2 0x307E DUP7 DUP3 DUP8 ADD PUSH2 0x2799 JUMP JUMPDEST SWAP4 POP POP PUSH1 0x20 DUP5 ADD CALLDATALOAD PUSH8 0xFFFFFFFFFFFFFFFF DUP2 GT ISZERO PUSH2 0x309F JUMPI PUSH2 0x309E PUSH2 0x2776 JUMP JUMPDEST JUMPDEST PUSH2 0x30AB DUP7 DUP3 DUP8 ADD PUSH2 0x2DC6 JUMP JUMPDEST SWAP3 POP SWAP3 POP POP SWAP3 POP SWAP3 POP SWAP3 JUMP JUMPDEST PUSH0 DUP3 DUP3 MSTORE PUSH1 0x20 DUP3 ADD SWAP1 POP SWAP3 SWAP2 POP POP JUMP JUMPDEST PUSH32 0x50524F50455254595F4E4F545F464F554E440000000000000000000000000000 PUSH0 DUP3 ADD MSTORE POP JUMP JUMPDEST PUSH0 PUSH2 0x30FB PUSH1 0x12 DUP4 PUSH2 0x30B7 JUMP JUMPDEST SWAP2 POP PUSH2 0x3106 DUP3 PUSH2 0x30C7 JUMP JUMPDEST PUSH1 0x20 DUP3 ADD SWAP1 POP SWAP2 SWAP1 POP JUMP JUMPDEST PUSH0 PUSH1 0x20 DUP3 ADD SWAP1 POP DUP2 DUP2 SUB PUSH0 DUP4 ADD MSTORE PUSH2 0x3128 DUP2 PUSH2 0x30EF JUMP JUMPDEST SWAP1 POP SWAP2 SWAP1 POP JUMP JUMPDEST PUSH32 0x504552534F4E5F4E4F545F464F554E4400000000000000000000000000000000 PUSH0 DUP3 ADD MSTORE POP JUMP JUMPDEST PUSH0 PUSH2 0x3163 PUSH1 0x10 DUP4 PUSH2 0x30B7 JUMP JUMPDEST SWAP2 POP PUSH2 0x316E DUP3 PUSH2 0x312F JUMP JUMPDEST PUSH1 0x20 DUP3 ADD SWAP1 POP SWAP2 SWAP1 POP JUMP JUMPDEST PUSH0 PUSH1 0x20 DUP3 ADD SWAP1 POP DUP2 DUP2 SUB PUSH0 DUP4 ADD MSTORE PUSH2 0x3190 DUP2 PUSH2 0x3157 JUMP JUMPDEST SWAP1 POP SWAP2 SWAP1 POP JUMP JUMPDEST PUSH32 0x4E487B7100000000000000000000000000000000000000000000000000000000 PUSH0 MSTORE PUSH1 0x22 PUSH1 0x4 MSTORE PUSH1 0x24 PUSH0 REVERT JUMPDEST PUSH0 PUSH1 0x2 DUP3 DIV SWAP1 POP PUSH1 0x1 DUP3 AND DUP1 PUSH2 0x31DB JUMPI PUSH1 0x7F DUP3 AND SWAP2 POP JUMPDEST PUSH1 0x20 DUP3 LT DUP2 SUB PUSH2 0x31EE JUMPI PUSH2 0x31ED PUSH2 0x3197 JUMP JUMPDEST JUMPDEST POP SWAP2 SWAP1 POP JUMP JUMPDEST PUSH32 0x57414C4C45545F52455155495245440000000000000000000000000000000000 PUSH0 DUP3 ADD MSTORE POP JUMP JUMPDEST PUSH0 PUSH2 0x3228 PUSH1 0xF DUP4 PUSH2 0x30B7 JUMP JUMPDEST SWAP2 POP PUSH2 0x3233 DUP3 PUSH2 0x31F4 JUMP JUMPDEST PUSH1 0x20 DUP3 ADD SWAP1 POP SWAP2 SWAP1 POP JUMP JUMPDEST PUSH0 PUSH1 0x20 DUP3 ADD SWAP1 POP DUP2 DUP2 SUB PUSH0 DUP4 ADD MSTORE PUSH2 0x3255 DUP2 PUSH2 0x321C JUMP JUMPDEST SWAP1 POP SWAP2 SWAP1 POP JUMP JUMPDEST PUSH32 0x57414C4C45545F55534544000000000000000000000000000000000000000000 PUSH0 DUP3 ADD MSTORE POP JUMP JUMPDEST PUSH0 PUSH2 0x3290 PUSH1 0xB DUP4 PUSH2 0x30B7 JUMP JUMPDEST SWAP2 POP PUSH2 0x329B DUP3 PUSH2 0x325C JUMP JUMPDEST PUSH1 0x20 DUP3 ADD SWAP1 POP SWAP2 SWAP1 POP JUMP JUMPDEST PUSH0 PUSH1 0x20 DUP3 ADD SWAP1 POP DUP2 DUP2 SUB PUSH0 DUP4 ADD MSTORE PUSH2 0x32BD DUP2 PUSH2 0x3284 JUMP JUMPDEST SWAP1 POP SWAP2 SWAP1 POP JUMP JUMPDEST PUSH32 0x4C4F434154494F4E5F5245515549524544000000000000000000000000000000 PUSH0 DUP3 ADD MSTORE POP JUMP JUMPDEST PUSH0 PUSH2 0x32F8 PUSH1 0x11 DUP4 PUSH2 0x30B7 JUMP JUMPDEST SWAP2 POP PUSH2 0x3303 DUP3 PUSH2 0x32C4 JUMP JUMPDEST PUSH1 0x20 DUP3 ADD SWAP1 POP SWAP2 SWAP1 POP JUMP JUMPDEST PUSH0 PUSH1 0x20 DUP3 ADD SWAP1 POP DUP2 DUP2 SUB PUSH0 DUP4 ADD MSTORE PUSH2 0x3325 DUP2 PUSH2 0x32EC JUMP JUMPDEST SWAP1 POP SWAP2 SWAP1 POP JUMP JUMPDEST PUSH0 DUP3 SWAP1 POP SWAP3 SWAP2 POP POP JUMP JUMPDEST PUSH32 0x4E487B7100000000000000000000000000000000000000000000000000000000 PUSH0 MSTORE PUSH1 0x41 PUSH1 0x4 MSTORE PUSH1 0x24 PUSH0 REVERT JUMPDEST PUSH0 DUP2 SWAP1 POP DUP2 PUSH0 MSTORE PUSH1 0x20 PUSH0 KECCAK256 SWAP1 POP SWAP2 SWAP1 POP JUMP JUMPDEST PUSH0 PUSH1 0x20 PUSH1 0x1F DUP4 ADD DIV SWAP1 POP SWAP2 SWAP1 POP JUMP JUMPDEST PUSH0 DUP3 DUP3 SHL SWAP1 POP SWAP3 SWAP2 POP POP JUMP JUMPDEST PUSH0 PUSH1 0x8 DUP4 MUL PUSH2 0x33BF PUSH32 0xFFFFFFFFFFFFFFFFFFFFFFFFFFFFFFFFFFFFFFFFFFFFFFFFFFFFFFFFFFFFFFFF DUP3 PUSH2 0x3384 JUMP JUMPDEST PUSH2 0x33C9 DUP7 DUP4 PUSH2 0x3384 JUMP JUMPDEST SWAP6 POP DUP1 NOT DUP5 AND SWAP4 POP DUP1 DUP7 AND DUP5 OR SWAP3 POP POP POP SWAP4 SWAP3 POP POP POP JUMP JUMPDEST PUSH0 PUSH2 0x33FB PUSH2 0x33F6 PUSH2 0x33F1 DUP5 PUSH2 0x277A JUMP JUMPDEST PUSH2 0x2AB5 JUMP JUMPDEST PUSH2 0x277A JUMP JUMPDEST SWAP1 POP SWAP2 SWAP1 POP JUMP JUMPDEST PUSH0 DUP2 SWAP1 POP SWAP2 SWAP1 POP JUMP JUMPDEST PUSH2 0x3414 DUP4 PUSH2 0x33E1 JUMP JUMPDEST PUSH2 0x3428 PUSH2 0x3420 DUP3 PUSH2 0x3402 JUMP JUMPDEST DUP5 DUP5 SLOAD PUSH2 0x3390 JUMP JUMPDEST DUP3 SSTORE POP POP POP POP JUMP JUMPDEST PUSH0 PUSH0 SWAP1 POP SWAP1 JUMP JUMPDEST PUSH2 0x343F PUSH2 0x3430 JUMP JUMPDEST PUSH2 0x344A DUP2 DUP5 DUP5 PUSH2 0x340B JUMP JUMPDEST POP POP POP JUMP JUMPDEST JUMPDEST DUP2 DUP2 LT ISZERO PUSH2 0x346D JUMPI PUSH2 0x3462 PUSH0 DUP3 PUSH2 0x3437 JUMP JUMPDEST PUSH1 0x1 DUP2 ADD SWAP1 POP PUSH2 0x3450 JUMP JUMPDEST POP POP JUMP JUMPDEST PUSH1 0x1F DUP3 GT ISZERO PUSH2 0x34B2 JUMPI PUSH2 0x3483 DUP2 PUSH2 0x3363 JUMP JUMPDEST PUSH2 0x348C DUP5 PUSH2 0x3375 JUMP JUMPDEST DUP2 ADD PUSH1 0x20 DUP6 LT ISZERO PUSH2 0x349B JUMPI DUP2 SWAP1 POP JUMPDEST PUSH2 0x34AF PUSH2 0x34A7 DUP6 PUSH2 0x3375 JUMP JUMPDEST DUP4 ADD DUP3 PUSH2 0x344F JUMP JUMPDEST POP POP JUMPDEST POP POP POP JUMP JUMPDEST PUSH0 DUP3 DUP3 SHR SWAP1 POP SWAP3 SWAP2 POP POP JUMP JUMPDEST PUSH0 PUSH2 0x34D2 PUSH0 NOT DUP5 PUSH1 0x8 MUL PUSH2 0x34B7 JUMP JUMPDEST NOT DUP1 DUP4 AND SWAP2 POP POP SWAP3 SWAP2 POP POP JUMP JUMPDEST PUSH0 PUSH2 0x34EA DUP4 DUP4 PUSH2 0x34C3 JUMP JUMPDEST SWAP2 POP DUP3 PUSH1 0x2 MUL DUP3 OR SWAP1 POP SWAP3 SWAP2 POP POP JUMP JUMPDEST PUSH2 0x3504 DUP4 DUP4 PUSH2 0x332C JUMP JUMPDEST PUSH8 0xFFFFFFFFFFFFFFFF DUP2 GT ISZERO PUSH2 0x351D JUMPI PUSH2 0x351C PUSH2 0x3336 JUMP JUMPDEST JUMPDEST PUSH2 0x3527 DUP3 SLOAD PUSH2 0x31C4 JUMP JUMPDEST PUSH2 0x3532 DUP3 DUP3 DUP6 PUSH2 0x3471 JUMP JUMPDEST PUSH0 PUSH1 0x1F DUP4 GT PUSH1 0x1 DUP2 EQ PUSH2 0x355F JUMPI PUSH0 DUP5 ISZERO PUSH2 0x354D JUMPI DUP3 DUP8 ADD CALLDATALOAD SWAP1 POP JUMPDEST PUSH2 0x3557 DUP6 DUP3 PUSH2 0x34DF JUMP JUMPDEST DUP7 SSTORE POP PUSH2 0x35BE JUMP JUMPDEST PUSH1 0x1F NOT DUP5 AND PUSH2 0x356D DUP7 PUSH2 0x3363 JUMP JUMPDEST PUSH0 JUMPDEST DUP3 DUP2 LT ISZERO PUSH2 0x3594 JUMPI DUP5 DUP10 ADD CALLDATALOAD DUP3 SSTORE PUSH1 0x1 DUP3 ADD SWAP2 POP PUSH1 0x20 DUP6 ADD SWAP5 POP PUSH1 0x20 DUP2 ADD SWAP1 POP PUSH2 0x356F JUMP JUMPDEST DUP7 DUP4 LT ISZERO PUSH2 0x35B1 JUMPI DUP5 DUP10 ADD CALLDATALOAD PUSH2 0x35AD PUSH1 0x1F DUP10 AND DUP3 PUSH2 0x34C3 JUMP JUMPDEST DUP4 SSTORE POP JUMPDEST PUSH1 0x1 PUSH1 0x2 DUP9 MUL ADD DUP9 SSTORE POP POP POP JUMPDEST POP POP POP POP POP POP POP JUMP JUMPDEST DUP3 DUP2 DUP4 CALLDATACOPY PUSH0 DUP4 DUP4 ADD MSTORE POP POP POP JUMP JUMPDEST PUSH0 PUSH2 0x35E0 DUP4 DUP6 PUSH2 0x30B7 JUMP JUMPDEST SWAP4 POP PUSH2 0x35ED DUP4 DUP6 DUP5 PUSH2 0x35C7 JUMP JUMPDEST PUSH2 0x35F6 DUP4 PUSH2 0x2B7E JUMP JUMPDEST DUP5 ADD SWAP1 POP SWAP4 SWAP3 POP POP POP JUMP JUMPDEST PUSH0 PUSH1 0x60 DUP3 ADD SWAP1 POP PUSH2 0x3614 PUSH0 DUP4 ADD DUP8 PUSH2 0x2A4F JUMP JUMPDEST PUSH2 0x3621 PUSH1 0x20 DUP4 ADD DUP7 PUSH2 0x2A4F JUMP JUMPDEST DUP2 DUP2 SUB PUSH1 0x40 DUP4 ADD MSTORE PUSH2 0x3634 DUP2 DUP5 DUP7 PUSH2 0x35D5 JUMP JUMPDEST SWAP1 POP SWAP6 SWAP5 POP POP POP POP POP JUMP JUMPDEST PUSH32 0x50524F50455254595F49445F5245515549524544000000000000000000000000 PUSH0 DUP3 ADD MSTORE POP JUMP JUMPDEST PUSH0 PUSH2 0x3673 PUSH1 0x14 DUP4 PUSH2 0x30B7 JUMP JUMPDEST SWAP2 POP PUSH2 0x367E DUP3 PUSH2 0x363F JUMP JUMPDEST PUSH1 0x20 DUP3 ADD SWAP1 POP SWAP2 SWAP1 POP JUMP JUMPDEST PUSH0 PUSH1 0x20 DUP3 ADD SWAP1 POP DUP2 DUP2 SUB PUSH0 DUP4 ADD MSTORE PUSH2 0x36A0 DUP2 PUSH2 0x3667 JUMP JUMPDEST SWAP1 POP SWAP2 SWAP1 POP JUMP JUMPDEST PUSH32 0x50524F50455254595F4558495354530000000000000000000000000000000000 PUSH0 DUP3 ADD MSTORE POP JUMP JUMPDEST PUSH0 PUSH2 0x36DB PUSH1 0xF DUP4 PUSH2 0x30B7 JUMP JUMPDEST SWAP2 POP PUSH2 0x36E6 DUP3 PUSH2 0x36A7 JUMP JUMPDEST PUSH1 0x20 DUP3 ADD SWAP1 POP SWAP2 SWAP1 POP JUMP JUMPDEST PUSH0 PUSH1 0x20 DUP3 ADD SWAP1 POP DUP2 DUP2 SUB PUSH0 DUP4 ADD MSTORE PUSH2 0x3708 DUP2 PUSH2 0x36CF JUMP JUMPDEST SWAP1 POP SWAP2 SWAP1 POP JUMP JUMPDEST PUSH32 0x4F574E45525F4E4F545F56455249464945440000000000000000000000000000 PUSH0 DUP3 ADD MSTORE POP JUMP JUMPDEST PUSH0 PUSH2 0x3743 PUSH1 0x12 DUP4 PUSH2 0x30B7 JUMP JUMPDEST SWAP2 POP PUSH2 0x374E DUP3 PUSH2 0x370F JUMP JUMPDEST PUSH1 0x20 DUP3 ADD SWAP1 POP SWAP2 SWAP1 POP JUMP JUMPDEST PUSH0 PUSH1 0x20 DUP3 ADD SWAP1 POP DUP2 DUP2 SUB PUSH0 DUP4 ADD MSTORE PUSH2 0x3770 DUP2 PUSH2 0x3737 JUMP JUMPDEST SWAP1 POP SWAP2 SWAP1 POP JUMP JUMPDEST PUSH32 0x43455254494649434154455F5552495F52455155495245440000000000000000 PUSH0 DUP3 ADD MSTORE POP JUMP JUMPDEST PUSH0 PUSH2 0x37AB PUSH1 0x18 DUP4 PUSH2 0x30B7 JUMP JUMPDEST SWAP2 POP PUSH2 0x37B6 DUP3 PUSH2 0x3777 JUMP JUMPDEST PUSH1 0x20 DUP3 ADD SWAP1 POP SWAP2 SWAP1 POP JUMP JUMPDEST PUSH0 PUSH1 0x20 DUP3 ADD SWAP1 POP DUP2 DUP2 SUB PUSH0 DUP4 ADD MSTORE PUSH2 0x37D8 DUP2 PUSH2 0x379F JUMP JUMPDEST SWAP1 POP SWAP2 SWAP1 POP JUMP JUMPDEST PUSH32 0x4E487B7100000000000000000000000000000000000000000000000000000000 PUSH0 MSTORE PUSH1 0x11 PUSH1 0x4 MSTORE PUSH1 0x24 PUSH0 REVERT JUMPDEST PUSH0 PUSH2 0x3816 DUP3 PUSH2 0x277A JUMP JUMPDEST SWAP2 POP PUSH32 0xFFFFFFFFFFFFFFFFFFFFFFFFFFFFFFFFFFFFFFFFFFFFFFFFFFFFFFFFFFFFFFFF DUP3 SUB PUSH2 0x3848 JUMPI PUSH2 0x3847 PUSH2 0x37DF JUMP JUMPDEST JUMPDEST PUSH1 0x1 DUP3 ADD SWAP1 POP SWAP2 SWAP1 POP JUMP JUMPDEST PUSH2 0x385C DUP3 PUSH2 0x2B56 JUMP JUMPDEST PUSH8 0xFFFFFFFFFFFFFFFF DUP2 GT ISZERO PUSH2 0x3875 JUMPI PUSH2 0x3874 PUSH2 0x3336 JUMP JUMPDEST JUMPDEST PUSH2 0x387F DUP3 SLOAD PUSH2 0x31C4 JUMP JUMPDEST PUSH2 0x388A DUP3 DUP3 DUP6 PUSH2 0x3471 JUMP JUMPDEST PUSH0 PUSH1 0x20 SWAP1 POP PUSH1 0x1F DUP4 GT PUSH1 0x1 DUP2 EQ PUSH2 0x38BB JUMPI PUSH0 DUP5 ISZERO PUSH2 0x38A9 JUMPI DUP3 DUP8 ADD MLOAD SWAP1 POP JUMPDEST PUSH2 0x38B3 DUP6 DUP3 PUSH2 0x34DF JUMP JUMPDEST DUP7 SSTORE POP PUSH2 0x391A JUMP JUMPDEST PUSH1 0x1F NOT DUP5 AND PUSH2 0x38C9 DUP7 PUSH2 0x3363 JUMP JUMPDEST PUSH0 JUMPDEST DUP3 DUP2 LT ISZERO PUSH2 0x38F0 JUMPI DUP5 DUP10 ADD MLOAD DUP3 SSTORE PUSH1 0x1 DUP3 ADD SWAP2 POP PUSH1 0x20 DUP6 ADD SWAP5 POP PUSH1 0x20 DUP2 ADD SWAP1 POP PUSH2 0x38CB JUMP JUMPDEST DUP7 DUP4 LT ISZERO PUSH2 0x390D JUMPI DUP5 DUP10 ADD MLOAD PUSH2 0x3909 PUSH1 0x1F DUP10 AND DUP3 PUSH2 0x34C3 JUMP JUMPDEST DUP4 SSTORE POP JUMPDEST PUSH1 0x1 PUSH1 0x2 DUP9 MUL ADD DUP9 SSTORE POP POP POP JUMPDEST POP POP POP POP POP POP JUMP JUMPDEST PUSH0 PUSH1 0x80 DUP3 ADD SWAP1 POP PUSH2 0x3935 PUSH0 DUP4 ADD DUP9 PUSH2 0x2F90 JUMP JUMPDEST PUSH2 0x3942 PUSH1 0x20 DUP4 ADD DUP8 PUSH2 0x29FC JUMP JUMPDEST PUSH2 0x394F PUSH1 0x40 DUP4 ADD DUP7 PUSH2 0x29FC JUMP JUMPDEST DUP2 DUP2 SUB PUSH1 0x60 DUP4 ADD MSTORE PUSH2 0x3962 DUP2 DUP5 DUP7 PUSH2 0x35D5 JUMP JUMPDEST SWAP1 POP SWAP7 SWAP6 POP POP POP POP POP POP JUMP JUMPDEST PUSH32 0x4E45575F4F574E45525F4E4F545F564552494649454400000000000000000000 PUSH0 DUP3 ADD MSTORE POP JUMP JUMPDEST PUSH0 PUSH2 0x39A2 PUSH1 0x16 DUP4 PUSH2 0x30B7 JUMP JUMPDEST SWAP2 POP PUSH2 0x39AD DUP3 PUSH2 0x396E JUMP JUMPDEST PUSH1 0x20 DUP3 ADD SWAP1 POP SWAP2 SWAP1 POP JUMP JUMPDEST PUSH0 PUSH1 0x20 DUP3 ADD SWAP1 POP DUP2 DUP2 SUB PUSH0 DUP4 ADD MSTORE PUSH2 0x39CF DUP2 PUSH2 0x3996 JUMP JUMPDEST SWAP1 POP SWAP2 SWAP1 POP JUMP JUMPDEST PUSH32 0x50524F50455254595F494E414354495645000000000000000000000000000000 PUSH0 DUP3 ADD MSTORE POP JUMP JUMPDEST PUSH0 PUSH2 0x3A0A PUSH1 0x11 DUP4 PUSH2 0x30B7 JUMP JUMPDEST SWAP2 POP PUSH2 0x3A15 DUP3 PUSH2 0x39D6 JUMP JUMPDEST PUSH1 0x20 DUP3 ADD SWAP1 POP SWAP2 SWAP1 POP JUMP JUMPDEST PUSH0 PUSH1 0x20 DUP3 ADD SWAP1 POP DUP2 DUP2 SUB PUSH0 DUP4 ADD MSTORE PUSH2 0x3A37 DUP2 PUSH2 0x39FE JUMP JUMPDEST SWAP1 POP SWAP2 SWAP1 POP JUMP JUMPDEST PUSH32 0x504552534F4E5F49445F52455155495245440000000000000000000000000000 PUSH0 DUP3 ADD MSTORE POP JUMP JUMPDEST PUSH0 PUSH2 0x3A72 PUSH1 0x12 DUP4 PUSH2 0x30B7 JUMP JUMPDEST SWAP2 POP PUSH2 0x3A7D DUP3 PUSH2 0x3A3E JUMP JUMPDEST PUSH1 0x20 DUP3 ADD SWAP1 POP SWAP2 SWAP1 POP JUMP JUMPDEST PUSH0 PUSH1 0x20 DUP3 ADD SWAP1 POP DUP2 DUP2 SUB PUSH0 DUP4 ADD MSTORE PUSH2 0x3A9F DUP2 PUSH2 0x3A66 JUMP JUMPDEST SWAP1 POP SWAP2 SWAP1 POP JUMP JUMPDEST PUSH32 0x504552534F4E5F45584953545300000000000000000000000000000000000000 PUSH0 DUP3 ADD MSTORE POP JUMP JUMPDEST PUSH0 PUSH2 0x3ADA PUSH1 0xD DUP4 PUSH2 0x30B7 JUMP JUMPDEST SWAP2 POP PUSH2 0x3AE5 DUP3 PUSH2 0x3AA6 JUMP JUMPDEST PUSH1 0x20 DUP3 ADD SWAP1 POP SWAP2 SWAP1 POP JUMP JUMPDEST PUSH0 PUSH1 0x20 DUP3 ADD SWAP1 POP DUP2 DUP2 SUB PUSH0 DUP4 ADD MSTORE PUSH2 0x3B07 DUP2 PUSH2 0x3ACE JUMP JUMPDEST SWAP1 POP SWAP2 SWAP1 POP JUMP JUMPDEST PUSH0 PUSH1 0x40 DUP3 ADD SWAP1 POP PUSH2 0x3B21 PUSH0 DUP4 ADD DUP7 PUSH2 0x29FC JUMP JUMPDEST DUP2 DUP2 SUB PUSH1 0x20 DUP4 ADD MSTORE PUSH2 0x3B34 DUP2 DUP5 DUP7 PUSH2 0x35D5 JUMP JUMPDEST SWAP1 POP SWAP5 SWAP4 POP POP POP POP JUMP JUMPDEST PUSH0 PUSH1 0x20 DUP3 ADD SWAP1 POP DUP2 DUP2 SUB PUSH0 DUP4 ADD MSTORE PUSH2 0x3B57 DUP2 DUP5 DUP7 PUSH2 0x35D5 JUMP JUMPDEST SWAP1 POP SWAP4 SWAP3 POP POP POP JUMP JUMPDEST PUSH0 PUSH1 0x40 DUP3 ADD SWAP1 POP PUSH2 0x3B73 PUSH0 DUP4 ADD DUP6 PUSH2 0x2F90 JUMP JUMPDEST PUSH2 0x3B80 PUSH1 0x20 DUP4 ADD DUP5 PUSH2 0x2A4F JUMP JUMPDEST SWAP4 SWAP3 POP POP POP JUMP INVALID LOG2 PUSH5 0x6970667358 0x22 SLT KECCAK256 SELFDESTRUCT PUSH6 0xAA0F77E993E6 SWAP8 0xDF XOR 0xAA DATALOADN 0x99A7 JUMPF 0x91FB 0x2D 0xDE SLOAD 0xAD 0x2C 0x22 PUSH21 0x43D678F61C5B5E64736F6C634300081E0033000000 "
		},
		"gasEstimates": {
			"creation": {
				"codeDepositCost": "3058600",
				"executionCost": "infinite",
				"totalCost": "infinite"
			},
			"external": {
				"DEFAULT_ADMIN_ROLE()": "396",
				"ESCROW_ROLE()": "436",
				"MANAGER_ROLE()": "369",
				"NFTContract()": "infinite",
				"RegisterPerson(bytes32,address,uint256,bool)": "infinite",
				"getCertificateTokenId(uint256)": "infinite",
				"getPerson(bytes32)": "infinite",
				"getPersonByWallet(address)": "infinite",
				"getProperty(uint256)": "infinite",
				"getPropertyOwner(uint256)": "5177",
				"getRoleAdmin(bytes32)": "infinite",
				"grantRole(bytes32,address)": "infinite",
				"hasRole(bytes32,address)": "3188",
				"isPropertyActive(uint256)": "5092",
				"isVerifiedWallet(address)": "5242",
				"nextPropertyId()": "2470",
				"personIdByWallet(address)": "2848",
				"propertyIdByBackend(bytes32)": "2821",
				"registerProperty(bytes32,address,bytes32,bytes32,string,string)": "infinite",
				"renounceRole(bytes32,address)": "infinite",
				"revokeRole(bytes32,address)": "infinite",
				"setPersonVerified(bytes32,bool)": "infinite",
				"setPropertyActive(uint256,bool)": "infinite",
				"supportsInterface(bytes4)": "786",
				"updateCertificateURI(uint256,string)": "infinite",
				"updateOwnerFromEscrow(uint256,address)": "infinite",
				"updatePersonDataHash(bytes32,bytes32)": "infinite",
				"updatePersonWallet(bytes32,address)": "infinite",
				"updatePropertyData(uint256,bytes32,bytes32,string)": "infinite",
				"verifyOwnership(uint256,address)": "7529"
			}
		},
		"methodIdentifiers": {
			"DEFAULT_ADMIN_ROLE()": "a217fddf",
			"ESCROW_ROLE()": "6ce76f30",
			"MANAGER_ROLE()": "ec87621c",
			"NFTContract()": "31c2273b",
			"RegisterPerson(bytes32,address,uint256,bool)": "f1d45623",
			"getCertificateTokenId(uint256)": "216361a1",
			"getPerson(bytes32)": "ac28838b",
			"getPersonByWallet(address)": "9855fd70",
			"getProperty(uint256)": "32665ffb",
			"getPropertyOwner(uint256)": "e34fc531",
			"getRoleAdmin(bytes32)": "248a9ca3",
			"grantRole(bytes32,address)": "2f2ff15d",
			"hasRole(bytes32,address)": "91d14854",
			"isPropertyActive(uint256)": "154bb891",
			"isVerifiedWallet(address)": "61bf4b3a",
			"nextPropertyId()": "39500f34",
			"personIdByWallet(address)": "771be719",
			"propertyIdByBackend(bytes32)": "40068302",
			"registerProperty(bytes32,address,bytes32,bytes32,string,string)": "b7a2c221",
			"renounceRole(bytes32,address)": "36568abe",
			"revokeRole(bytes32,address)": "d547741f",
			"setPersonVerified(bytes32,bool)": "14330660",
			"setPropertyActive(uint256,bool)": "00d913e0",
			"supportsInterface(bytes4)": "01ffc9a7",
			"updateCertificateURI(uint256,string)": "f85ad0d6",
			"updateOwnerFromEscrow(uint256,address)": "c6a839d2",
			"updatePersonDataHash(bytes32,bytes32)": "f13e16d0",
			"updatePersonWallet(bytes32,address)": "9bc621dc",
			"updatePropertyData(uint256,bytes32,bytes32,string)": "b088f454",
			"verifyOwnership(uint256,address)": "09cc449d"
		}
	},
	"abi": [
		{
			"inputs": [
				{
					"internalType": "address",
					"name": "admin",
					"type": "address"
				},
				{
					"internalType": "address",
					"name": "certificateNFTAddress",
					"type": "address"
				}
			],
			"stateMutability": "nonpayable",
			"type": "constructor"
		},
		{
			"inputs": [],
			"name": "AccessControlBadConfirmation",
			"type": "error"
		},
		{
			"inputs": [
				{
					"internalType": "address",
					"name": "account",
					"type": "address"
				},
				{
					"internalType": "bytes32",
					"name": "neededRole",
					"type": "bytes32"
				}
			],
			"name": "AccessControlUnauthorizedAccount",
			"type": "error"
		},
		{
			"anonymous": false,
			"inputs": [
				{
					"indexed": true,
					"internalType": "uint256",
					"name": "PropertyId",
					"type": "uint256"
				},
				{
					"indexed": true,
					"internalType": "uint256",
					"name": "TokenId",
					"type": "uint256"
				},
				{
					"indexed": false,
					"internalType": "string",
					"name": "CertificateURI",
					"type": "string"
				}
			],
			"name": "CertificateURIUpdated",
			"type": "event"
		},
		{
			"anonymous": false,
			"inputs": [
				{
					"indexed": true,
					"internalType": "bytes32",
					"name": "backendPersonId",
					"type": "bytes32"
				},
				{
					"indexed": false,
					"internalType": "bytes32",
					"name": "datahash",
					"type": "bytes32"
				}
			],
			"name": "PersonDataHashUpdated",
			"type": "event"
		},
		{
			"anonymous": false,
			"inputs": [
				{
					"indexed": true,
					"internalType": "bytes32",
					"name": "backendPersonId",
					"type": "bytes32"
				},
				{
					"indexed": true,
					"internalType": "address",
					"name": "wallet",
					"type": "address"
				},
				{
					"indexed": false,
					"internalType": "bytes32",
					"name": "datahash",
					"type": "bytes32"
				}
			],
			"name": "PersonRegistered",
			"type": "event"
		},
		{
			"anonymous": false,
			"inputs": [
				{
					"indexed": true,
					"internalType": "bytes32",
					"name": "backendPersonId",
					"type": "bytes32"
				},
				{
					"indexed": true,
					"internalType": "address",
					"name": "wallet",
					"type": "address"
				},
				{
					"indexed": false,
					"internalType": "bool",
					"name": "verified",
					"type": "bool"
				}
			],
			"name": "PersonVerificationChanged",
			"type": "event"
		},
		{
			"anonymous": false,
			"inputs": [
				{
					"indexed": true,
					"internalType": "bytes32",
					"name": "backendPersonId",
					"type": "bytes32"
				},
				{
					"indexed": true,
					"internalType": "address",
					"name": "oldWallet",
					"type": "address"
				},
				{
					"indexed": true,
					"internalType": "address",
					"name": "newWallet",
					"type": "address"
				}
			],
			"name": "PersonWalletChanged",
			"type": "event"
		},
		{
			"anonymous": false,
			"inputs": [
				{
					"indexed": true,
					"internalType": "uint256",
					"name": "PropertyId",
					"type": "uint256"
				},
				{
					"indexed": false,
					"internalType": "bool",
					"name": "active",
					"type": "bool"
				}
			],
			"name": "PropertyActiveChanged",
			"type": "event"
		},
		{
			"anonymous": false,
			"inputs": [
				{
					"indexed": true,
					"internalType": "uint256",
					"name": "PropertyId",
					"type": "uint256"
				},
				{
					"indexed": false,
					"internalType": "bytes32",
					"name": "PropertyDataHash",
					"type": "bytes32"
				},
				{
					"indexed": false,
					"internalType": "bytes32",
					"name": "legalDocumentHash",
					"type": "bytes32"
				},
				{
					"indexed": false,
					"internalType": "string",
					"name": "location",
					"type": "string"
				}
			],
			"name": "PropertyDataUpdated",
			"type": "event"
		},
		{
			"anonymous": false,
			"inputs": [
				{
					"indexed": true,
					"internalType": "uint256",
					"name": "PropertyId",
					"type": "uint256"
				},
				{
					"indexed": true,
					"internalType": "address",
					"name": "oldOwner",
					"type": "address"
				},
				{
					"indexed": true,
					"internalType": "address",
					"name": "newOwner",
					"type": "address"
				}
			],
			"name": "PropertyOwnerChanged",
			"type": "event"
		},
		{
			"anonymous": false,
			"inputs": [
				{
					"indexed": true,
					"internalType": "uint256",
					"name": "propertyId",
					"type": "uint256"
				},
				{
					"indexed": true,
					"internalType": "bytes32",
					"name": "backendPropertyId",
					"type": "bytes32"
				},
				{
					"indexed": true,
					"internalType": "uint256",
					"name": "certificateTokenId",
					"type": "uint256"
				},
				{
					"indexed": false,
					"internalType": "address",
					"name": "owner",
					"type": "address"
				}
			],
			"name": "PropertyRegistered",
			"type": "event"
		},
		{
			"anonymous": false,
			"inputs": [
				{
					"indexed": true,
					"internalType": "bytes32",
					"name": "role",
					"type": "bytes32"
				},
				{
					"indexed": true,
					"internalType": "bytes32",
					"name": "previousAdminRole",
					"type": "bytes32"
				},
				{
					"indexed": true,
					"internalType": "bytes32",
					"name": "newAdminRole",
					"type": "bytes32"
				}
			],
			"name": "RoleAdminChanged",
			"type": "event"
		},
		{
			"anonymous": false,
			"inputs": [
				{
					"indexed": true,
					"internalType": "bytes32",
					"name": "role",
					"type": "bytes32"
				},
				{
					"indexed": true,
					"internalType": "address",
					"name": "account",
					"type": "address"
				},
				{
					"indexed": true,
					"internalType": "address",
					"name": "sender",
					"type": "address"
				}
			],
			"name": "RoleGranted",
			"type": "event"
		},
		{
			"anonymous": false,
			"inputs": [
				{
					"indexed": true,
					"internalType": "bytes32",
					"name": "role",
					"type": "bytes32"
				},
				{
					"indexed": true,
					"internalType": "address",
					"name": "account",
					"type": "address"
				},
				{
					"indexed": true,
					"internalType": "address",
					"name": "sender",
					"type": "address"
				}
			],
			"name": "RoleRevoked",
			"type": "event"
		},
		{
			"inputs": [],
			"name": "DEFAULT_ADMIN_ROLE",
			"outputs": [
				{
					"internalType": "bytes32",
					"name": "",
					"type": "bytes32"
				}
			],
			"stateMutability": "view",
			"type": "function"
		},
		{
			"inputs": [],
			"name": "ESCROW_ROLE",
			"outputs": [
				{
					"internalType": "bytes32",
					"name": "",
					"type": "bytes32"
				}
			],
			"stateMutability": "view",
			"type": "function"
		},
		{
			"inputs": [],
			"name": "MANAGER_ROLE",
			"outputs": [
				{
					"internalType": "bytes32",
					"name": "",
					"type": "bytes32"
				}
			],
			"stateMutability": "view",
			"type": "function"
		},
		{
			"inputs": [],
			"name": "NFTContract",
			"outputs": [
				{
					"internalType": "contract CertificateNFT",
					"name": "",
					"type": "address"
				}
			],
			"stateMutability": "view",
			"type": "function"
		},
		{
			"inputs": [
				{
					"internalType": "bytes32",
					"name": "backendPersonId",
					"type": "bytes32"
				},
				{
					"internalType": "address",
					"name": "Wallet",
					"type": "address"
				},
				{
					"internalType": "uint256",
					"name": "datahash",
					"type": "uint256"
				},
				{
					"internalType": "bool",
					"name": "verified",
					"type": "bool"
				}
			],
			"name": "RegisterPerson",
			"outputs": [],
			"stateMutability": "nonpayable",
			"type": "function"
		},
		{
			"inputs": [
				{
					"internalType": "uint256",
					"name": "propertyId",
					"type": "uint256"
				}
			],
			"name": "getCertificateTokenId",
			"outputs": [
				{
					"internalType": "uint256",
					"name": "",
					"type": "uint256"
				}
			],
			"stateMutability": "view",
			"type": "function"
		},
		{
			"inputs": [
				{
					"internalType": "bytes32",
					"name": "backendPersonId",
					"type": "bytes32"
				}
			],
			"name": "getPerson",
			"outputs": [
				{
					"components": [
						{
							"internalType": "bytes32",
							"name": "backendPersonId",
							"type": "bytes32"
						},
						{
							"internalType": "bytes32",
							"name": "datahash",
							"type": "bytes32"
						},
						{
							"internalType": "address",
							"name": "wallet",
							"type": "address"
						},
						{
							"internalType": "bool",
							"name": "verified",
							"type": "bool"
						},
						{
							"internalType": "uint256",
							"name": "CreatedAt",
							"type": "uint256"
						},
						{
							"internalType": "uint256",
							"name": "UpdatedAt",
							"type": "uint256"
						}
					],
					"internalType": "struct PropertyRegistry.Person",
					"name": "",
					"type": "tuple"
				}
			],
			"stateMutability": "view",
			"type": "function"
		},
		{
			"inputs": [
				{
					"internalType": "address",
					"name": "wallet",
					"type": "address"
				}
			],
			"name": "getPersonByWallet",
			"outputs": [
				{
					"components": [
						{
							"internalType": "bytes32",
							"name": "backendPersonId",
							"type": "bytes32"
						},
						{
							"internalType": "bytes32",
							"name": "datahash",
							"type": "bytes32"
						},
						{
							"internalType": "address",
							"name": "wallet",
							"type": "address"
						},
						{
							"internalType": "bool",
							"name": "verified",
							"type": "bool"
						},
						{
							"internalType": "uint256",
							"name": "CreatedAt",
							"type": "uint256"
						},
						{
							"internalType": "uint256",
							"name": "UpdatedAt",
							"type": "uint256"
						}
					],
					"internalType": "struct PropertyRegistry.Person",
					"name": "",
					"type": "tuple"
				}
			],
			"stateMutability": "view",
			"type": "function"
		},
		{
			"inputs": [
				{
					"internalType": "uint256",
					"name": "propertyId",
					"type": "uint256"
				}
			],
			"name": "getProperty",
			"outputs": [
				{
					"components": [
						{
							"internalType": "uint256",
							"name": "id",
							"type": "uint256"
						},
						{
							"internalType": "bytes32",
							"name": "backendPropertyId",
							"type": "bytes32"
						},
						{
							"internalType": "bytes32",
							"name": "propertydataHash",
							"type": "bytes32"
						},
						{
							"internalType": "bytes32",
							"name": "legalDocumentHash",
							"type": "bytes32"
						},
						{
							"internalType": "uint256",
							"name": "certificateTokenId",
							"type": "uint256"
						},
						{
							"internalType": "address",
							"name": "currentOwner",
							"type": "address"
						},
						{
							"internalType": "address",
							"name": "createdBy",
							"type": "address"
						},
						{
							"internalType": "string",
							"name": "location",
							"type": "string"
						},
						{
							"internalType": "string",
							"name": "certificateURI",
							"type": "string"
						},
						{
							"internalType": "bool",
							"name": "active",
							"type": "bool"
						},
						{
							"internalType": "uint256",
							"name": "createdAt",
							"type": "uint256"
						},
						{
							"internalType": "uint256",
							"name": "updatedAt",
							"type": "uint256"
						}
					],
					"internalType": "struct PropertyRegistry.Property",
					"name": "",
					"type": "tuple"
				}
			],
			"stateMutability": "view",
			"type": "function"
		},
		{
			"inputs": [
				{
					"internalType": "uint256",
					"name": "propertyId",
					"type": "uint256"
				}
			],
			"name": "getPropertyOwner",
			"outputs": [
				{
					"internalType": "address",
					"name": "",
					"type": "address"
				}
			],
			"stateMutability": "view",
			"type": "function"
		},
		{
			"inputs": [
				{
					"internalType": "bytes32",
					"name": "role",
					"type": "bytes32"
				}
			],
			"name": "getRoleAdmin",
			"outputs": [
				{
					"internalType": "bytes32",
					"name": "",
					"type": "bytes32"
				}
			],
			"stateMutability": "view",
			"type": "function"
		},
		{
			"inputs": [
				{
					"internalType": "bytes32",
					"name": "role",
					"type": "bytes32"
				},
				{
					"internalType": "address",
					"name": "account",
					"type": "address"
				}
			],
			"name": "grantRole",
			"outputs": [],
			"stateMutability": "nonpayable",
			"type": "function"
		},
		{
			"inputs": [
				{
					"internalType": "bytes32",
					"name": "role",
					"type": "bytes32"
				},
				{
					"internalType": "address",
					"name": "account",
					"type": "address"
				}
			],
			"name": "hasRole",
			"outputs": [
				{
					"internalType": "bool",
					"name": "",
					"type": "bool"
				}
			],
			"stateMutability": "view",
			"type": "function"
		},
		{
			"inputs": [
				{
					"internalType": "uint256",
					"name": "propertyId",
					"type": "uint256"
				}
			],
			"name": "isPropertyActive",
			"outputs": [
				{
					"internalType": "bool",
					"name": "",
					"type": "bool"
				}
			],
			"stateMutability": "view",
			"type": "function"
		},
		{
			"inputs": [
				{
					"internalType": "address",
					"name": "wallet",
					"type": "address"
				}
			],
			"name": "isVerifiedWallet",
			"outputs": [
				{
					"internalType": "bool",
					"name": "",
					"type": "bool"
				}
			],
			"stateMutability": "view",
			"type": "function"
		},
		{
			"inputs": [],
			"name": "nextPropertyId",
			"outputs": [
				{
					"internalType": "uint256",
					"name": "",
					"type": "uint256"
				}
			],
			"stateMutability": "view",
			"type": "function"
		},
		{
			"inputs": [
				{
					"internalType": "address",
					"name": "",
					"type": "address"
				}
			],
			"name": "personIdByWallet",
			"outputs": [
				{
					"internalType": "bytes32",
					"name": "",
					"type": "bytes32"
				}
			],
			"stateMutability": "view",
			"type": "function"
		},
		{
			"inputs": [
				{
					"internalType": "bytes32",
					"name": "",
					"type": "bytes32"
				}
			],
			"name": "propertyIdByBackend",
			"outputs": [
				{
					"internalType": "uint256",
					"name": "",
					"type": "uint256"
				}
			],
			"stateMutability": "view",
			"type": "function"
		},
		{
			"inputs": [
				{
					"internalType": "bytes32",
					"name": "backendPropertyId",
					"type": "bytes32"
				},
				{
					"internalType": "address",
					"name": "initialOwner",
					"type": "address"
				},
				{
					"internalType": "bytes32",
					"name": "propertydataHash",
					"type": "bytes32"
				},
				{
					"internalType": "bytes32",
					"name": "legalDocumentHash",
					"type": "bytes32"
				},
				{
					"internalType": "string",
					"name": "location",
					"type": "string"
				},
				{
					"internalType": "string",
					"name": "certificateURI",
					"type": "string"
				}
			],
			"name": "registerProperty",
			"outputs": [
				{
					"internalType": "uint256",
					"name": "propertyId",
					"type": "uint256"
				},
				{
					"internalType": "uint256",
					"name": "tokenId",
					"type": "uint256"
				}
			],
			"stateMutability": "nonpayable",
			"type": "function"
		},
		{
			"inputs": [
				{
					"internalType": "bytes32",
					"name": "role",
					"type": "bytes32"
				},
				{
					"internalType": "address",
					"name": "callerConfirmation",
					"type": "address"
				}
			],
			"name": "renounceRole",
			"outputs": [],
			"stateMutability": "nonpayable",
			"type": "function"
		},
		{
			"inputs": [
				{
					"internalType": "bytes32",
					"name": "role",
					"type": "bytes32"
				},
				{
					"internalType": "address",
					"name": "account",
					"type": "address"
				}
			],
			"name": "revokeRole",
			"outputs": [],
			"stateMutability": "nonpayable",
			"type": "function"
		},
		{
			"inputs": [
				{
					"internalType": "bytes32",
					"name": "backendPersonId",
					"type": "bytes32"
				},
				{
					"internalType": "bool",
					"name": "verified",
					"type": "bool"
				}
			],
			"name": "setPersonVerified",
			"outputs": [],
			"stateMutability": "nonpayable",
			"type": "function"
		},
		{
			"inputs": [
				{
					"internalType": "uint256",
					"name": "propertyId",
					"type": "uint256"
				},
				{
					"internalType": "bool",
					"name": "active",
					"type": "bool"
				}
			],
			"name": "setPropertyActive",
			"outputs": [],
			"stateMutability": "nonpayable",
			"type": "function"
		},
		{
			"inputs": [
				{
					"internalType": "bytes4",
					"name": "interfaceId",
					"type": "bytes4"
				}
			],
			"name": "supportsInterface",
			"outputs": [
				{
					"internalType": "bool",
					"name": "",
					"type": "bool"
				}
			],
			"stateMutability": "view",
			"type": "function"
		},
		{
			"inputs": [
				{
					"internalType": "uint256",
					"name": "propertyId",
					"type": "uint256"
				},
				{
					"internalType": "string",
					"name": "certificateURI",
					"type": "string"
				}
			],
			"name": "updateCertificateURI",
			"outputs": [],
			"stateMutability": "nonpayable",
			"type": "function"
		},
		{
			"inputs": [
				{
					"internalType": "uint256",
					"name": "propertyId",
					"type": "uint256"
				},
				{
					"internalType": "address",
					"name": "newOwner",
					"type": "address"
				}
			],
			"name": "updateOwnerFromEscrow",
			"outputs": [],
			"stateMutability": "nonpayable",
			"type": "function"
		},
		{
			"inputs": [
				{
					"internalType": "bytes32",
					"name": "backendPersonId",
					"type": "bytes32"
				},
				{
					"internalType": "bytes32",
					"name": "dataHash",
					"type": "bytes32"
				}
			],
			"name": "updatePersonDataHash",
			"outputs": [],
			"stateMutability": "nonpayable",
			"type": "function"
		},
		{
			"inputs": [
				{
					"internalType": "bytes32",
					"name": "backendPersonId",
					"type": "bytes32"
				},
				{
					"internalType": "address",
					"name": "newWallet",
					"type": "address"
				}
			],
			"name": "updatePersonWallet",
			"outputs": [],
			"stateMutability": "nonpayable",
			"type": "function"
		},
		{
			"inputs": [
				{
					"internalType": "uint256",
					"name": "propertyId",
					"type": "uint256"
				},
				{
					"internalType": "bytes32",
					"name": "propertyDataHash",
					"type": "bytes32"
				},
				{
					"internalType": "bytes32",
					"name": "legalDocumentHash",
					"type": "bytes32"
				},
				{
					"internalType": "string",
					"name": "location",
					"type": "string"
				}
			],
			"name": "updatePropertyData",
			"outputs": [],
			"stateMutability": "nonpayable",
			"type": "function"
		},
		{
			"inputs": [
				{
					"internalType": "uint256",
					"name": "propertyId",
					"type": "uint256"
				},
				{
					"internalType": "address",
					"name": "account",
					"type": "address"
				}
			],
			"name": "verifyOwnership",
			"outputs": [
				{
					"internalType": "bool",
					"name": "",
					"type": "bool"
				}
			],
			"stateMutability": "view",
			"type": "function"
		}
	]
}